:100000000C94DA010C940A020C940A020C940A0271
:100010000C940A020C943F610C949E5C0C944D5A13
:100020000C94E1590C940A020C940A020C940A02F2
:100030000C940A020C94555F0C940A020C940A0268
:100040000C940A020C94B95A0C940A020C940A02F9
:100050000C940A020C940A020C940A020C940A02F0
:100060000C940A020C94EC610C948B600C94B860B4
:100070000C940A020C949A580C94CF220C940A0205
:100080000C940A020C940A020C940A020C940A02C0
:100090000C94AF610C94E5600C9412610C94316285
:1000A0000C940A020C940A020C9487220C940A0203
:1000B0000C940A020C940A020C940A020C940A0290
:1000C0000C940A020C940A020C940A02C108C30898
:1000D000C3083709D708D7083909D708D708D90876
:1000E000DC083709DF08E208FA08B00848091309F4
:1000F0001C091F09B808A808AB08370927093509E2
:1001000035093509C508CE08B5082C092F0932096B
:100110003509370939093B094B094E095109580975
:100120007E0A7A0AD50A820A350A0E0ACF09D70949
:10013000600A6E0AE709860ADB09DF09D50AD50AD3
:10014000D50AD50AD50A940AA20A5C0A720A760A66
:10015000B00AD50AD50AD50AC80AB40AB80ABC0A30
:10016000C40A7D2941294B29552950295A295F293B
:10017000642969296E2973293E293E293E293E2991
:100180008C293E293E293E293E2996293E29782957
:1001900087293E293E29822991293E293E293E2947
:1001A0003E293E293E293E293E293E293E293E2917
:1001B0003E293E293E299B29A029A529AA29AF2904
:1001C0003E29B4299C36D936FC36FF361037133712
:1001D0003F3742375137F6371538543769376C3760
:1001E000823785379C379F37B437C637F337203887
:1001F0004538453836805D8078809C82C480C980CF
:100200009C82FA80AD819C829C8223819C82238186
:100210009C8223819C8243819C8253819C82798130
:100220009C8285819C829D819C82D7819C82EB816E
:100230009C82FC819C8218829C823A8238974497E7
:100240007F977F977F974497449744977F974497EA
:10025000DF96FA96FF967F970297059708977F9704
:100260000D971097449744972D9741977F97309714
:100270003397F79636973697449744974497449721
:100280004497449744974497449744974497449796
:1002900044974497449744974497159744977F977A
:1002A0007F977F977F977F977F977F977F977F979E
:1002B0007F977F977F977F977F97BA986B98BD9826
:1002C000BD98BD986B986B98BD98BD986B98EC974E
:1002D00006980E98BD9813981B982598BD982D9850
:1002E0003298BD986B9854986698BD9859986198C3
:1002F000BA98BA98BA986B986B986B986B986B98F9
:100300006B986B986B986B986B986B986B986B98D5
:100310006B986B986B986B983A986B98BD98BD9852
:10032000BD98BD98BD98BD98BD98BD98BD98BD9825
:10033000BD98BD98BD98BD98130E111216151E1FBD
:10034000200F10260AABAE000008000800080010BD
:10035000000400140001001500020017000100183D
:10036000000100190001001A0001001B0002001D1D
:100370000001001E0001001F0004002300020025F0
:10038000000100DE1153560000DB1F0000000000DA
:100390000002400305000000010864000C01640035
:1003A0000000FFFFFFFFFFFFFFFFE8030000020365
:1003B0000405060080910C14823111F084B701C04D
:1003C00081E180930C1414BE809160008861809359
:1003D00060001092600011241FBECFEFD1E2DEBF9B
:1003E000CDBF13E0A0E0B2E0E4E5F8E501E00BBF2B
:1003F00002C007900D92AC30B107D9F714E1ACE020
:10040000B3E001C01D92AC30B107E1F70E94F225C4
:100410000C9428AC0C9400007F937FB7F8949D9ABD
:10042000A5988AEF0E946B028AEF0E946B029D984A
:1004300086E40E946B0281E0959980E08F9380EFC3
:100440000E946B028F917FBF7F9108957F937FB74A
:10045000F8949D9AA59882E00E946B029D988AE08C
:100460000E946B02889495990894881F8F9384E664
:100470000E946B028F917FBF7F9108959F937F931E
:1004800098E00E942602879577959A959923C9F757
:10049000872F7F919F9108957F937FB7F894A598B8
:1004A0009D9A8F9382E00E946B028F91879508F44A
:1004B0009D988F9384E60E946B028F919D987FBFD9
:1004C0007F9108959F9398E00E944C029A959923FA
:1004D000D9F79F9108958A958823E9F708950F9396
:1004E000DF93CF93CDB7DEB760970FB6F894DEBF3A
:1004F0000FBECDBF002309F459C029833A834B8333
:100500005C836D837E838F839887E0E2E01B2D817F
:100510003E814F8158851E16BCF01D861E861F86A3
:10052000188A8E2F992787FD9095909581959F4FDA
:1005300004C056954795379527958A95D2F7298710
:100540003A874B875C872AC0CA01B901002E04C0D4
:1005500096958795779567950A94D2F76D877E87EC
:100560008F87988BDA01C90104C0880F991FAA1FD1
:10057000BB1FEA95D2F729813A814B815C8104C087
:1005800056954795379527950A95D2F7822B932B49
:10059000A42BB52B89879A87AB87BC8729853A8599
:1005A0004B855C856D857E858F85988960960FB6B5
:1005B000F894DEBF0FBECDBFCF91DF910F910895AC
:1005C0002E9863995E9808952E9A80910D039091CC
:1005D0000E0382309105C1F480910F0390911003B6
:1005E000009791F481E090E09093100380930F03C3
:1005F0002FB7F8948091E80C9091E90C9260909359
:10060000E90C8093E80C2FBF08950895FC018785BD
:1006100090890097E1F482E090E090930E0380933C
:100620000D031092100310920F0310920C038BE530
:1006300092E0909315038093140384E393E09093E6
:1006400017038093160381E193E00E9435122FB7C0
:10065000F8948091E80C9091E90C92609093E90CE9
:100660008093E80C2FBF08958F929F92AF92BF9214
:10067000CF92DF92EF920F93CF93DF936C012D987F
:10068000C8E1D3E000E0802E02E0902ECE01B4015C
:100690000E9426A9CE012091550230915602409128
:1006A0005702509158026091590270915A020BE61C
:1006B000B8E3EB2E0E940DA5CE0164E072E00E942B
:1006C00026A9CE0120915502309156024091570241
:1006D000509158026091590270915A020E940DA5E2
:1006E00026E333E0D6015E964C915E975F966C915F
:1006F0005F9790967C91C90150E00E9416A9A8E0EE
:10070000AA2EA2E0BA2ECE01B5010E9426A9CE01E2
:100710002091550230915602409157025091580253
:100720006091590270915A0201E0EE24E3940E9414
:100730000DA5EDB7FEB738970FB6F894FEBF0FBE04
:10074000EDBF3196ADB7BEB71296DC93CE9311973D
:1007500089E192E0938382838091370390913803FB
:10076000A0913903B0913A0384839583A683B7831C
:100770000E942DA9EDB7FEB738960FB6F894FEBFCC
:100780000FBEEDBFCE01209155023091560240912F
:100790005702509158026091590270915A020E947A
:1007A0000DA5CE01B5010E9426A9CE0120915502CA
:1007B000309156024091570250915802609159026F
:1007C00070915A02FBE0EF2E0E940DA500D000D0E0
:1007D00000D0EDB7FEB73196ADB7BEB71296DC9339
:1007E000CE93119783E292E093838283D6019A9607
:1007F0008C91992787FD9095958384830E942DA9DC
:10080000EDB7FEB736960FB6F894FEBF0FBEEDBF3C
:10081000CE012091550230915602409157025091DD
:1008200058026091590270915A020E940DA5CE01A2
:10083000B4010E9426A9CE012091550230915602A2
:1008400040915702509158026091590270915A029A
:100850000BE6E8E3EE2E0E940DA5CE016DE272E0FC
:100860000E9426A9CE012091550230915602409156
:100870005702509158026091590270915A020E9499
:100880000DA52D9ADF91CF910F91EF90DF90CF9032
:10089000BF90AF909F908F900895CF92DF92EF928C
:1008A0000F93CF93DF936C012D9A109263031092F4
:1008B0006203DC018D919C911197C8E1D3E0009710
:1008C00009F04AC01092100310920F03CE0160E0AD
:1008D00072E00E9426A9CE01209155023091560265
:1008E00040915702509158026091590270915A02FA
:1008F0000BE6F8E3EF2E0E940DA500D000D000D04B
:10090000EDB7FEB73196ADB7BEB71296DC93CE9376
:1009100011978DE292E093838283D6018D919C9111
:10092000958384830E942DA9EDB7FEB736960FB646
:10093000F894FEBF0FBEEDBFCE012091550230915D
:10094000560240915702509158026091590270919D
:100950005A020E940DA54BC0CE0160E072E00E94D9
:1009600026A9CE012091550230915602409157029E
:10097000509158026091590270915A020BE6E8E3D7
:10098000EE2E0E940DA500D000D000D0EDB7FEB72E
:100990003196ADB7BEB71296DC93CE93119781E333
:1009A00092E093838283D6018D919C919583848379
:1009B0000E942DA9EDB7FEB736960FB6F894FEBF8C
:1009C0000FBEEDBFCE0120915502309156024091ED
:1009D0005702509158026091590270915A020E9438
:1009E0000DA581E090E09093100380930F032FB743
:1009F000F8948091E80C9091E90C92609093E90C46
:100A00008093E80C2FBFDF91CF910F91EF90DF9093
:100A1000CF900895CF92DF92EF92FF920F931F93A2
:100A2000DF93CF9300D0CDB7DEB780910D039091C7
:100A30000E038130910509F470C18130910528F0D1
:100A40008230910509F066C2A9C1569A5E9A259A2C
:100A5000269A2D982E980E94ACA280EE92E064EE29
:100A600072E00E94EE078FEF9FEF9A8389838E01D9
:100A70000F5F1F4F81E2B80142E050E00E947BA26D
:100A800081E2B80142E050E00E9439A2E9818A8106
:100A9000E095E0933B03EE2319F42D982E98FFCFB9
:100AA00080958F70855F80933C0330E040E050E09C
:100AB00060E070E0CB011E2F1F5DF1E01E1708F013
:100AC000F0E0E1E0323B08F4E0E001EBF02EFF0E55
:100AD000E060F1E04C3B08F4F0E00E2F0554E1E05B
:100AE0000B3B08F0E0E0FE2BE1E05C3B08F4E0E0CB
:100AF000BF2FB554F1E0BB3B08F0F0E0EF2BF1E085
:100B00006C3A08F4F0E0AE2FA555E1E0AB3A08F0FE
:100B1000E0E0FE2BE1E07B3A08F4E0E0F655CC247F
:100B2000C394FA3A08F0CC24EC29CC24C3948B3A31
:100B300008F4CC249E2F965581E09A3A08F080E084
:100B40008C29865510933D03F0923E0300933F039A
:100B5000B0934003A0934103F09342039093430367
:100B60008093440383E190E06DE373E00E94C00949
:100B700080913B0380934503109246038FE090E001
:100B800065E473E00E94C00981E090E0A0E0B0E07D
:100B900000903C0304C0880F991FAA1FBB1F0A9432
:100BA000D2F78093470390934803A0934903B093EF
:100BB0004A0381E190E067E473E00E94C0090E946B
:100BC000A2A70E9442A600D000D000D0EDB7FEB789
:100BD0003196B8E1CB2EB3E0DB2EADB7BEB712969F
:100BE000DC92CE92119787E392E09383828387E62B
:100BF00092E0958384830E942DA98DB79EB70696B7
:100C00000FB6F8949EBF0FBE8DBFC601209155024E
:100C1000309156024091570250915802609159020A
:100C200070915A0201E0A2E3EA2E0E940DA500D0C5
:100C300000D000D0EDB7FEB73196ADB7BEB7129673
:100C4000DC92CE9211978BE392E093838283809122
:100C50003C03848315820E942DA98DB79EB706960A
:100C60000FB6F8949EBF0FBE8DBFC60120915502EE
:100C700030915602409157025091580260915902AA
:100C800070915A0201E6FEE1EF2E0E940DA500D000
:100C900000D000D0EDB7FEB73196ADB7BEB7129613
:100CA000DC92CE92119781E492E0938382838091CB
:100CB0003B03848315820E942DA98DB79EB70696AB
:100CC0000FB6F8949EBF0FBE8DBFC601209155028E
:100CD000309156024091570250915802609159024A
:100CE00070915A02E8E2EE2E0E940DA52D9A2E9ADE
:100CF00010920C0381E090E090930E0380930D031B
:100D00002FB7F8948091E80C9091E90C9260909341
:100D1000E90C8093E80C2FBFFDC080910C03882361
:100D200091F588E193E060E072E00E9426A988E1F5
:100D300093E0209155023091560240915702509114
:100D400058026091590270915A020BE618E3E12EA5
:100D50000E940DA588E193E067E472E00E9426A955
:100D600088E193E02091550230915602409157025C
:100D7000509158026091590270915A020E940DA53B
:100D800081E080930C0386E093E090935D03809371
:100D90005C038BE493E00E94584DBCC080910C032F
:100DA000882391F588E193E060E072E00E9426A933
:100DB00088E193E02091550230915602409157020C
:100DC000509158026091590270915A020BE6B8E3B3
:100DD000EB2E0E940DA588E193E06DE272E00E9487
:100DE00026A988E193E02091550230915602409166
:100DF0005702509158026091590270915A020E9414
:100E00000DA581E080930C03C0900F03D0901003D8
:100E100091E0C916D10431F0A5E0CA16D10409F059
:100E200079C06EC02D98D0926303C092620388E1AE
:100E300093E060E072E00E9426A988E193E02091AF
:100E400055023091560240915702509158026091DC
:100E5000590270915A020BE6A8E3EA2E0E940DA5F2
:100E600088E193E06BE472E00E9426A988E193E0B8
:100E700020915502309156024091570250915802EC
:100E80006091590270915A020E940DA581E08093F1
:100E900092031092930382E090E0909397038093E3
:100EA0009603109299031092980322E02093A203D4
:100EB00080915C0290915D029093A4038093A303C0
:100EC000D092A603C092A5032093A7032093A80362
:100ED00082E993E09093AA038093A9038091AB03E6
:100EE0008B7F8093AB031092AC038DE494E09093DE
:100EF000AE038093AD0384E993E00E94CD1E0AC047
:100F000085E093E090936103809360038EE593E026
:100F10000E94C3490F900F90CF91DF911F910F91C5
:100F2000FF90EF90DF90CF900895DF93CF93CDB7F0
:100F3000DEB761970FB6F894DEBF0FBECDBFFC01E0
:100F4000808191818F38910539F4198A188ACE01F0
:100F500001960E94060317C081399105A1F41092F1
:100F60000C0381E090E090930E0380930D032FB764
:100F7000F8948091E80C9091E90C92609093E90CC0
:100F80008093E80C2FBF61960FB6F894DEBF0FBEBA
:100F9000CDBFCF91DF9108950895089586E090E048
:100FA0000E94CE258091B50381608093B503809126
:100FB000B50384608093B5038091BB038160809307
:100FC000BB032FB7F8948091E80C9091E90C9160E5
:100FD0009093E90C8093E80C2FBF08952091BA03F9
:100FE000222321F521E02093BA039093B703809345
:100FF000B6037093B9036093B80386E090E060E0B5
:1010000070E04EEC57E00E949D25669B04C08091E5
:10101000B5038E7F03C08091B50381608093B503D3
:1010200086E090E00E94562580E0089581E00895D2
:101030008091BA03813081F486E090E00E947425AB
:101040001092B7031092B6031092B9031092B8032E
:101050001092BA0380E0089581E008958091B5036D
:1010600081709091B50391FD826008958091B503E0
:1010700082FF12C08091B5038B7F8093B50380916E
:10108000B50380618093B503E091B603F091B70397
:10109000309711F081E009958091B50384FF2AC053
:1010A000669B17C08091B5038F7E8093B5038091B6
:1010B000B5038E7F8093B503E091B803F091B90337
:1010C000309711F081E0099586E090E00E94562566
:1010D00008958091BB0381608093BB032FB7F89480
:1010E0008091E80C9091E90C91609093E90C8093C9
:1010F000E80C2FBF08958091BB0380FF05C08E7F51
:101100008093BB030E9436088091BB03882361F063
:101110002FB7F8948091E80C9091E90C916090932E
:10112000E90C8093E80C2FBF0895CF93DF93EB0178
:10113000209709F4C0C08A32910508F0BCC08A59D2
:101140009F4FFC01EE0FFF1F0590F491E02D0994D5
:101150008091CD03AFC080917D0290917E02A5C0A9
:101160008091770290917802A0C08091CE03A2C0B6
:101170008091840290918502A0918602B0918702AD
:1011800082C084E097C0188296C08091D403909169
:10119000D503A091D603B091D70375C08091880282
:1011A00090918902A0918A02B0918B026CC082E07A
:1011B00081C0809182027EC0809181027BC080913B
:1011C000830278C08091BC0388838091BD038983AA
:1011D0008091BE038A838091BF038B838091C0037B
:1011E0008C838091C1038D838091C2038E83809113
:1011F000C30317C080916F02888380917002898336
:10120000809171028A83809172028B838091730234
:101210008C83809174028D83809175028E8380917E
:1012200076028F8348C08091790290917A02A091D2
:101230007B02B0917C0227C08091C4033BC0E5ECE7
:10124000F3E088E0019009928150E1F734C084EB2B
:1012500090E0A0E0B0E017C080917F022BC08091A9
:10126000CF0328C08091D80325C081E023C085E04A
:1012700021C083E01FC080918D0290918E02A091C9
:101280008F02B091900288839983AA83BB8313C095
:10129000809180020FC08091D0030CC08091D10357
:1012A00009C08091D2039091D3039983888303C0AE
:1012B00080918C028883DF91CF910895FB01863065
:1012C000910509F440C087309105A0F48230910562
:1012D00071F18330910538F4009719F1813091054F
:1012E00009F04BC021C08430910539F1853091055A
:1012F00038F520C08A30910591F18B30910538F492
:101300008830910531F18930910530F51FC08C305E
:10131000910559F18C30910528F18D30910569F5D1
:1013200027C089ED93E026C08DEA94E023C08BE1CD
:1013300095E020C087ED96E01DC08BE197E01AC0D4
:1013400087E797E017C087E797E014C083EC97E042
:1013500011C08FE198E00EC082E498E00BC085ECEC
:1013600098E008C089EC98E005C080ED98E002C0E4
:1013700087E099E091838083089511821082089517
:10138000DB01FC013997E132F10508F00EC1E057AD
:10139000FF4FEE0FFF1F0590F491E02D09948D9102
:1013A0009C911197909378028093770208958C9185
:1013B0008093800208958C918093CD0308958D9140
:1013C0009C91119790937E0280937D0208958C9159
:1013D0008093C50311968C9111978093C603129642
:1013E0008C9112978093C70313968C9113978093D7
:1013F000C80314968C9114978093C90315968C9109
:1014000015978093CA0316968C9116978093CB03F9
:1014100017968C9117978093CC0308958C918093A5
:101420006F0211968C9111978093700212968C9195
:1014300012978093710213968C9113978093720286
:1014400014968C9114978093730215968C9115972E
:101450008093740216968C91169780937502179656
:101460008C9117978093760208958C918093BC039A
:1014700011968C9111978093BD0312968C911297BF
:101480008093BE0313968C9113978093BF03149699
:101490008C9114978093C00315968C911597809327
:1014A000C10316968C9116978093C20317968C9160
:1014B00017978093C30308958C918093CE0308956A
:1014C0008D919D910D90BC91A02D80937902909368
:1014D0007A02A0937B02B0937C0208958C91809352
:1014E000C40308958C9180937F0208958C9180931A
:1014F000CF0308958C918093810208958C918093FD
:10150000820208958C918093830208958D919D911C
:101510000D90BC91A02D8093840290938502A0939E
:101520008602B093870208958D919D910D90BC9194
:10153000A02D8093D4039093D503A093D603B093AA
:10154000D70308958D919D910D90BC91A02D80930E
:10155000880290938902A0938A02B0938B02089527
:101560008C918093D80308958C918093D003089533
:101570008C918093D10308958D919C9111979093B4
:10158000D3038093D20308958C9180938C020895A5
:101590008D919D910D90BC91A02D80938D02909383
:1015A0008E02A0938F02B093900208950E947F0D47
:1015B00008951092BC031092BD031092BE031092C6
:1015C000BF031092C0031092C1031092C203109285
:1015D000C3038AEA80936F02809370028093710242
:1015E00080937202809373028093740280937502D9
:1015F000809376028FEF9FEF90937802809377022B
:1016000080E090E0A1E0B0E08093790290937A02CC
:10161000A0937B02B0937C021092C4031092C50386
:101620001092C6031092C7031092C8031092C90308
:101630001092CA031092CB031092CC031092CD03E8
:1016400082E090E090937E0280937D021092CE0320
:1016500083E080937F021092CF0381E08093800229
:101660001092D0031092D1031092D3031092D203A0
:10167000089502C00E94A03F0E9418218823D1F73C
:101680000895CF92DF92EF92FF920F931F93DF9313
:10169000CF93CDB7DEB727970FB6F894DEBF0FBE56
:1016A000CDBF8C0119820097C9F1FC0110821B8209
:1016B0001A8281E090E09F838E837E010894E11C72
:1016C000F11C82E0C82ED12CCC0EDD1E1FC0FD8285
:1016D000EC820E94390BC60160E070E00E94D821C4
:1016E000FFEF8F3F9F0731F481E090E0F801948392
:1016F000838314C00E94390BF80180819981890F7E
:1017000080838A819B8101969B838A838A819B81C6
:1017100086329105E0F2F8011482138227960FB603
:10172000F894DEBF0FBECDBFCF91DF911F910F9117
:10173000FF90EF90DF90CF900895EF92FF920F937C
:101740001F93DF93CF9300D000D000D0CDB7DEB78A
:101750008C010097B9F186E290E09A83898381E059
:1017600090E09E838D837E010894E11CF11C1EC0D5
:101770001C830B830E94390BC70160E070E00E945C
:10178000D8212FEF8F3F920731F481E090E0F801EC
:101790009483838317C00E94390BF80120818981CB
:1017A0009A812F3F59F401969A83898389819A817E
:1017B00080339105E8F286E290E0F801928381831C
:1017C0001482138226960FB6F894DEBF0FBECDBFEB
:1017D000CF91DF911F910F91FF90EF900895DF93CC
:1017E000CF93CDB7DEB761970FB6F894DEBF0FBECB
:1017F000CDBF8FEF8983CE0102960E949D0B8D8114
:101800009E818130910509F44BC0CE0107960E945C
:10181000410B8A859B858130910509F441C09F81E8
:101820008A81890FD1F191959F838B819C819D87BE
:101830008C87CE0101969F878E8781E090E0998BFF
:10184000888B0E94390BCE010C966CE57CE00E94DF
:1018500058212FEF8F3F920719F10E94390B8C8589
:101860009D8501969D878C878033910520F086E2C7
:1018700090E09D878C87CE0107969F878E870E9478
:10188000390BCE010C966CE57CE00E9458212FEFBD
:101890008F3F920729F00E94390B20E030E002C010
:1018A00021E030E0C90161960FB6F894DEBF0FBEAB
:1018B000CDBFCF91DF9108950895BF92CF92DF926F
:1018C000EF92FF920F931F93DF93CF93CDB7DEB7C5
:1018D0006C970FB6F894DEBF0FBECDBF1092500DBF
:1018E000DD248E01035F1F4F7E010894E11CF11C73
:1018F00082E0B82ECC24C3948D2D0E94BC0F809121
:10190000500D882329F41093540D0093530D09C0F2
:10191000813039F480914F0D90E063E57DE00E94C5
:101920005E098091500D823069F480914F0D8B8358
:101930001C82C7010E94C1292B853C853093540D20
:101940002093530D0E94390B81E59DE060E070E02B
:101950000E94D8212FEF8F3F920701F10E94390B8F
:101960008091500D882331F480914F0D90E0B801A3
:101970000E94C009D3948D2D8C3019F4C092500D63
:10198000BBCF2D2D2D3019F4B092500DB5CF8D2D2C
:101990008F3008F4B1CF20E030E002C021E030E029
:1019A000C9016C960FB6F894DEBF0FBECDBFCF91C4
:1019B000DF911F910F91FF90EF90DF90CF90BF903C
:1019C0000895CF92DF92EF92FF920F931F93DF93D0
:1019D000CF93CDB7DEB765970FB6F894DEBF0FBED5
:1019E000CDBF0E94D90ACC2426E0E22EF12CEC0EC9
:1019F000FD1E8C2D0E94BC0F80914F0D90E0B70111
:101A00000E94950803E51DE0F092540DE092530DFD
:101A10000E94390BC80102976CE57CE00E945821B6
:101A20002FEF8F3F920709F458C00E94390BC394DF
:101A30008C2D8C30F1F6C7016FEF70E04AE050E07A
:101A40000E941FA9F092540DE092530D96E2C92E08
:101A5000D12CD092520DC092510D8AE090E0F80145
:101A6000938382830E94390BC80102976CE57CE066
:101A70000E945821FFEF8F3F9F0779F10E94390B99
:101A80007E010894E11CF11CC7010E94410B8C816E
:101A90009D818130910509F1898181958983D09259
:101AA000520DC092510DF092540DE092530D81E011
:101AB00090E0F801938382830E94390BC80102975A
:101AC0006CE57CE00E945821FFEF8F3F9F0729F0D3
:101AD0000E94390B20E030E002C021E030E0C90173
:101AE00065960FB6F894DEBF0FBECDBFCF91DF91E4
:101AF0001F910F91FF90EF90DF90CF900895DF93AB
:101B0000CF93CDB7DEB72A970FB6F894DEBF0FBEDE
:101B1000CDBFCE0106960E94410B89859A85813002
:101B2000910509F1CE0101960E949D0B8C819D814A
:101B300081309105C1F089819E81890F51F40E9405
:101B40005D0C8130910579F00E94730E20E030E049
:101B50000CC00E94E10C8130910529F00E94730EA7
:101B600022E030E002C021E030E0C9012A960FB641
:101B7000F894DEBF0FBECDBFCF91DF910895809165
:101B80002B09882349F481E49DE00E9443100E94C0
:101B9000281002C00E94A03F80912B098130D1F310
:101BA00008950F931F93DF93CF9300D000D000D000
:101BB000CDB7DEB78901C0969A8389835E834D8352
:101BC0007C836B8302C00E94A03F80912B098130EF
:101BD000D1F30115110511F40CE51CE00E94390B3D
:101BE000CE010196B8010E94D8212FEF8F3F9207B6
:101BF00039F08CE00C35180731F40E94390B03C022
:101C000021E030E002C020E030E0C90126960FB6A6
:101C1000F894DEBF0FBECDBFCF91DF911F910F9122
:101C200008950F931F93DF93CF9300D000D000D07F
:101C3000CDB7DEB78901C0969A8389835E834D83D1
:101C40007C836B8302C00E94A03F80912B0981306E
:101C5000D1F30115110511F40CE51CE00E94390BBC
:101C6000CE010196B8010E9458212FEF8F3F9207B5
:101C700039F08CE00C35180731F40E94390B03C0A1
:101C800021E030E002C020E030E0C90126960FB626
:101C9000F894DEBF0FBECDBFCF91DF911F910F91A2
:101CA000089590934E0D80934D0D662329F480EE98
:101CB00093E9A4E0B0E004C082E390E0A0E0B0E0EB
:101CC0008093470D9093480DA093490DB0934A0D12
:101CD00081E090E090934C0D80934B0D81E49DE06A
:101CE0000E94671008951092500D88E290E160E024
:101CF0000E94510E0895EF92FF920F931F93DF936E
:101D0000CF93CDB7DEB760970FB6F894DEBF0FBEA6
:101D1000CDBF7E010894E11CF11CF092540DE092BD
:101D2000530D0DE219E080914F0D90E0B8010E9433
:101D300095080E94390B81E59DE060E070E00E940B
:101D4000D8210E94390B4091550D5091560DC80174
:101D5000B7010E9409A9009761F01093540D0093F8
:101D6000530D81E59DE068E270E10E94582181E019
:101D700001C080E060960FB6F894DEBF0FBECDBF05
:101D8000CF91DF911F910F91FF90EF900895AF9247
:101D9000BF92CF92DF92EF92FF920F931F93DF9348
:101DA000CF9300D00F92CDB7DEB7CE0101969093BE
:101DB000540D8093530DC090550DD090560DA090AA
:101DC000510DB090520D81E090E09093560D8093AC
:101DD000550D80914F0D90E0BE016E5F7F4F0E94C8
:101DE0005E0900E010E031C00E94390B81E5E82E69
:101DF0008DE0F82EC70160E070E00E94D8210E94BB
:101E0000390B8A819B81FC01E00FF11F3081298110
:101E1000321781F0F70193838283D582C482B09216
:101E2000520DA092510DC70168E270E10E94582145
:101E300081E00FC08091510D9091520D01969093C9
:101E4000520D8093510D0F5F1F4F0C151D0560F251
:101E500080E00F900F900F90CF91DF911F910F9125
:101E6000FF90EF90DF90CF90BF90AF9008956F926A
:101E70007F928F929F92AF92BF92CF92DF92EF921A
:101E8000FF920F931F93DF93CF93CDB7DEB72D97BC
:101E90000FB6F894DEBF0FBECDBFCE010196909372
:101EA000540D8093530D8090550D9090560D609079
:101EB000510D7090520D81E090E09093560D8093FB
:101EC000550D80914F0D8C831D82CE0102960E948C
:101ED000C1293C852D85A32EB22EA114B104B1F1E8
:101EE000C901C92ED82EEE24FF242DC00E94390B23
:101EF00001E51DE0C80160E070E00E94D8210E9469
:101F0000390BF60191916F018981981781F0F801E1
:101F1000B382A282958284827092520D6092510D9A
:101F2000C80168E270E10E94582181E010C08091F0
:101F3000510D9091520D01969093520D8093510D39
:101F40000894E11CF11CE814F90480F280E02D965D
:101F50000FB6F894DEBF0FBECDBFCF91DF911F91BA
:101F60000F91FF90EF90DF90CF90BF90AF909F9038
:101F70008F907F906F9008950F931F93DF93CF936F
:101F800000D000D0CDB7DEB7082F10E0B801685CF4
:101F90007C4F8FE49DE041E050E00E9400A9B80131
:101FA000660F771F660F771F695B7C4FCE01019626
:101FB00044E050E00E9400A989819A819093520DDB
:101FC0008093510D8B819C819093560D8093550D7C
:101FD0000F900F900F900F90CF91DF911F910F9165
:101FE000089580912C090E94BC0F8091500D882388
:101FF00021F40E947B0E882339F58091500D8130A9
:1020000021F40E94C70E8823F9F48091500D82308C
:1020100021F40E94370F8823B9F480912C098F5F37
:1020200080932C098C3011F481E003C08D3029F4A9
:1020300082E08093500D80E008958F3039F4109243
:102040002C0983E08093500D81E0089580E008958D
:1020500081E080932B090E94F10F8823E1F38091A6
:10206000500D833079F40E94EF0B8130910531F4EB
:1020700088E290E161E00E94510E08950E94730E83
:1020800010922B090895CF93DF93EC01892BD1F0A7
:1020900080914109909142098C179D0719F460E0E5
:1020A00070E008C0BE0181E499E00E94CB3FBC0112
:1020B000892B41F0AE0181E499E00E94AF3F80E0BE
:1020C00090E002C08FEF9FEFDF91CF910895CF9303
:1020D000DF93EC01892B71F0E0914109F091420905
:1020E00006C0EC17FD0751F10190F081E02D30970B
:1020F000C1F703C08FEF9FEF23C08FB7F8949927E4
:1021000020913D0930913E0940913F09509140098D
:102110008FBF198218828E819F81A885B985820F11
:10212000931FA41FB51F8A839B83AC83BD83BE010D
:1021300081E499E00E94A33F0E943E2280E090E06B
:10214000DF91CF910895CF92DF92EF92FF920F939C
:102150001F93CF93DF93C0914109D09142096E0143
:1021600038C08FB7F894992720913D0930913E09E6
:1021700040913F09509140098FBFEA80FB800C815C
:102180001D812E153F0540075107F8F08A859B8574
:10219000019739F4AE01B60181E499E00E94AF3FA6
:1021A0000CC08E819F81A885B985E80EF91E0A1F93
:1021B0001B1FEA82FB820C831D83EC85FD8509953C
:1021C000809141099091420903C0888199816E01F3
:1021D000EC01209731F6DF91CF911F910F91FF9085
:1021E000EF90DF90CF90089560914B0970914C096A
:1021F00080914D0990914E090895CF93DF93982FC8
:10220000A0919102B091920203C00D90BC91A02DBB
:10221000109731F0ED01EB81FC8180819817A9F7CF
:10222000CD01DF91CF910895CF93DF93282F809137
:102230009102909192022F3F99F0DC0103C00D9022
:10224000BC91A02D1097C1F0ED01EB81FC81808144
:102250002817A9F761708A818E7F862B8A830CC02C
:10226000FC01617007C082818E7F862B8283019082
:10227000F081E02D3097B9F7DF91CF9108958091EB
:10228000910290919202089561E00E9414110895C4
:1022900060E00E94141108951092440910924309BD
:1022A0001092450910924609109247091092480968
:1022B0000895A0914309B0914409109731F0ED9130
:1022C000FC911197CD01029609950895009729F484
:1022D00081E992E00E948F3D08950E94CE3D0895CD
:1022E000CF93DF93EC011B821A8290934409809371
:1022F00043090E9405200397B9F484E090E00E940E
:10230000F81F80913D0990913E09A0913F09B0913D
:10231000400980934B0990934C09A0934D09B093C9
:102320004E090E94251504C083EA90E09B838A83AE
:1023300010924509109246091092470910924809D7
:1023400080E090E00E94B920809145099091460973
:10235000A0914709B0914809836080934509909303
:102360004609A0934709B0934809DF91CF9108959A
:1023700080959095AA27BB27209145093091460961
:10238000409147095091480982239323A423B52300
:102390008093450990934609A0934709B093480953
:1023A0000097A105B10549F480E00E94D71E85E0A1
:1023B00090E00E94F81F0E94591108950E94052084
:1023C000059721F00E940520049721F480E090E019
:1023D0000E94B8110895CF93DF93EC011B821A82FB
:1023E0000E9405208230910511F0059729F483E0C1
:1023F00090E00E94F81F04C083EA90E09B838A83E8
:102400000E945214E881F981CE0102960995DF916C
:10241000CF9108950F931F938C0162E070E08CE8D8
:102420000E94152110934A090093490981E090E028
:102430000E94F81FF80180818093510988E792E19A
:1024400090935309809352098FE499E00E946B3670
:102450001F910F9108950E94563681E992E00E94E3
:10246000793D80E00E9454560895CF93DF93EC01AC
:10247000EB81FC819081892F8150803FD0F4A09125
:102480009102B091920203C00D90BC91A02D1097C3
:1024900041F0FD0123813481F90180819817A1F772
:1024A00008C08A818E7F8A83BE0181E992E00E9402
:1024B0007F3DDF91CF910895CF93DF93FC01908111
:1024C000A0919102B091920203C00D90BC91A02DF9
:1024D000109759F0ED01EB81FC8180819817A9F7E5
:1024E000BD0181E992E00E94AB3DDF91CF9108955B
:1024F0001F93CF93DF93EC010E940A20892B11F0E8
:102500000E94181810E0E0914909F0914A09808171
:10251000813009F411E0812F0E9436201092440985
:1025200010924309109245091092460910924709EA
:1025300010924809812F0E945020812F0E945456EA
:10254000812F0E94D71EE0914909F0914A098081AC
:10255000882319F482E090E002C083E090E00E94BA
:10256000F81FE0914909F0914A09888199279483DD
:10257000838321813281CF010396F901099510925D
:102580004A0910924909DF91CF911F9108958091D6
:102590005A098F5F80935A09815099270895809135
:1025A00059098F5F80935909815099270895FF92A7
:1025B0000F931F93182F6091600920916509309146
:1025C000660990E0FF248BC082E2989FA00111244D
:1025D000F901E40FF51F8081882309F07DC01230D6
:1025E00020F0123009F07EC016C0909164098091ED
:1025F0006209981708F076C09F5F90936409138270
:10260000148215821682E0916509F0916609E40F43
:10261000F51F178241C09091630980916109981755
:1026200008F060C0B0915D0960915E0970915F092A
:10263000A0E00EE29F5F2DC0A09F90011124FB013E
:10264000E20FF31F808180FD23C090936309808196
:1026500081608083E0915E09F0915F09E20FF31FD2
:10266000808183708F298083E0916509F0916609EC
:10267000E40FF51F80915E0990915F09820F931F0F
:102680008396928B818B80915D098A1729F42AC0E9
:10269000AF5FAB1789F626C0E0916509F091660936
:1026A000E40FF51F1282E0916509F0916609E40FCD
:1026B000F51F81E08083E0916509F0916609E40FE0
:1026C000F51F1183E0916509F0916609E40FF51F8C
:1026D00011861086CF0108C09F5F84E0F80E961720
:1026E00009F072CF80E090E01F910F91FF90089564
:1026F000CF93DF93E0916509F09166098E179F07EC
:1027000008F461C08E1B9F0B62E270E00E9459A822
:1027100080916009681708F056C082E2689FE00166
:102720001124EC0FFD1F1282E0916509F0916609FA
:10273000EC0FFD1F8181823018F08230E9F508C06E
:10274000809164098823C1F181508093640934C069
:1027500080916309882319F0815080936309209147
:102760005E0930915F0981899289821B930B6EE229
:1027700070E00E9459A8809161096817A8F48EE260
:10278000689FB0011124F901E60FF71F808180FFD7
:102790000BC08E7F8083E0915E09F0915F09E60FA8
:1027A000F71F80818D7F8083E0916509F091660934
:1027B000EC0FFD1F128A118AE0916509F0916609FC
:1027C000EC0FFD1F1082DF91CF910895FC01148A58
:1027D00080915C09815080935C0922893389CF0103
:1027E0004496F90109950895FC01DA01892BD9F085
:1027F000748F638F452B51F08D919D910D90BC91FD
:10280000A02D858F968FA78FB0A304C0158E168E2E
:10281000178E10A2218D328D2115310521F0CF01A7
:102820004B96F9010995089590E08091580981111E
:1028300091E081E09827892F992708951F9371E0EF
:1028400020E030E06091900917E0409155095091E7
:1028500056091DC0819FF0011124E40FF51F8381EB
:102860009481A581B6818A309105A105B10548F012
:102870000A97A109B10983839483A583B68370E085
:1028800004C013821482158216822F5F3F4F822F5D
:10289000261700F3772321F087E699E00E94D620DF
:1028A0001F9108950F931F93CF93DF93CDB7DEB79A
:1028B00027970FB6F894DEBF0FBECDBFBE016F5F86
:1028C0007F4F89E290E00E949508898199270796B9
:1028D000AA2797FDA095BA2F9C01AD01E4E0220F35
:1028E000331F441F551FEA95D1F7281B390B4A0B9C
:1028F0005B0B209388093093890940938A09509390
:102900008B09BE016E5F7F4F86E190E00E949508C3
:102910008A819B810297D1F58E010C5F1F4FB80110
:1029200084E190E00E9495082C813D814E815F8179
:1029300089819927AA27BB2782179307A407B50780
:1029400068F0220F331F441F551F2C833D834E8395
:102950005F83B80184E190E00E94C00980918809FA
:1029600090918909A0918A09B0918B092C813D81B0
:102970004E815F81820F931FA41FB51F809388092A
:1029800090938909A0938A09B0938B0968E879E04C
:1029900088E190E00E94C00980918809909189099E
:1029A000A0918A09B0918B099C01AD01220F331FC0
:1029B000441F551F280F391F4A1F5B1F20938C0986
:1029C00030938D0940938E0950938F090EE114E1E5
:1029D0002AE030E040E050E060E070E087E699E017
:1029E0000E94E12002E315E12AE030E040E050E0FF
:1029F00060E070E087E799E00E94E120809177092C
:102A000090917809019741F487E799E00E94D620D8
:102A100087E799E00E9407218091670990916809F2
:102A2000019741F487E699E00E94D62087E699E075
:102A30000E94072127960FB6F894DEBF0FBECDBFC8
:102A4000DF91CF911F910F91089587E799E00E9440
:102A5000D62087E699E00E94D62083E090E00E948D
:102A6000B92008951F93CF93DF9311E0C0E0D0E029
:102A700036C082E2E89F90011124E0916509F0914F
:102A80006609E20FF31F8081882341F18181813043
:102A900029F58281823011F583819481A581B681E7
:102AA0008A309105A105B10548F00A97A109B1093D
:102AB00083839483A583B68310E010C083E0828370
:102AC000E0916509F0916609E20FF31F1382148209
:102AD0001582168283E090E00E94B9202196EC2FA7
:102AE00080916009C81728F2113021F487E799E036
:102AF0000E94D620DF91CF911F910895CF93DF934D
:102B0000EC018A818130F1F081E08A838F818150EC
:102B10008F83809159098F5F8093590981508B8BE6
:102B2000809158098F5F8093580964E070E081E8D4
:102B30000E941521CE010A960E94A53087E799E0F0
:102B40000E940721DF91CF9108950F931F93CF9398
:102B5000DF930E940520049721F00E94052005972D
:102B600081F500E010E027C082E2989FE001112487
:102B7000E0916509F0916609EC0FFD1F80818823C3
:102B8000C1F081818130A9F482818250823088F441
:102B900040E050E063EA70E0808591850E94F41384
:102BA00080916509909166098C0F9D1F4A960E943D
:102BB00078130F5F1F4F902F809160090817A0F2C4
:102BC0003AC00E9405200397B1F500E010E02EC046
:102BD00082E2989FE0011124E0916509F091660975
:102BE000EC0FFD1F80818823F9F081818130E1F4B1
:102BF00082818330C9F48781882321F0CF010E942C
:102C00007E1512C0AF01425E5F4F67EA70E08085BB
:102C100091850E94F41380916509909166098C0F4B
:102C20009D1F4A960E9478130F5F1F4F902F80912F
:102C30006009081768F2DF91CF911F910F910895F5
:102C4000AF92BF92CF92DF92EF92FF920F931F93BA
:102C5000CF93DF93AC01EC01A984BA847091600931
:102C6000C0906509D090660960E069C082E2689F03
:102C700070011124F601EE0DFF1D8081882309F4F7
:102C80005DC08181813009F059C08281823009F0B4
:102C900055C0A189B28900851185EA012F81388547
:102CA000E8018C819D812817390709F047C0E501AB
:102CB0009F81ED018F81981709F040C0E5012C81BB
:102CC0003D81ED018C819D8128173907B9F5E5011A
:102CD0002A813B81ED018A819B812817390771F593
:102CE000E5019981ED018E81981741F5E5019E81FD
:102CF000ED018981981711F5D5018C91837082308F
:102D000029F47E96AF0160E070E00BC087818823D4
:102D100021F0CF010E947E1515C07E96AF0161EBB8
:102D200070E0C8010E94F4138091650990916609D2
:102D30008E0D9F1D4A960E94781304C06F5F67171F
:102D400009F094CFDF91CF911F910F91FF90EF90F9
:102D5000DF90CF90BF90AF9008950F931F93CF93C4
:102D6000DF93DC018B0182E090E0EB019D878C8793
:102D7000FD01848195819F878E878489885F888BF8
:102D80008589968908979A8B898B809159098B8BB5
:102D90008F5F80935909808D8C8B1D8A81E08E8B8B
:102DA0001F8A84E99EE1998F888FE989FA892081B9
:102DB000822F8C7F8083ED018C819D81207F875FB6
:102DC0009F4F08F02860208380818F7D8083ED01F4
:102DD0008F89908182FD03C09F7B908308C090649F
:102DE000908381E0E8018A83809187098F838081C5
:102DF0008F778083ED018E85818389899A8993837A
:102E000082838F859889958384838B89868380913B
:102E10005A0987838F5F80935A09809158098F5F81
:102E20008093580964E070E083E70E941521C8018F
:102E30000A960E94A53080E090E0DF91CF911F912B
:102E40000F910895209158092F5F209358090E94EF
:102E5000A5300895CF93DF93CDB7DEB72C970FB68B
:102E6000F894DEBF0FBECDBF80EB90E09C838B83D8
:102E70001E821D82CE0101960E94C1298B859C85F0
:102E80002C960FB6F894DEBF0FBECDBFDF91CF9169
:102E900008956F927F929F92AF92BF92CF92DF92EE
:102EA000EF92FF920F931F93CF93DF930E94052021
:102EB0005C01892B09F4AEC082E0A816B10409F4C4
:102EC000A9C08DE992E00E948F3DEC010E94CE3DA9
:102ED0009DC0E0916509F0916609CE018E1B9F0BA4
:102EE00062E270E00E9459A880916009681708F0BA
:102EF00083C082E2689F60011124EC0DFD1DE08417
:102F0000F184E181E130D1F0E13020F0E23009F0EC
:102F100073C06AC0C50104970297A8F0E3E0AE163B
:102F2000B10409F069C0BE018DE992E00E94AB3D99
:102F3000AE014C5F5F4F6B81772752C09B80C5010C
:102F40000497029758F4BE018DE992E00E94AB3DD0
:102F5000AE014C5F5F4F63EA70E042C0F3E0AF1632
:102F6000B10409F049C0BE018DE992E00E94AB3D79
:102F700000916509109166090C0D1D1DF8018281F3
:102F80008130D1F5992039F58091870999272781DA
:102F9000821B910921E030E002C0220F331F8A9585
:102FA000E2F7442737FD4095542F609188097091CE
:102FB000890980918A0990918B090E943AA8F801A9
:102FC000638374838583968382E0828387E799E0B5
:102FD0000E94072111C0AE014C5F5F4F692D77271A
:102FE000C7010E94F41305C0BE018DE992E00E9462
:102FF000AB3DCE010E9478136114710419F480E096
:1030000090E003C0C3010E94CE3DE3013C01209744
:1030100009F05FCFDF91CF911F910F91FF90EF905B
:10302000DF90CF90BF90AF909F907F906F9008956A
:10303000CF93DF930BC085E992E00E94933D40E07F
:1030400050E063EA70E0CE010E94F41385E992E05B
:103050000E948F3DEC01892B71F733C0BE018DE9D1
:1030600092E00E94AB3D2091650930916609CE0146
:10307000821B930B62E270E00E9459A88091600964
:103080006817F8F4E2E26E9FF0011124E20FF31FDB
:10309000808591856181613059F0613018F062302E
:1030A00081F40CC0AE014C5F5F4F6B81772704C089
:1030B00040E050E067EA70E00E94F413CE010E9405
:1030C00078138DE992E00E948F3DEC01892B31F657
:1030D000C0E0D0E028C082E2989FF00111248091E6
:1030E000650990916609E80FF91F80818823D1F066
:1030F000808591852181213059F0213018F02230CE
:1031000089F40CC060910300772744E050E004C0CC
:1031100040E050E067EA70E00E94F41380E090E045
:103120000E94781321969C2F80916009C81798F20D
:10313000DF91CF9108950F931F93CF93DF938C016D
:10314000C0E0D0E014C0EB81FC818081882379F05D
:103150008A8180FD0CC021813281F801828D938D9E
:103160002817390721F4ED81FE81C8010995CE01A8
:103170000E946611EC01892B31F7DF91CF911F91ED
:103180000F910895EF92FF920F931F93CF93DF93C8
:10319000CDB7DEB7AB970FB6F894DEBF0FBECDBF8D
:1031A0008C01FC0186858823F9F08F3FE9F00E94AD
:1031B000FD107C01009761F0FC01A381B481FD0149
:1031C00021813281F801878590892817390739F0E4
:1031D000F801878982FF0AC087EA90E069C0F70199
:1031E000828180FD63C002C0EE24FF24F801828149
:1031F00093819A83898386818D8387818E8380855D
:103200008F83818588878285898783858A8784855E
:103210008B8785858C8786858D87BE016E5E7F4F07
:1032200083E190E00E94950882E090E09F878E877E
:103230008091900D9091910D998B888BF8018389E5
:103240008A8F878590899C8F8B8F818992899E8FA9
:103250008D8F84898F8F8589968999A388A38FEA1A
:1032600090E09DA38CA38FEF8EA31FA218A619A692
:103270001AA68BA78D85882329F4CE0101960E947A
:10328000C8520AC0F80186859E012F5F3F4F8F3FCD
:1032900031F4C9010E949B1880E090E009C0F70159
:1032A00045815681C901FA010995F6CF81EB90E07D
:1032B000AB960FB6F894DEBF0FBECDBFDF91CF91B6
:1032C0001F910F91FF90EF900895009719F480E0FF
:1032D00090E008950E94632D0895DF92EF92FF928F
:1032E0000F931F93CF93DF93CDB7DEB766970FB6DB
:1032F000F894DEBF0FBECDBF83E090E00E940F20A8
:10330000D82E0E94052004970297A0F40BC085E9EF
:1033100092E00E94933D40E050E063EA70E0C80113
:103320000E94F41385E992E00E948F3D8C01892B65
:1033300071F7D7C086E990E09E878D87188A1F862F
:10334000CE010B960E94C129ED89FE898081918171
:103350009A838983A5C0DD2019F403EA10E096C0A2
:10336000F70187898B7F09F0ADC0F7018489853526
:1033700018F000EA10E08AC0F7018389882329F059
:103380000E94FD10892B09F4A9C0F7012281338125
:103390002230310551F484819581885F9F4F50F030
:1033A000F701878982FF06C099C0C9010297029779
:1033B00008F07FC0F7018685815F8E3008F079C004
:1033C0008DC0BE016D5F7F4F83E190E00E94950844
:1033D0009B81F70186819817F9F49C818781981762
:1033E000D9F49D8180859817B9F49E8181859817BD
:1033F00099F49F818285981779F498858385981729
:1034000059F499858485981739F49A858585981794
:1034100019F4FE01319608C0C70106960E9465198D
:10342000FC01892B09F457C080819181F7019583B4
:10343000848382E090E093838283F7012481358145
:1034400089819A812817390759F485E992E00E9409
:10345000933DC7010E94C21840E050E0BC011DC06E
:10346000F701878982FD02C080E02FC081E02DC076
:1034700085E992E00E94933DF801F186E086B8016B
:10348000C7010E94AD168C01892B51F085E992E0AD
:103490000E94933D40E050E0B801C7010E94F41340
:1034A00085E992E00E948F3D7C01892B09F053CF82
:1034B00018C02230310509F22330310509F481CFDB
:1034C000232B61F40AEA10E0E1CF0E94D7128C01AD
:1034D000892B71F606C009EA10E0D8CF06EA10E0A1
:1034E000D5CF66960FB6F894DEBF0FBECDBFDF9185
:1034F000CF911F910F91FF90EF90DF90089500976B
:1035000019F480E090E008950E94032E08953F9200
:103510004F925F926F927F928F929F92AF92BF92E3
:10352000CF92DF92EF92FF920F931F93CF93DF938F
:103530000E94F4105B016C0120E030E06091900982
:1035400077E040915509509156091DC0879FF001C1
:103550001124E40FF51F83819481A581B681A816FB
:10356000B906CA06DB0648F48A199B09AC09BD09ED
:1035700083839483A583B68304C013821482158247
:1035800016822F5F3F4F822F261700F3B1E05B2E8C
:1035900066247724A2E23A2EF3E04F2E70C0039DFA
:1035A00040011124C0916509D0916609C80DD91D4B
:1035B0008881882309F460C08981813009F05CC06A
:1035C0006F81772788279927E0908809F0908909EB
:1035D00000918A0910918B09A80197010E943AA8CD
:1035E0009B01AC018B819C81AD81BE81280F391F6D
:1035F0004A1F5B1FA216B306C406D50670F5CA01A2
:10360000B9016A197B098C099D096B837C838D83C1
:103610009E83A80197010E9480A82F8300916509CD
:1036200010916609080D191DF80163817481858167
:103630009681209188093091890940918A09509199
:103640008B090E9480A8F801638374838583968325
:103650008281823089F455240FC01B821C821D8216
:103660001E821F82E0916509F0916609E80DF91D3F
:103670008281823009F442820894611C711C062DFB
:1036800080916009681608F48ACF552021F487E7F5
:1036900099E00E94072181E08093570983E090E040
:1036A0000E94B920DF91CF911F910F91FF90EF9071
:1036B000DF90CF90BF90AF909F908F907F906F9052
:1036C0005F904F903F9008958F929F92BF92CF92BC
:1036D000DF92EF92FF920F931F93CF93DF937C01C2
:1036E000B62EEC0109851A85F801808186FFE3C0BA
:1036F0008370813019F421E0D22E02C097E0D92ED8
:1037000070916009809065099090660960E082E29E
:10371000C82E4D2D5527D801A40FB51F1EC06C9D76
:10372000F0011124E80DF91D80818130A9F4818117
:10373000823091F4E7012F81388586859785281797
:10374000390751F40188F289E02DE40FF51F9C91AF
:103750008081981709F4B9C06F5F671701F7ADC092
:10376000F701878190850E949726FC01892B49F0FB
:103770008485813031F4E989FA89B3978081826048
:1037800080831986188629893A8982E090E09D878E
:103790008C87F701878190859F878E878091590953
:1037A0008F5F8093590981508B8B1C8A1D8A81E021
:1037B0008E8B1F8A84E99EE1998F888FF901808121
:1037C000BB2019F48C7F826002C08360F901808382
:1037D000F80190819C70F9018081837F892B80831F
:1037E000F80190819071F9018F7E892B982F9F7934
:1037F0009083F801908190788F71892BF9018083F3
:10380000F8018081AD2DBB2784FF0AC0F7018185B7
:103810009285A80FB91F8C91F901818382E029C09C
:1038200088E0888BF8018681F9018183F801828123
:103830009381F90193838283F80184819581F90151
:1038400095838483F8018181F9018683F70181855D
:103850009285A80FB91F8C91F9018783F8018081A7
:1038600087FF1FC08085837031F4F9011086888935
:103870008F5F888B16C088898D5F888BF801808563
:103880008370F90180878FEF8287F80180858370CC
:10389000813019F4F901118604C0F8018185F9011C
:1038A000818764E070E083E90E941521CE010A96C9
:1038B0000E9422170AC080E009C082E00E94D7124D
:1038C000EC01892B09F04CCFF6CF81E09927DF91ED
:1038D000CF911F910F91FF90EF90DF90CF90BF900D
:1038E0009F908F900895AF92BF92CF92DF92EF9208
:1038F000FF920F931F93CF93DF93CDB7DEB7AB97B4
:103900000FB6F894DEBF0FBECDBF8C01FC01E18481
:10391000F284F7019181892F81508E3F18F0AA24FB
:10392000BB241CC0892F0E94FD105C01F70181811E
:1039300081508E3F20F4A114B10421F432C0A114AF
:10394000B10461F0F501A381B481FD0121813281CF
:10395000F701848195812817390719F5F70120812E
:10396000822F8C748834E9F026FF06C0F801878125
:103970009085885F9F4FA8F427FD13C0207C2034DA
:1039800011F021E00FC0F501828180FD06C060E0EA
:10399000C8010E94641B282F05C061E0C8010E9475
:1039A000641B20E0F80184819581019709F4ECC043
:1039B000222309F4E9C0F7015781F801C780D084B8
:1039C00030919009609155097091560920E047E0C7
:1039D00017C0249FF0011124E60FF71F8381948103
:1039E000A581B6810097A105B10549F0808191813B
:1039F0008C159D0521F48281851709F4C5C02F5FC0
:103A0000231739F740915B0927E0429F9001112469
:103A1000620F731FFB01D182C082E0915509F091C2
:103A20005609E20FF31F5283809155099091560970
:103A3000280F391F80918C0990918D09A0918E09D2
:103A4000B0918F09F90183839483A583B6834F5F77
:103A500040935B0980919009481710F010925B0920
:103A600087E699E00E940721F701818181508E3F0E
:103A700020F4A114B10409F487C032E0C32ED12C84
:103A8000DA82C982F801828193819C838B83F7015A
:103A900081818D87C80107960E947F1AFC01892BBE
:103AA000A9F083E090E09F878E8780818A8B818157
:103AB0008B8B82818C8B83818D8B84818E8B858196
:103AC0008F8B8681888F8781898F02C0DF86CE8623
:103AD000F80187819085998B888BF70186818A8F81
:103AE000848195819C8F8B8F828193819E8F8D8F16
:103AF000F80126812A502F8F265F1BA21AA2F701F8
:103B0000808187FD02C0285009C082EA90E09BA313
:103B10008AA3F7018085837011F429502F8FF80153
:103B2000268133278F8D281B310981859285820F4D
:103B3000931F99A388A38FEA90E09DA38CA383850C
:103B40008EA385859685A785B0898FA398A7A9A7F9
:103B5000BAA784858BA7A114B10441F0F501258192
:103B60003681CE010196F90109950EC0F7018181D8
:103B70009E012F5F3F4F8F3F21F4C9010E949B1888
:103B800003C0C9010E94C852AB960FB6F894DEBFBD
:103B90000FBECDBFDF91CF911F910F91FF90EF909E
:103BA000DF90CF90BF90AF900895FC01A185B285C2
:103BB0008C91282F2C70243021F185FD22C01EC04D
:103BC00083708230F1F02830E1F02C30D1F0848124
:103BD00095810297B1F48C9183709927009721F019
:103BE0000297029770F406C02C3059F0CF010E9462
:103BF000731C07C0CF010E94201603C086FFE7CFC9
:103C0000DFCF81E090E008951F93FC01892BA1F0A4
:103C1000808191810E949726DC01009779F0FC0158
:103C20008485813049F010915D0960915E09709141
:103C30005F0940E050E017C0A0E0B0E050E017C0DE
:103C4000242F33278EE290E0289FF001299FF00D6A
:103C5000389FF00D1124E60FF71F808183708230AA
:103C600009F45F5F4F5F411759F7151B512F4091C2
:103C7000630980916009992720916409240F312DEF
:103C8000311D281739075CF480916109481738F411
:103C9000AB2B19F080E0523018F081E001C080E0D9
:103CA00099271F910895FF920F931F93CF93DF934E
:103CB00051E0F52E2CC00E9405208C0189E992E08C
:103CC0000E94933DC8010497029718F441E0F42E36
:103CD0001BC00330110531F0E985FA8580818370BE
:103CE000813079F4E985FA85808186FF06C0CE01AE
:103CF00007960E94041E813021F4CE010E94D51D3A
:103D0000F82E81E0F81619F4CE010E94E61389E935
:103D100092E00E948F3DEC01892B69F6DF91CF91F3
:103D20001F910F91FF900895CF93DF93EC018B814A
:103D3000882321F464E070E084E703C064E070E06D
:103D400085E70E9415218091580981508093580978
:103D5000BE018DE992E00E947F3D83E090E00E94E9
:103D6000B920DF91CF9108950F931F938C0164E0E8
:103D700070E081E90E941521B80189E992E00E9472
:103D80007F3D83E090E00E94B92080915C098F5FC5
:103D900080935C091F910F910895BC0185E992E021
:103DA0000E947F3D83E090E00E94B92008950F9328
:103DB0001F93CF93DF93CDB7DEB722970FB6F8945A
:103DC000DEBF0FBECDBF20E030E060919009409192
:103DD0005509509156090FC09927FC01B3E0EE0F29
:103DE000FF1FBA95E1F7E81BF90BE40FF51F1382EB
:103DF000148215821682822F2F5F3F4F861760F341
:103E00001092590910925A091092570985E992E0C7
:103E10000E94793D89E992E00E94793D8DE992E026
:103E20000E94793D81EA92E00E94793D6DE579E05A
:103E300088E090E00E9495086EE579E084E090E0EB
:103E40000E945E0920E030E04EE250E012C0892F6F
:103E50009927849FF001859FF00D949FF00D112408
:103E600080915E0990915F09E80FF91F80818E7F34
:103E70008083922F2F5F3F4F80915D09981738F311
:103E800060E679E087E090E00E94950865E679E0D9
:103E900083E090E00E945E0920E030E012C0FF273E
:103EA000CF01A5E0880F991FAA95E1F7EE0FFF1F3C
:103EB000E80FF91F8091650990916609E80FF91FD5
:103EC0001082E22F909160092F5F3F4FE91738F37E
:103ED00080915D09809361099150909362091092DD
:103EE00063091092640983E08093870968E879E0A8
:103EF00088E190E00E949508209188093091890915
:103F000040918A0950918B09DA01C901880F991FE4
:103F1000AA1FBB1F820F931FA41FB51F80938C097C
:103F200090938D09A0938E09B0938F0960E979E091
:103F300087E190E00E94950865E579E088E090E0EF
:103F40000E945E0940919009552760E070E08091E1
:103F50005509909156090E941FA9BE016F5F7F4FBE
:103F600086E190E00E9495080EE114E12AE030E03D
:103F700040E050E060E070E087E699E00E94E120D8
:103F800002E315E12AE030E040E050E060E070E05C
:103F900087E799E00E94E1201092580910925C098D
:103FA00022960FB6F894DEBF0FBECDBFDF91CF9142
:103FB0001F910F9108950E9449170E94531E0E945D
:103FC0006D190E94A5150E940520049721F4809187
:103FD0005809882339F080915709813041F41092B3
:103FE0005709089583E090E00E94B811F4CF089536
:103FF000209191093091920930939409209393096B
:1040000090939209809391090895809191099091DC
:1040100092090895809193099091940908952091AF
:104020009109309192092230310581F02330310518
:1040300018F4232B41F014C02330310599F02530BA
:10404000310571F409C0019759F40CC08130910514
:1040500049F0049729F406C020E0019721F402C03A
:1040600020E001C021E0822F992708952091910935
:1040700030919209813059F4309394092093930937
:1040800083E090E090939209809391090895309392
:10409000940920939309109292091092910908951E
:1040A00010929509089580919509882369F02FB79A
:1040B000F89433278091E80C9091E90C80629093FA
:1040C000E90C8093E80C2FBF0895CF93DF93CDB711
:1040D000DEB722970FB6F894DEBF0FBECDBF40917A
:1040E00095094423E9F120E030E0E42FFF27622F17
:1040F00077272F5F3F4FCF01062E02C095958795FA
:104100000A94E2F780FFF3CF81E090E0062E02C030
:10411000880F991F0A94E2F78095482340939509E8
:10412000660F771F6D577C4F42E050E0CE0101963D
:104130000E9400A980919509882369F02FB7F8940F
:1041400033278091E80C9091E90C80629093E90C00
:104150008093E80C2FBFE981FA81309709F0099527
:1041600022960FB6F894DEBF0FBECDBFDF91CF9180
:104170000895BC0140919509442369F42FB7F89440
:1041800033278091E80C9091E90C80629093E90CC0
:104190008093E80C2FBF81E090E002C0880F991F48
:1041A0006A95E2F7482B409395090895FC018081B8
:1041B0009181019729F411921192CF010E9443102D
:1041C00008958F929F92AF92BF92CF92DF92EF921B
:1041D000FF920F931F937C014B0159016A010E94CA
:1041E000D620F7011182108295868486A086B1863A
:1041F000C286D386178706871F910F91FF90EF9095
:10420000DF90CF90BF90AF909F908F900895FC016A
:1042100080819181892B39F481E090E081939193A1
:10422000CF010E9467100895089508950895089594
:1042300020E030E08091960990919709019711F460
:1042400021E030E0C901089580915B0D90915C0DF3
:10425000892B61F41092970910929609E0915D0DF7
:10426000F0915E0D309719F109950895E091590D7F
:10427000F0915A0D4191F0935A0DE093590D6091D0
:10428000570D7091580D6F5F7F4F7093580D60936D
:10429000570D615070408CE00E94C22280915B0DEE
:1042A00090915C0D019790935C0D80935B0D089548
:1042B000CF93DF93FC018091960990919709892B08
:1042C00019F08EEF9FEF71C0309709F46CC08081B8
:1042D000918124813581820F931F8050904108F095
:1042E00062C081E090E09093970980939609A7E5DA
:1042F000BDE086E001900D928150E1F770935E0D74
:1043000060935D0D672B19F4C0E0D0E03DC0E091F3
:10431000590DF0915A0D4191F0935A0DE093590DBA
:104320006091570D7091580D6F5F7F4F7093580DCE
:104330006093570D615070408CE00E94C2228091C2
:104340005B0D90915C0D019790935C0D80935B0DDC
:1043500080E090E02AC0E091590DF0915A0D419112
:10436000F0935A0DE093590D6091570D7091580DCF
:104370006F5F7F4F7093580D6093570D6150704081
:1043800084E00E94C222219680915B0D90915C0D89
:10439000C817D90700F3F999FECF10929709109228
:1043A0009609CE0102C08FEF9FEFDF91CF91089564
:1043B000FC018091960990919709892B19F08EEF55
:1043C0009FEF0895309709F456C080819181248130
:1043D0003581820F931F8050904108F04CC081E0DE
:1043E00090E0909397098093960970935E0D609387
:1043F0005D0DA7E5BDE086E001900D928150E1F7EB
:10440000F999FECF40E050E017C0E091590DF091CE
:104410005A0DE40FF51F8091570D9091580D01969C
:104420009093580D8093570D019792BD81BDF89AD6
:1044300080B580834F5F5F4F80915B0D90915C0DE5
:104440004817590710F310925C0D10925B0D809184
:104450009B09806180939B092FB7F8943327809143
:10446000E80C9091E90C82609093E90C8093E80C41
:104470002FBFCA0108958FEF9FEF08958091A1008B
:10448000882371F488E893E19093A9008093A800B1
:104490008AE08093A1008091720082608093720014
:1044A00008951092A1000895CF92DF92EF92FF92AB
:1044B0000F931F936C0160913D0970913E098091AB
:1044C0003F0990914009E090A400F090A50028EEEB
:1044D00033E040E050E00E943AA8EE0CFF1CEE0CE6
:1044E000FF1C00271127E60EF71E081F191FF601F3
:1044F000E082F1820283138314821582168217826E
:104500001F910F91FF90EF90DF90CF9008951F9231
:104510000F920FB60F9211242F933F938F939F9377
:10452000AF93BF9380913D0990913E09A0913F09BF
:10453000B09140090A96A11DB11D80933D09909349
:104540003E09A0933F09B093400980919C0980687F
:1045500080939C092FB7F89433278091E80C9091B1
:10456000E90C82609093E90C8093E80C2FBFBF9117
:10457000AF919F918F913F912F910F900FBE0F9010
:104580001F901895282FF999FECF72BD61BD40BDCF
:104590008FB7F89499272FBBF99A8FBF08951F9270
:1045A0000F920FB60F9211242F933F938F939F93E7
:1045B000FB9880919B09806180939B092FB7F894A9
:1045C00033278091E80C9091E90C82609093E90C7C
:1045D0008093E80C2FBF9F918F913F912F910F9067
:1045E0000FBE0F901F9018958091990983FF0CC002
:1045F0002FB7F894332780919909877F8093990981
:104600002FBF0E94A53EAFC080919A0987FF0CC0C2
:104610002FB7F894332780919A098F7780939A095E
:104620002FBF0E9474419FC080919B0980FF0CC0E6
:104630002FB7F894332780919B098E7F80939B0935
:104640002FBF0E9458408FC080919B0981FF0CC0F2
:104650002FB7F894332780919B098D7F80939B0916
:104660002FBF0E9482407FC080919B0983FF0CC0B6
:104670002FB7F894332780919B09877F80939B09FC
:104680002FBF0E94DB556FC080919B0984FF0CC037
:104690002FB7F894332780919B098F7E80939B09D5
:1046A0002FBF0E9424215FC080919C0982FF0CC013
:1046B0002FB7F894332780919C098B7F80939C09B6
:1046C0002FBF0E94B2404FC080919C0983FF0CC055
:1046D0002FB7F894332780919C09877F80939C099A
:1046E0002FBF0E9471413FC080919C0984FF0CC084
:1046F0002FB7F894332780919C098F7E80939C0973
:104700002FBF0E949A402FC080919C0985FF0CC04A
:104710002FB7F894332780919C098F7D80939C0953
:104720002FBF0E9470241FC080919C0987FF0CC07E
:104730002FB7F894332780919C098F7780939C0939
:104740002FBF0E94A3100FC080919D0987FF0BC04F
:104750002FB7F894332780919D098F7780939D0917
:104760002FBF0E94313E809198098823A1F4809147
:104770009909882381F480919A09882361F48091B2
:104780009B09882341F480919C09882321F480911E
:104790009D09882369F02FB7F89433278091E80C9E
:1047A0009091E90C82609093E90C8093E80C2FBF04
:1047B00008958091AA02882319F08FEF9FEF089542
:1047C00081E08093AA021092600D10925F0D80E04C
:1047D00090E00895FC0180915F0D9091600D892B10
:1047E00031F58091AA02882311F5309701F180817B
:1047F0008093A9021092A80281818093A7028381ED
:1048000094819093A6028093A502858596859093C6
:10481000AC028093AB0286E090E09093600D8093B1
:104820005F0D85EA8093BC0080E090E008958FEFF3
:104830009FEF0895E091AB02F091AC02309711F038
:1048400080E0099508951092600D10925F0DE0913F
:10485000AB02F091AC02309711F081E00995089518
:10486000282F80915F0D9091600D892B11F480E9C4
:1048700018C08091A802E091A502F091A602E80F6D
:10488000F11D20838F5F8093A8029091A702891762
:1048900058F48091BC0080648093BC008091BC007F
:1048A00085688093BC00089588E090E09093600D47
:1048B00080935F0D84E98093BC0080919C098062A5
:1048C00080939C092FB7F89433278091E80C90913E
:1048D000E90C82609093E90C8093E80C2FBF089557
:1048E0008091BC0084FDFCCF0E94232408959C018C
:1048F000892B91F08091AA02813071F4C9010E9444
:1049000028621092600D10925F0D1092A802109212
:10491000AA0280E090E008958FEF9FEF08958091C4
:104920005F0D9091600D8430910551F485E090E029
:104930009093600D80935F0D8091A902880F0CC049
:10494000069781F487E090E09093600D80935F0D6F
:104950008091A902880F8F5F8093BB0085E88093C8
:10496000BC0008951092600D10925F0D80E9809355
:10497000BC000E941A24089520915F0D3091600DB3
:104980002115310511F480E954C0882309F454C07D
:104990002530310521F54091A8028091A7024817E2
:1049A00008F04AC0E42FFF279F012F5F3F4F992750
:1049B0002817390731F482E090E09093600D8093DE
:1049C0005F0D8091A5029091A602E80FF91F8081EA
:1049D0004F5F4093A8028093BB0085E82AC0223035
:1049E0003105E1F483E090E09093600D80935F0DDA
:1049F00084E98093BC0080919C09806280939C092B
:104A00002FB7F89433278091E80C9091E90C8260DD
:104A10009093E90C8093E80C2FBF0895273031055F
:104A200059F48091BC0080648093BC008091BC00EC
:104A300085688093BC0008951092600D10925F0D00
:104A400080E98093BC000E941A240895FC018091A3
:104A50005F0D9091600D892B31F58091AA0288231A
:104A600011F5309701F180818093A90283819481AF
:104A70009093A6028093A5021092A8028181809350
:104A8000A702858596859093AC028093AB0284E063
:104A900090E09093600D80935F0D85EA8093BC0059
:104AA00080E090E008958FEF9FEF0895382FE82F72
:104AB000E650E230B0F4FF27EE0FFF1FED5FF24F3C
:104AC00080819181892B69F02DB381E090E002C053
:104AD000880F991F3A95E2F7282B2DBB80E090E0D4
:104AE00008958FEF9FEF0895CF93DF93AC01865029
:104AF0008230F0F4C82FDD27CC0FDD1FCD5FD24F01
:104B000088819981892BA1F02DB381E090E0042E5A
:104B100002C0880F991F0A94E2F7809528232DBBC5
:104B2000842F0E94C2591982188280E090E002C04E
:104B30008FEF9FEFDF91CF9108950F931F93CF9346
:104B4000DF939C018A01E82FE650E23000F5CE2F7A
:104B5000DD27FE01EE0FFF1FED5FF24F8081918197
:104B6000892BA9F46130710591F06115710511F47B
:104B700060E001C06150822F0E949259CC0FDD1F6E
:104B8000CD5FD24F1983088380E090E002C08FEFA1
:104B90009FEFDF91CF911F910F910895382FE82F4C
:104BA000E650E230B8F4FF27EE0FFF1FED5FF24F43
:104BB00080819181892B71F02DB381E090E002C05A
:104BC000880F991F3A95E2F7809528232DBB80E046
:104BD00090E008958FEF9FEF08950E9486590E94FC
:104BE0000B3D08950E94ED252FB7F894332780914F
:104BF000E80C9091E90C80619093E90C8093E80CAB
:104C00002FBF0E94483F8823E1F781E083BF88954A
:104C100013BEF7CF1092370A1092380A1092390A51
:104C200020E030E060913C0A75E340913A0A5091EF
:104C30003B0A11C0879FF0011124E40FF51F858501
:104C40009685892B31F4808591859093CE09809348
:104C5000CD092F5F3F4F822F261760F30895AF9243
:104C6000BF92CF92DF92EF92FF920F931F93A22EEB
:104C7000B32EC42ED52EE62EF72E082F192F3091E5
:104C80003C0A40913A0A50913B0A20E065E322C079
:104C9000269FF0011124E40FF51F85859685069760
:104CA000C1F080818A15A9F481818B1591F48281EC
:104CB0008C1579F483818D1561F484818E1549F406
:104CC00085818F1531F48681801719F487818117CA
:104CD00029F02F5F2317E1F6E0E0F0E0CF011F910C
:104CE0000F91FF90EF90DF90CF90BF90AF9008951D
:104CF000BC0130913C0A40913A0A50913B0A20E0B5
:104D0000A5E30FC02A9FF0011124E40FF51F85854C
:104D10009685069729F0808591858617970729F053
:104D20002F5F231779F7E0E0F0E0CF0108950E94AC
:104D300078260895AF92BF92CF92DF92EF92FF92C2
:104D40000F931F93FC01A080B180C280D380E480C8
:104D5000F580068117812A2D3B2D4C2D5D2D6E2D62
:104D60007F2D802F912F0E942F261F910F91FF9052
:104D7000EF90DF90CF90BF90AF900895AF92BF9229
:104D8000CF92DF92EF92FF920F931F930E942F26F4
:104D9000FC01892B19F480E090E002C080859185A8
:104DA0001F910F91FF90EF90DF90CF90BF90AF9049
:104DB00008958F929F92AF92BF92CF92DF92EF921F
:104DC000FF920F93CF93DF93822E932EA42EB52EB6
:104DD000C62ED72EE82EF92E60913C0A40913A0A51
:104DE00050913B0A30E0A0E0B0E029292A292B2984
:104DF0002C29272B282B292B75E33EC0379FF00148
:104E00001124E40FF51F858596850697A1F181A1F0
:104E1000882389F1002319F480A1882361F12223DA
:104E2000C1F08689881539F58789891521F5808D26
:104E30008A1509F5818D8B15F1F4828D8C15D9F4C5
:104E4000838D8D15C1F4848D8E15A9F4858D8F15F4
:104E500091F4109709F4DF01ED019BA183A189175B
:104E600010F4DF0102C0981731F4ED019F8D878D9A
:104E7000891708F4DF013F5F361709F0BFCFCD0176
:104E8000DF91CF910F91FF90EF90DF90CF90BF9087
:104E9000AF909F908F90089580E090E0089580E01B
:104EA00090E0089580E090E0089580E090E008951B
:104EB00008958F3F11F481E015C08F3A10F082E021
:104EC00011C0803610F083E00DC0813110F084E015
:104ED00009C0873010F085E005C0882311F086E016
:104EE00001C087E099270895482F7727653C710511
:104EF000B0F4643A710518F420E030E012C0862F57
:104F0000845A9927382F2227281B390B85E036959C
:104F100027958A95E1F72F3F310519F010F02FEF13
:104F200030E0842F829586958695837009F481E020
:104F30009927AC01249FC001259F900D349F900DAF
:104F4000112463E070E00E9459A86F3F710519F0C9
:104F500010F06FEF70E0862F99270895882309F4E9
:104F6000862F8695869566956695680F880F860FBD
:104F7000992708950F931F93CF93DF93162F042F34
:104F80000E947826EC01892BF1F080913D099091E7
:104F90003E09A0913F09B09140093AE0B695A79526
:104FA000979587953A95D1F79CAB8BAB602F812F66
:104FB0000E947427682F8F850E94AE278F87088BE9
:104FC0000E9459278A8BDF91CF911F910F910895ED
:104FD000FC0186E090E09687858714AA13AA0E94B8
:104FE0000A260E94D82908951F93CF93DF93CDB747
:104FF000DEB728970FB6F894DEBF0FBECDBF182FCF
:105000001092370A1092380A1092390A10923C0A0C
:1050100010923B0A10923A0A6CE37AE080E090E04A
:105020000E9495086AE37AE080E090E00E945E09C1
:10503000BE016B5F7F4F8DE190E00E949508BE013D
:105040006F5F7F4F84E190E00E9495082D813E8143
:105050004F81588589819A81AB81BC81280F391F86
:105060004A1F5B1FDA01C901880F991FAA1FBB1FC6
:10507000820F931FA41FB51F8D839E83AF83B887B4
:105080002AE0B695A795979587952A95D1F790939D
:105090004C0A80934B0A112319F420E030E045C0FC
:1050A0000E940A2640E050E065E370E01FC0809156
:1050B0003D0990913E09A0913F09B09140093327E5
:1050C000269FF001279FF00D369FF00D11242091AF
:1050D0003A0A30913B0AE20FF31F1AE0B695A79502
:1050E000979587951A95D1F794AB83AB242F4F5F93
:1050F0005F4F80913C0A2817D0F21EC0A5E39A9F0B
:10510000D0011124E0913A0AF0913B0AEA0FFB1F0B
:1051100086E090E09687858780913A0A90913B0AD5
:10512000A80FB91FFD0114AA13AA922F2F5F3F4F9A
:1051300080913C0A981710F328960FB6F894DEBFBA
:105140000FBECDBFDF91CF911F910895AF92BF9257
:10515000CF92DF92EF92FF920F931F93A22EB32E66
:10516000C42ED52EE62EF72E082F192F30913C0A8B
:1051700040913A0A50913B0A20E065E322C0269F05
:10518000F0011124E40FF51F858596850697C1F07F
:1051900086898A15A9F487898B1591F4808D8C15E1
:1051A00079F4818D8D1561F4828D8E1549F4838D8E
:1051B0008F1531F4848D801719F4858D811729F0AE
:1051C0002F5F2317E1F6E0E0F0E0CF011F910F9190
:1051D000FF90EF90DF90CF90BF90AF900895309107
:1051E0003C0A40913A0A50913B0A20E065E30AC02C
:1051F000269FF0011124E40FF51F858596850697FB
:1052000031F02F5F2317A1F7E0E0F0E017C03097EF
:10521000A9F01786108A118A128A80913D0990910F
:105220003E09A0913F09B09140097AE0B695A79553
:10523000979587957A95D1F794AB83ABCF01089575
:10524000CF93DF93CDB7DEB721970FB6F894DEBFCB
:105250000FBECDBFDB01672B11F4DE0111961C924E
:10526000805890408133910548F48F549F4FFC0142
:10527000EE0FFF1F0590F491E02D099480E090E07F
:1052800077C081E08C9380919E098F5F80939E0907
:105290008EE999E06DC081E08C938FE999E068C058
:1052A00081E08C9383EA99E063C081E08C9380EA8B
:1052B00099E05EC081E08C9381EA99E059C081E079
:1052C0008C9382EA99E054C082E08C9387E39AE061
:1052D0004FC081E08C9384EA99E04AC081E08C93CE
:1052E00085EA99E045C081E08C9386EA99E040C068
:1052F00082E08C9380EB99E03BC082E08C9384EB5E
:1053000099E036C088E08C9386EB99E031C081E06B
:105310008C9382EB99E02CC081E08C9388EA99E031
:1053200027C081E08C938EEB99E022C081E08C93C2
:1053300086EC99E01DC081E08C938CEC99E018C05C
:1053400082E08C938DEC99E013C082E08C9389ED20
:1053500099E00EC082E08C938BED99E009C081E06A
:105360008C9387EC99E004C088E08C9381ED99E000
:1053700021960FB6F894DEBF0FBECDBFDF91CF915F
:105380000895CF93DF93EC018A819B8198878F8367
:10539000BE01675F7F4F0E9420299B878A87892BE8
:1053A00011F080E001C089EC8E83DF91CF910895E8
:1053B0008091C7098F70880F880F880F40912A0A43
:1053C0004778482B40932A0A50E02091A3093327BD
:1053D0006091A209261B31098091380A992782170A
:1053E00093070CF451E0579555275795942F9F77C5
:1053F000952B90932A0A20E08091390A861708F4A9
:1054000021E0220F220F9B7F922B90932A0A8091FA
:10541000B60980932B0A8091B70980932C0A80915A
:10542000B80980932D0A8091B90980932E0A809142
:10543000BA0980932F0A8091BB098093300A80912A
:10544000BC098093310A8091BD098093320A809112
:10545000C6098093360A8FEF8093330A8093340A0B
:105460008093350A0895CF93DF93CDB7DEB72297A7
:105470000FB6F894DEBF0FBECDBF1A821982BE01EF
:105480006F5F7F4F89E290E00E949508898199279C
:1054900022960FB6F894DEBF0FBECDBFDF91CF913D
:1054A00008958FE08093C2090E94332A992720E94A
:1054B00031E0AC01429FC001439F900D529F900D7F
:1054C0001124892F9927869586958F5F8093A4094B
:1054D0000895CF93DF93CDB7DEB721970FB6F89439
:1054E000DEBF0FBECDBFBE016F5F7F4F82E190E098
:1054F0000E9495088981992721960FB6F894DEBFFE
:105500000FBECDBFDF91CF910895CF93DF93CDB77D
:10551000DEB721970FB6F894DEBF0FBECDBF63EAAA
:1055200079E081E090E00E94950862EA79E082E00B
:1055300090E00E94950861EA79E083E090E00E94A3
:1055400095086FEC79E086E190E00E94950869EAA1
:1055500079E084E090E00E94950863EB79E089E0CF
:1055600090E00E94950862EB79E08AE090E00E946A
:10557000950861ED79E083E190E00E94950864EC84
:1055800079E080E190E00E9495088091CF099091A8
:10559000D0092091A809029710F4226001C02D7F44
:1055A0002093A809BE016F5F7F4F8EE190E00E94BB
:1055B000950890E08981811191E0990F990F990FD9
:1055C0002091A809277F292B20682093A80930E083
:1055D0008091CF099091D009892B09F431E02E7F79
:1055E000232B2093A8090E94512A21960FB6F894E4
:1055F000DEBF0FBECDBFDF91CF910895EF92FF9236
:105600000F931F93CF93DF93CDB7DEB721970FB6DC
:10561000F894DEBF0FBECDBF8C01FC018281938167
:1056200093878287E580F680BE016F5F7F4F0E947F
:105630002029009759F049815527B7010E9416A9E2
:105640000E94D8290E94512A80E005C00E94D829D2
:105650000E94512A89ECF801818721960FB6F894AF
:10566000DEBF0FBECDBFDF91CF911F910F91FF9095
:10567000EF900895FF920F931F93F82E8DE39AE019
:105680000E9443100EE919E08FEAF80111928A9501
:10569000E9F7085E1F4FB8018DE090E00E94950881
:1056A0000E94852A0E94512A085F1F4FB80181E29B
:1056B00090E00E9495081092280A9091B20980917A
:1056C000B3098295807F9F70982B9093290A8FEF62
:1056D0009FEF9093B1098093B00981E08093A7096F
:1056E00082E08093A9098F2D0E94F4270E94D82977
:1056F0001F910F91FF900895803108F08FE0809303
:10570000C7090E941B399093CB098093CA098091E5
:10571000C7098F5F0E941B399093C9098093C809FC
:10572000089580919E098F5F80939E0981509927EB
:105730000895BC013091990C4091970C5091980CB0
:1057400020E0ABE00BC02A9FF0011124E40FF51F0D
:10575000808591858617970729F02F5F231799F782
:10576000E0E0F0E0CF010895AF92BF92CF92DF92D8
:10577000EF92FF920F931F93A22EB32EC42ED52E1D
:10578000E62EF72E082F192F4091990C2091970C97
:105790003091980C90E05BE01EC0959FF0011124C1
:1057A000E20FF31F80818A15A9F481818B1591F492
:1057B00082818C1579F483818D1561F484818E1535
:1057C00049F485818F1531F48681801719F487811A
:1057D000811729F09F5F941701F7E0E0F0E0CF0117
:1057E0001F910F91FF90EF90DF90CF90BF90AF90FF
:1057F00008958091B40C8823D9F58EEF9FEF0E9415
:10580000992BFC01892BA1F12DEF3FEF31872087E8
:1058100081E090E09093A30C8093A20C3093A50CB0
:105820002093A40C1092A60C1092A70C1092A80C16
:105830001092A90C1092AA0C1092AB0C1092AC0C06
:105840001092AD0C8DE08093AE0C8081918190938D
:10585000B00C8093AF0C8EE59DE29093B30C8093D7
:10586000B20C80EA9CE00E942B3B81E08093B40C58
:1058700008956F927F928F929F92AF92BF92CF9234
:10588000DF92EF92FF920F931F93CF93DF93CDB7E9
:10589000DEB728970FB6F894DEBF0FBECDBF3C0130
:1058A00009831A832B833C834D835E836F837887C0
:1058B000A091B009B091B1098A179B0701F58091B9
:1058C000D1098017E1F48091D2098117C1F4809148
:1058D000D3098217A1F48091D409831781F48091B0
:1058E000D509841761F48091D609851741F4809118
:1058F000D709861721F48091D8098717D9F08090AD
:10590000D1099090D209A090D309B090D409C09049
:10591000D509D090D609E090D709F090D809082D84
:10592000192D2A2D3B2D4C2D5D2D6E2D7F2DCD015A
:105930000E94392CC3010E94992BDC01892BA1F113
:105940008C91F9818F1721F5FD018181FA818F17E3
:10595000F9F4FD018281FB818F17D1F4FD01838170
:10596000FC818F17A9F4FD018481FD818F1781F4DB
:10597000FD018581FE818F1759F4FD018681FF812C
:105980008F1731F4FD018781F8858F1709F448C01E
:10599000FD01808591858D939C938EEF9FEF91877C
:1059A00080870E94F92B3CC029813A814B815C8120
:1059B0006D817E818F8198850E94B42BDC01892BBB
:1059C00031F48AE99CE00E944E2FDC011A97FD0118
:1059D00071866086F981FC938A81FD0181839B81B8
:1059E00092838C8183839D8194838E8185839F8123
:1059F00096838885878340913D0950913E09609147
:105A00003F09709140098AE07695679557954795CB
:105A10008A95D1F71A96BD018AE99CE00E946D2F04
:105A200029813A814B815C816D817E818F8198854E
:105A30000E942F26FC01892B11F071866086289622
:105A40000FB6F894DEBF0FBECDBFDF91CF911F918F
:105A50000F91FF90EF90DF90CF90BF90AF909F900D
:105A60008F907F906F9008958F929F92AF92BF9288
:105A7000CF92DF92EF92FF920F931F93FC018280EF
:105A80009380A480B580C680D780E084F184082DFF
:105A9000192D2A2D3B2D4C2D5D2D6E2D7F2D8081B6
:105AA00091810E94392C1F910F91FF90EF90DF9010
:105AB000CF90BF90AF909F908F9008951092B40CAC
:105AC0000E94F92B08958F929F92AF92BF92CF922E
:105AD000DF92EF92FF920F931F93CF93DF93CDB797
