S01100006166666963686575722E7372656366
S2840000000C94DA010C940A020C940A020C940A020C940A020C94D55E0C94345A0C94E3570C9477570C940A020C940A020C940A020C940A020C94EB5C0C940A020C940A020C940A020C944F580C940A020C940A020C940A020C940A020C940A020C940A020C940A020C94825F0C94215E0C944E5E0C940A020C9430560C9465200C940A02E2
S2840000800C940A020C940A020C940A020C940A020C94455F0C947B5E0C94A85E0C94C75F0C940A020C940A020C941D200C940A020C940A020C940A020C940A020C940A020C940A020C940A020C940A02570659065906CD066D066D06CF066D066D066F067206CD067506780690064606DE06A906B206B5064E063E064106CD06BD06CB0617
S284000100CB06CB065B0664064B06C206C506C806CB06CD06CF06D106E106E406E706EE06140810086B081808CB07A40765076D07F60704087D071C08710775076B086B086B086B086B082A083808F20708080C0846086B086B086B085E084A084E0852085A081327D726E126EB26E626F026F526FA26FF2604270927D426D426D426D4263D
S2840001802227D426D426D426D4262C27D4260E271D27D426D42618272727D426D426D426D426D426D426D426D426D426D426D426D426D426D426312736273B2740274527D4264A2732346F3492349534A634A934D534D834E7348C35AB35EA34FF34023518351B35323535354A355C358935B635DB35DB35CC7DF37D0E7E32805A7E5F7EE6
S2840002003280907E437F32803280B97E3280B97E3280B97E3280D97E3280E97E32800F7F32801B7F3280337F32806D7F3280817F3280927F3280AE7F3280D07FCE94DA94159515951595DA94DA94DA941595DA94759490949594159598949B949E941595A394A694DA94DA94C394D7941595C694C9948D94CC94CC94DA94DA94DA94DA9415
S284000280DA94DA94DA94DA94DA94DA94DA94DA94DA94DA94DA94DA94DA94AB94DA9415951595159515951595159515951595159515951595159515951595509601965396539653960196019653965396019682959C95A4955396A995B195BB955396C395C89553960196EA95FC955396EF95F7955096509650960196019601960196019691
S284000300019601960196019601960196019601960196019601960196D095019653965396539653965396539653965396539653965396539653965396130E111216151E1F200F10260AABAE00000800080008001000040014000100150002001700010018000100190001001A0001001B0002001D0001001E0001001F0004002300020025B1
S284000380000100740FE9530000711D00000000000002400305000000010864000C0164000000FFFFFFFFFFFFFFFFE803000002030405060080918713823111F084B701C081E18093871314BE809160008861809360001092600011241FBECFEFD1E2DEBFCDBF12E0A0E0B2E0E2EDF1E501E00BBF02C007900D92A23DB107D9F713E1A2ED9E
S284000400B2E001C01D92A738B107E1F70E9488230C94E7A80C9400007F937FB7F8949D9AA5988AEF0E946B028AEF0E946B029D9886E40E946B0281E0959980E08F9380EF0E946B028F917FBF7F9108957F937FB7F8949D9AA59882E00E946B029D988AE00E946B02889495990894881F8F9384E60E946B028F917FBF7F9108959F937F936C
S28400048098E00E942602879577959A959923C9F7872F7F919F9108957F937FB7F894A5989D9A8F9382E00E946B028F91879508F49D988F9384E60E946B028F919D987FBF7F9108959F9398E00E944C029A959923D9F79F9108958A958823E9F708950F93DF93CF93CDB7DEB760970FB6F894DEBF0FBECDBF002309F459C029833A834B8386
S2840005005C836D837E838F839887E0E2E01B2D813E814F8158851E16BCF01D861E861F86188A8E2F992787FD9095909581959F4F04C056954795379527958A95D2F729873A874B875C872AC0CA01B901002E04C096958795779567950A94D2F76D877E878F87988BDA01C90104C0880F991FAA1FBB1FEA95D2F729813A814B815C8104C002
S28400058056954795379527950A95D2F7822B932BA42BB52B89879A87AB87BC8729853A854B855C856D857E858F85988960960FB6F894DEBF0FBECDBFCF91DF910F9108952E9863995E980895089508950895FC01878590890097E1F482E090E09093D4028093D3021092D6021092D5021092D20282E292E09093DB028093DA0285EE92E06D
S2840006009093DD028093DC0287ED92E00E94CB0F2FB7F8948091560C9091570C92609093570C8093560C2FBF0895CF92DF92EF92FF920F931F93DF93CF9300D0CDB7DEB78091D3029091D4028130910509F470C18130910528F08230910509F0F1C1A9C1569A5E9A259A269A2D982E980E94C0A480EE92E064EE72E00E9484058FEF9FEF89
S2840006809A8389838E010F5F1F4F81E2B80142E050E00E948FA481E2B80142E050E00E944DA4E9818A81E095E093FC02EE2319F42D982E98FFCF80958F70855F8093FD0230E040E050E060E070E0CB011E2F1F5DF1E01E1708F0F0E0E1E0323B08F4E0E091EBF92EFF0EE060F1E04C3B08F4F0E00E2F0554E1E00B3B08F0E0E0FE2BE1E0B1
S2840007005C3B08F4E0E0BF2FB554F1E0BB3B08F0F0E0EF2BF1E06C3A08F4F0E0AE2FA555E1E0AB3A08F0E0E0FE2BE1E07B3A08F4E0E0F655CC24C394FA3A08F0CC24EC29CC24C3948B3A08F4CC249E2F965581E09A3A08F080E08C2986551093FE02F092FF0200930003B0930103A0930203F0930303909304038093050383E190E06EEFE4
S28400078072E00E9456078091FC0280930603109207038FE090E066E073E00E94560781E090E0A0E0B0E00090FD0204C0880F991FAA1FBB1F0A94D2F78093080390930903A0930A03B0930B0381E190E068E073E00E9456070E9498A30E94E89F00D000D000D0EDB7FEB731960EEDC02E02E0D02EADB7BEB71296DC92CE92119780E092E056
S284000800938382838EE292E0958384830E94ECA58DB79EB706960FB6F8949EBF0FBE8DBFC60120911C0230911D0240911E0250911F02609120027091210201E012E3E12E0E9463A200D000D000D0EDB7FEB73196ADB7BEB71296DC92CE92119784E092E0938382838091FD02848315820E94ECA58DB79EB706960FB6F8949EBF0FBE8DBFA7
S284000880C60120911C0230911D0240911E0250911F02609120027091210201E6BEE1EB2E0E9463A200D000D000D0EDB7FEB73196ADB7BEB71296DC92CE9211978AE092E0938382838091FC02848315820E94ECA58DB79EB706960FB6F8949EBF0FBE8DBFC60120911C0230911D0240911E0250911F026091200270912102A8E2EA2E0E94CF
S28400090063A22D9A2E9A1092D20281E090E09093D4028093D3022FB7F8948091560C9091570C92609093570C8093560C2FBF88C08091D202882391F58EED92E060E172E00E94E5A58EED92E020911C0230911D0240911E0250911F0260912002709121020BE6F8E3EF2E0E9463A28EED92E064E172E00E94E5A58EED92E020911C023091E5
S2840009801D0240911E0250911F0260912002709121020E9463A281E08093D20287EE92E090931E0380931D038CE093E00E94EE4A47C08091D202882391F58EED92E060E172E00E94E5A58EED92E020911C0230911D0240911E0250911F0260912002709121020BE6E8E3EE2E0E9463A28EED92E068E172E00E94E5A58EED92E020911C0225
S284000A0030911D0240911E0250911F0260912002709121020E9463A281E08093D2028091D5029091D6028530910551F486EE92E090932203809321038FE193E00E9459470F900F90CF91DF911F910F91FF90EF90DF90CF900895DF93CF93CDB7DEB761970FB6F894DEBF0FBECDBFFC01808191818F38910539F4198A188ACE0101960E9493
S284000A80E70217C081399105A1F41092D20281E090E09093D4028093D3022FB7F8948091560C9091570C92609093570C8093560C2FBF61960FB6F894DEBF0FBECDBFCF91DF9108950895089586E090E00E9464238091230381608093230380912303846080932303809129038160809329032FB7F8948091560C9091570C91609093570C1A
S284000B008093560C2FBF089520912803222321F521E0209328039093250380932403709327036093260386E090E060E070E044E655E00E943323669B04C0809123038E7F03C08091230381608093230386E090E00E94EC2280E0089581E0089580912803813081F486E090E00E940A23109225031092240310922703109226031092280333
S284000B8080E0089581E008958091230381709091230391FD826008958091230382FF12C0809123038B7F8093230380912303806180932303E0912403F0912503309711F081E009958091230384FF2AC0669B17C0809123038F7E80932303809123038E7F80932303E0912603F0912703309711F081E0099586E090E00E94EC220895809166
S284000C0029038160809329032FB7F8948091560C9091570C91609093570C8093560C2FBF08958091290380FF05C08E7F809329030E94CC0580912903882361F02FB7F8948091560C9091570C91609093570C8093560C2FBF0895CF93DF93EB01209709F4C0C08A32910508F0BCC08A599F4FFC01EE0FFF1F0590F491E02D099480913B0334
S284000C80AFC08091440290914502A5C080913E0290913F02A0C080913C03A2C080914B0290914C02A0914D02B0914E0282C084E097C0188296C08091420390914303A0914403B091450375C080914F0290915002A0915102B09152026CC082E081C0809149027EC0809148027BC080914A0278C080912A03888380912B03898380912C0383
S284000D008A8380912D038B8380912E038C8380912F038D83809130038E838091310317C0809136028883809137028983809138028A83809139028B8380913A028C8380913B028D8380913C028E8380913D028F8348C08091400290914102A0914202B091430227C0809132033BC0E3E3F3E088E0019009928150E1F734C084EB90E0A0E01A
S284000D80B0E017C0809146022BC080913D0328C08091460325C081E023C085E021C083E01FC08091540290915502A0915602B091570288839983AA83BB8313C0809147020FC080913E030CC080913F0309C080914003909141039983888303C0809153028883DF91CF910895FB018630910509F440C087309105A0F48230910571F1833031
S284000E00910538F4009719F18130910509F04BC021C08430910539F18530910538F520C08A30910591F18B30910538F48830910531F18930910530F51FC08C30910559F18C30910528F18D30910569F527C087E493E026C08BE194E023C089E894E020C085E496E01DC089E896E01AC085EE96E017C085EE96E014C081E397E011C08DE8FA
S284000E8097E00EC080EB97E00BC083E398E008C087E398E005C08EE398E002C085E798E0918380830895118210820895DB01FC013997E132F10508F00EC1E057FF4FEE0FFF1F0590F491E02D09948D919C91119790933F0280933E0208958C918093470208958C9180933B0308958D919C911197909345028093440208958C9180933303AB
S284000F0011968C9111978093340312968C9112978093350313968C9113978093360314968C9114978093370315968C9115978093380316968C9116978093390317968C91179780933A0308958C918093360211968C9111978093370212968C9112978093380213968C9113978093390214968C91149780933A0215968C91159780933B0278
S284000F8016968C91169780933C0217968C91179780933D0208958C9180932A0311968C91119780932B0312968C91129780932C0313968C91139780932D0314968C91149780932E0315968C91159780932F0316968C9116978093300317968C9117978093310308958C9180933C0308958D919D910D90BC91A02D8093400290934102A093CD
S2840010004202B093430208958C918093320308958C918093460208958C9180933D0308958C918093480208958C918093490208958C9180934A0208958D919D910D90BC91A02D80934B0290934C02A0934D02B0934E0208958D919D910D90BC91A02D8093420390934303A0934403B093450308958D919D910D90BC91A02D80934F02909320
S2840010805002A0935102B093520208958C918093460308958C9180933E0308958C9180933F0308958D919C911197909341038093400308958C918093530208958D919D910D90BC91A02D8093540290935502A0935602B093570208950E94150B089510922A0310922B0310922C0310922D0310922E0310922F0310923003109231038AEA2C
S2840011008093360280933702809338028093390280933A0280933B0280933C0280933D028FEF9FEF90933F0280933E0280E090E0A1E0B0E08093400290934102A0934202B0934302109232031092330310923403109235031092360310923703109238031092390310923A0310923B0382E090E0909345028093440210923C0383E0809319
S284001180460210923D0381E08093470210923E0310923F031092410310924003089502C00E94363D0E94AE1E8823D1F70895CF92DF92EF92FF920F931F93DF93CF93CDB7DEB727970FB6F894DEBF0FBECDBF8C0119820097C9F1FC0110821B821A8281E090E09F838E837E010894E11CF11C82E0C82ED12CCC0EDD1E1FC0FD82EC820E9453
S284001200CF08C60160E070E00E946E1FFFEF8F3F9F0731F481E090E0F8019483838314C00E94CF08F80180819981890F80838A819B8101969B838A838A819B8186329105E0F2F8011482138227960FB6F894DEBF0FBECDBFCF91DF911F910F91FF90EF90DF90CF900895EF92FF920F931F93DF93CF9300D000D000D0CDB7DEB78C010097CA
S284001280B9F186E290E09A83898381E090E09E838D837E010894E11CF11C1EC01C830B830E94CF08C70160E070E00E946E1F2FEF8F3F920731F481E090E0F8019483838317C00E94CF08F801208189819A812F3F59F401969A83898389819A8180339105E8F286E290E0F801928381831482138226960FB6F894DEBF0FBECDBFCF91DF91C1
S2840013001F910F91FF90EF900895DF93CF93CDB7DEB761970FB6F894DEBF0FBECDBF8FEF8983CE0102960E9433098D819E818130910509F44BC0CE0107960E94D7088A859B858130910509F441C09F818A81890FD1F191959F838B819C819D878C87CE0101969F878E8781E090E0998B888B0E94CF08CE010C9662EF79E00E94EE1E2FEF5F
S2840013808F3F920719F10E94CF088C859D8501969D878C878033910520F086E290E09D878C87CE0107969F878E870E94CF08CE010C9662EF79E00E94EE1E2FEF8F3F920729F00E94CF0820E030E002C021E030E0C90161960FB6F894DEBF0FBECDBFCF91DF9108950895BF92CF92DF92EF92FF920F931F93DF93CF93CDB7DEB76C970FB662
S284001400F894DEBF0FBECDBF1092BE0CDD248E01035F1F4F7E010894E11CF11C82E0B82ECC24C3948D2D0E94520D8091BE0C882329F41093C20C0093C10C09C0813039F48091BD0C90E061EC7CE00E94F4068091BE0C823069F48091BD0C8B831C82C7010E9457272B853C853093C20C2093C10C0E94CF088FEB9CE060E070E00E946E1FF8
S2840014802FEF8F3F920701F10E94CF088091BE0C882331F48091BD0C90E0B8010E945607D3948D2D8C3019F4C092BE0CBBCF2D2D2D3019F4B092BE0CB5CF8D2D8F3008F4B1CF20E030E002C021E030E0C9016C960FB6F894DEBF0FBECDBFCF91DF911F910F91FF90EF90DF90CF90BF900895CF92DF92EF92FF920F931F93DF93CF93CDB703
S284001500DEB765970FB6F894DEBF0FBECDBF0E946F08CC2426E0E22EF12CEC0EFD1E8C2D0E94520D8091BD0C90E0B7010E942B0601EC1CE0F092C20CE092C10C0E94CF08C801029762EF79E00E94EE1E2FEF8F3F920709F458C00E94CF08C3948C2D8C30F1F6C7016FEF70E04AE050E00E94DEA5F092C20CE092C10C96E2C92ED12CD092EB
S284001580C00CC092BF0C8AE090E0F801938382830E94CF08C801029762EF79E00E94EE1EFFEF8F3F9F0779F10E94CF087E010894E11CF11CC7010E94D7088C819D818130910509F1898181958983D092C00CC092BF0CF092C20CE092C10C81E090E0F801938382830E94CF08C801029762EF79E00E94EE1EFFEF8F3F9F0729F00E94CF08AB
S28400160020E030E002C021E030E0C90165960FB6F894DEBF0FBECDBFCF91DF911F910F91FF90EF90DF90CF900895DF93CF93CDB7DEB72A970FB6F894DEBF0FBECDBFCE0106960E94D70889859A858130910509F1CE0101960E9433098C819D8181309105C1F089819E81890F51F40E94F3098130910579F00E94090C20E030E00CC00E949E
S284001680770A8130910529F00E94090C22E030E002C021E030E0C9012A960FB6F894DEBF0FBECDBFCF91DF91089580919908882349F48FEA9CE00E94D90D0E94BE0D02C00E94363D809199088130D1F308950F931F93DF93CF9300D000D000D0CDB7DEB78901C0969A8389835E834D837C836B8302C00E94363D809199088130D1F301159F
S284001700110511F402EF19E00E94CF08CE010196B8010E946E1F2FEF8F3F920739F089E0023F180731F40E94CF0803C021E030E002C020E030E0C90126960FB6F894DEBF0FBECDBFCF91DF911F910F9108950F931F93DF93CF9300D000D000D0CDB7DEB78901C0969A8389835E834D837C836B8302C00E94363D809199088130D1F30115E7
S284001780110511F402EF19E00E94CF08CE010196B8010E94EE1E2FEF8F3F920739F089E0023F180731F40E94CF0803C021E030E002C020E030E0C90126960FB6F894DEBF0FBECDBFCF91DF911F910F9108959093BC0C8093BB0C662329F480EE93E9A4E0B0E004C082E390E0A0E0B0E08093B50C9093B60CA093B70CB093B80C81E090E0BB
S2840018009093BA0C8093B90C8FEA9CE00E94FD0D08951092BE0C8EEB9DE060E00E94E70B0895EF92FF920F931F93DF93CF93CDB7DEB760970FB6F894DEBF0FBECDBF7E010894E11CF11CF092C20CE092C10C0BE918E08091BD0C90E0B8010E942B060E94CF088FEB9CE060E070E00E946E1F0E94CF084091C30C5091C40CC801B7010E946F
S284001880C8A5009761F01093C20C0093C10C8FEB9CE06EEB7DE00E94EE1E81E001C080E060960FB6F894DEBF0FBECDBFCF91DF911F910F91FF90EF900895AF92BF92CF92DF92EF92FF920F931F93DF93CF9300D00F92CDB7DEB7CE0101969093C20C8093C10CC090C30CD090C40CA090BF0CB090C00C81E090E09093C40C8093C30C80916D
S284001900BD0C90E0BE016E5F7F4F0E94F40600E010E031C00E94CF088FEBE82E8CE0F82EC70160E070E00E946E1F0E94CF088A819B81FC01E00FF11F30812981321781F0F70193838283D582C482B092C00CA092BF0CC7016EEB7DE00E94EE1E81E00FC08091BF0C9091C00C01969093C00C8093BF0C0F5F1F4F0C151D0560F280E00F90EB
S2840019800F900F90CF91DF911F910F91FF90EF90DF90CF90BF90AF9008956F927F928F929F92AF92BF92CF92DF92EF92FF920F931F93DF93CF93CDB7DEB72D970FB6F894DEBF0FBECDBFCE0101969093C20C8093C10C8090C30C9090C40C6090BF0C7090C00C81E090E09093C40C8093C30C8091BD0C8C831D82CE0102960E9457273C8554
S284001A002D85A32EB22EA114B104B1F1C901C92ED82EEE24FF242DC00E94CF080FEB1CE0C80160E070E00E946E1F0E94CF08F60191916F018981981781F0F801B382A282958284827092C00C6092BF0CC8016EEB7DE00E94EE1E81E010C08091BF0C9091C00C01969093C00C8093BF0C0894E11CF11CE814F90480F280E02D960FB6F894DC
S284001A80DEBF0FBECDBFCF91DF911F910F91FF90EF90DF90CF90BF90AF909F908F907F906F9008950F931F93DF93CF9300D000D0CDB7DEB7082F10E0B801685C7C4F8DEB9CE041E050E00E94BFA5B801660F771F660F771F695B7C4FCE01019644E050E00E94BFA589819A819093C00C8093BF0C8B819C819093C40C8093C30C0F900F9081
S284001B000F900F90CF91DF911F910F91089580919A080E94520D8091BE0C882321F40E94110C882339F58091BE0C813021F40E945D0C8823F9F48091BE0C823021F40E94CD0C8823B9F480919A088F5F80939A088C3011F481E003C08D3029F482E08093BE0C80E008958F3039F410929A0883E08093BE0C81E0089580E0089581E0809395
S284001B8099080E94870D8823E1F38091BE0C833079F40E9485098130910531F48EEB9DE061E00E94E70B08950E94090C109299080895CF93DF93EC01892BD1F08091AF089091B0088C179D0719F460E070E008C0BE018FEA98E00E94613DBC01892B41F0AE018FEA98E00E94453D80E090E002C08FEF9FEFDF91CF910895CF93DF93EC014F
S284001C00892B71F0E091AF08F091B00806C0EC17FD0751F10190F081E02D3097C1F703C08FEF9FEF23C08FB7F89499272091AB083091AC084091AD085091AE088FBF198218828E819F81A885B985820F931FA41FB51F8A839B83AC83BD83BE018FEA98E00E94393D0E94D41F80E090E0DF91CF910895CF92DF92EF92FF920F931F93CF934D
S284001C80DF93C091AF08D091B0086E0138C08FB7F89499272091AB083091AC084091AD085091AE088FBFEA80FB800C811D812E153F0540075107F8F08A859B85019739F4AE01B6018FEA98E00E94453D0CC08E819F81A885B985E80EF91E0A1F1B1FEA82FB820C831D83EC85FD8509958091AF089091B00803C0888199816E01EC01209769
S284001D0031F6DF91CF911F910F91FF90EF90DF90CF9008956091B9087091BA088091BB089091BC080895CF93DF93982FA0915802B091590203C00D90BC91A02D109731F0ED01EB81FC8180819817A9F7CD01DF91CF910895CF93DF93282F80915802909159022F3F99F0DC0103C00D90BC91A02D1097C1F0ED01EB81FC8180812817A9F7FE
S284001D8061708A818E7F862B8A830CC0FC01617007C082818E7F862B82830190F081E02D3097B9F7DF91CF9108958091580290915902089561E00E94AA0E089560E00E94AA0E08951092B2081092B1081092B3081092B4081092B5081092B6080895A091B108B091B208109731F0ED91FC911197CD01029609950895009729F488E592E0C8
S284001E000E94253B08950E94643B0895CF93DF93EC011B821A829093B2088093B1080E949B1D0397B9F484E090E00E948E1D8091AB089091AC08A091AD08B091AE088093B9089093BA08A093BB08B093BC080E94BB1204C083EA90E09B838A831092B3081092B4081092B5081092B60880E090E00E944F1E8091B3089091B408A091B50824
S284001E80B091B60883608093B3089093B408A093B508B093B608DF91CF91089580959095AA27BB272091B3083091B4084091B5085091B60882239323A423B5238093B3089093B408A093B508B093B6080097A105B10549F480E00E946D1C85E090E00E948E1D0E94EF0E08950E949B1D059721F00E949B1D049721F480E090E00E944E0F5C
S284001F000895CF93DF93EC011B821A820E949B1D8230910511F0059729F483E090E00E948E1D04C083EA90E09B838A830E94E811E881F981CE0102960995DF91CF9108950F931F938C0162E070E08CE80E94AB1E1093B8080093B70881E090E00E948E1DF80180818093BF088EE090E19093C1088093C0088DEB98E00E9401341F910F91D7
S284001F8008950E94EC3388E592E00E940F3B80E00E94EA530895CF93DF93EC01EB81FC819081892F8150803FD0F4A0915802B091590203C00D90BC91A02D109741F0FD0123813481F90180819817A1F708C08A818E7F8A83BE0188E592E00E94153BDF91CF910895CF93DF93FC019081A0915802B091590203C00D90BC91A02D109759F0A1
S284002000ED01EB81FC8180819817A9F7BD0188E592E00E94413BDF91CF9108951F93CF93DF93EC010E94A01D892B11F00E94AE1510E0E091B708F091B8088081813009F411E0812F0E94CC1D1092B2081092B1081092B3081092B4081092B5081092B608812F0E94E61D812F0E94EA53812F0E946D1CE091B708F091B8088081882319F4CA
S28400208082E090E002C083E090E00E948E1DE091B708F091B808888199279483838321813281CF010396F90109951092B8081092B708DF91CF911F9108958091C8088F5F8093C8088150992708958091C7088F5F8093C708815099270895FF920F931F93182F6091CE082091D3083091D40890E0FF248BC082E2989FA0011124F901E40F84
S284002100F51F8081882309F07DC0123020F0123009F07EC016C09091D2088091D008981708F076C09F5F9093D2081382148215821682E091D308F091D408E40FF51F178241C09091D1088091CF08981708F060C0B091CB086091CC087091CD08A0E00EE29F5F2DC0A09F90011124FB01E20FF31F808180FD23C09093D1088081816080836A
S284002180E091CC08F091CD08E20FF31F808183708F298083E091D308F091D408E40FF51F8091CC089091CD08820F931F8396928B818B8091CB088A1729F42AC0AF5FAB1789F626C0E091D308F091D408E40FF51F1282E091D308F091D408E40FF51F81E08083E091D308F091D408E40FF51F1183E091D308F091D408E40FF51F1186108643
S284002200CF0108C09F5F84E0F80E961709F072CF80E090E01F910F91FF900895CF93DF93E091D308F091D4088E179F0708F461C08E1B9F0B62E270E00E9418A58091CE08681708F056C082E2689FE0011124EC0FFD1F1282E091D308F091D408EC0FFD1F8181823018F08230E9F508C08091D2088823C1F181508093D20834C08091D108A3
S284002280882319F081508093D1082091CC083091CD0881899289821B930B6EE270E00E9418A58091CF086817A8F48EE2689FB0011124F901E60FF71F808180FF0BC08E7F8083E091CC08F091CD08E60FF71F80818D7F8083E091D308F091D408EC0FFD1F128A118AE091D308F091D408EC0FFD1F1082DF91CF910895FC01148A8091CA0844
S28400230081508093CA0822893389CF014496F90109950895FC01DA01892BD9F0748F638F452B51F08D919D910D90BC91A02D858F968FA78FB0A304C0158E168E178E10A2218D328D2115310521F0CF014B96F9010995089590E08091C608811191E081E09827892F992708951F9371E020E030E06091FE0817E04091C3085091C4081DC0BC
S284002380819FF0011124E40FF51F83819481A581B6818A309105A105B10548F00A97A109B10983839483A583B68370E004C013821482158216822F5F3F4F822F261700F3772321F085ED98E00E946C1E1F9108950F931F93CF93DF93CDB7DEB727970FB6F894DEBF0FBECDBFBE016F5F7F4F89E290E00E942B06898199270796AA2797FD1A
S284002400A095BA2F9C01AD01E4E0220F331F441F551FEA95D1F7281B390B4A0B5B0B2093F6083093F7084093F8085093F908BE016E5F7F4F86E190E00E942B068A819B810297D1F58E010C5F1F4FB80184E190E00E942B062C813D814E815F8189819927AA27BB2782179307A407B50768F0220F331F441F551F2C833D834E835F83B8010C
S28400248084E190E00E9456078091F6089091F708A091F808B091F9082C813D814E815F81820F931FA41FB51F8093F6089093F708A093F808B093F90866EF78E088E190E00E9456078091F6089091F708A091F808B091F9089C01AD01220F331F441F551F280F391F4A1F5B1F2093FA083093FB084093FC085093FD0804EB11E12AE030E050
S28400250040E050E060E070E085ED98E00E94771E08EC12E12AE030E040E050E060E070E085EE98E00E94771E8091E5089091E608019741F485EE98E00E946C1E85EE98E00E949D1E8091D5089091D608019741F485ED98E00E946C1E85ED98E00E949D1E27960FB6F894DEBF0FBECDBFDF91CF911F910F91089585EE98E00E946C1E85EDB8
S28400258098E00E946C1E83E090E00E944F1E08951F93CF93DF9311E0C0E0D0E036C082E2E89F90011124E091D308F091D408E20FF31F8081882341F18181813029F58281823011F583819481A581B6818A309105A105B10548F00A97A109B10983839483A583B68310E010C083E08283E091D308F091D408E20FF31F138214821582168224
S28400260083E090E00E944F1E2196EC2F8091CE08C81728F2113021F485EE98E00E946C1EDF91CF911F910895CF93DF93EC018A818130F1F081E08A838F8181508F838091C7088F5F8093C70881508B8B8091C6088F5F8093C60864E070E081E80E94AB1ECE010A960E943B2E85EE98E00E949D1EDF91CF9108950F931F93CF93DF930E94D2
S2840026809B1D049721F00E949B1D059781F500E010E027C082E2989FE0011124E091D308F091D408EC0FFD1F80818823C1F081818130A9F482818250823088F440E050E063EA70E0808591850E948A118091D3089091D4088C0F9D1F4A960E940E110F5F1F4F902F8091CE080817A0F23AC00E949B1D0397B1F500E010E02EC082E2989FE7
S284002700E0011124E091D308F091D408EC0FFD1F80818823F9F081818130E1F482818330C9F48781882321F0CF010E94141312C0AF01425E5F4F67EA70E0808591850E948A118091D3089091D4088C0F9D1F4A960E940E110F5F1F4F902F8091CE08081768F2DF91CF911F910F910895AF92BF92CF92DF92EF92FF920F931F93CF93DF9391
S284002780AC01EC01A984BA847091CE08C090D308D090D40860E069C082E2689F70011124F601EE0DFF1D8081882309F45DC08181813009F059C08281823009F055C0A189B28900851185EA012F813885E8018C819D812817390709F047C0E5019F81ED018F81981709F040C0E5012C813D81ED018C819D8128173907B9F5E5012A813B81C0
S284002800ED018A819B812817390771F5E5019981ED018E81981741F5E5019E81ED018981981711F5D5018C918370823029F47E96AF0160E070E00BC08781882321F0CF010E94141315C07E96AF0161EB70E0C8010E948A118091D3089091D4088E0D9F1D4A960E940E1104C06F5F671709F094CFDF91CF911F910F91FF90EF90DF90CF9010
S284002880BF90AF9008950F931F93CF93DF93DC018B0182E090E0EB019D878C87FD01848195819F878E878489885F888B8589968908979A8B898B8091C7088B8B8F5F8093C708808D8C8B1D8A81E08E8B1F8A8AE29CE1998F888FE989FA892081822F8C7F8083ED018C819D81207F875F9F4F08F02860208380818F7D8083ED018F899081BB
S28400290082FD03C09F7B908308C09064908381E0E8018A838091F5088F8380818F778083ED018E85818389899A89938382838F859889958384838B8986838091C80887838F5F8093C8088091C6088F5F8093C60864E070E083E70E94AB1EC8010A960E943B2E80E090E0DF91CF911F910F9108952091C6082F5F2093C6080E943B2E0895C3
S284002980CF93DF93CDB7DEB72C970FB6F894DEBF0FBECDBF80EB90E09C838B831E821D82CE0101960E9457278B859C852C960FB6F894DEBF0FBECDBFDF91CF9108956F927F929F92AF92BF92CF92DF92EF92FF920F931F93CF93DF930E949B1D5C01892B09F4AEC082E0A816B10409F4A9C084E692E00E94253BEC010E94643B9DC0E0919B
S284002A00D308F091D408CE018E1B9F0B62E270E00E9418A58091CE08681708F083C082E2689F60011124EC0DFD1DE084F184E181E130D1F0E13020F0E23009F073C06AC0C50104970297A8F0E3E0AE16B10409F069C0BE0184E692E00E94413BAE014C5F5F4F6B81772752C09B80C5010497029758F4BE0184E692E00E94413BAE014C5FF8
S284002A805F4F63EA70E042C0F3E0AF16B10409F049C0BE0184E692E00E94413B0091D3081091D4080C0D1D1DF80182818130D1F5992039F58091F50899272781821B910921E030E002C0220F331F8A95E2F7442737FD4095542F6091F6087091F7088091F8089091F9080E94F9A4F801638374838583968382E0828385EE98E00E949D1EED
S284002B0011C0AE014C5F5F4F692D7727C7010E948A1105C0BE0184E692E00E94413BCE010E940E116114710419F480E090E003C0C3010E94643BE3013C01209709F05FCFDF91CF911F910F91FF90EF90DF90CF90BF90AF909F907F906F900895CF93DF930BC08CE592E00E94293B40E050E063EA70E0CE010E948A118CE592E00E94253BD8
S284002B80EC01892B71F733C0BE0184E692E00E94413B2091D3083091D408CE01821B930B62E270E00E9418A58091CE086817F8F4E2E26E9FF0011124E20FF31F808591856181613059F0613018F0623081F40CC0AE014C5F5F4F6B81772704C040E050E067EA70E00E948A11CE010E940E1184E692E00E94253BEC01892B31F6C0E0D0E05C
S284002C0028C082E2989FF00111248091D3089091D408E80FF91F80818823D1F0808591852181213059F0213018F0223089F40CC060910300772744E050E004C040E050E067EA70E00E948A1180E090E00E940E1121969C2F8091CE08C81798F2DF91CF9108950F931F93CF93DF938C01C0E0D0E014C0EB81FC818081882379F08A8180FDEF
S284002C800CC021813281F801828D938D2817390721F4ED81FE81C8010995CE010E94FC0EEC01892B31F7DF91CF911F910F910895EF92FF920F931F93CF93DF93CDB7DEB7AB970FB6F894DEBF0FBECDBF8C01FC0186858823F9F08F3FE9F00E94930E7C01009761F0FC01A381B481FD0121813281F801878590892817390739F0F8018789D1
S284002D0082FF0AC087EA90E069C0F701828180FD63C002C0EE24FF24F801828193819A83898386818D8387818E8380858F83818588878285898783858A8784858B8785858C8786858D87BE016E5E7F4F83E190E00E942B0682E090E09F878E878091FE0C9091FF0C998B888BF80183898A8F878590899C8F8B8F818992899E8F8D8F8489BD
S284002D808F8F8589968999A388A38FEA90E09DA38CA38FEF8EA31FA218A619A61AA68BA78D85882329F4CE0101960E945E500AC0F80186859E012F5F3F4F8F3F31F4C9010E94311680E090E009C0F70145815681C901FA010995F6CF81EB90E0AB960FB6F894DEBF0FBECDBFDF91CF911F910F91FF90EF900895009719F480E090E0089590
S284002E000E94F92A0895DF92EF92FF920F931F93CF93DF93CDB7DEB766970FB6F894DEBF0FBECDBF83E090E00E94A51DD82E0E949B1D04970297A0F40BC08CE592E00E94293B40E050E063EA70E0C8010E948A118CE592E00E94253B8C01892B71F7D7C086E990E09E878D87188A1F86CE010B960E945727ED89FE89808191819A83898390
S284002E80A5C0DD2019F403EA10E096C0F70187898B7F09F0ADC0F7018489853518F000EA10E08AC0F7018389882329F00E94930E892B09F4A9C0F701228133812230310551F484819581885F9F4F50F0F701878982FF06C099C0C9010297029708F07FC0F7018685815F8E3008F079C08DC0BE016D5F7F4F83E190E00E942B069B81F70149
S284002F0086819817F9F49C8187819817D9F49D8180859817B9F49E818185981799F49F818285981779F498858385981759F499858485981739F49A858585981719F4FE01319608C0C70106960E94FB16FC01892B09F457C080819181F7019583848382E090E093838283F7012481358189819A812817390759F48CE592E00E94293BC70166
S284002F800E94581640E050E0BC011DC0F701878982FD02C080E02FC081E02DC08CE592E00E94293BF801F186E086B801C7010E9443148C01892B51F08CE592E00E94293B40E050E0B801C7010E948A118CE592E00E94253B7C01892B09F053CF18C02230310509F22330310509F481CF232B61F40AEA10E0E1CF0E946D108C01892B71F6DA
S28400300006C009EA10E0D8CF06EA10E0D5CF66960FB6F894DEBF0FBECDBFDF91CF911F910F91FF90EF90DF900895009719F480E090E008950E94992B08953F924F925F926F927F928F929F92AF92BF92CF92DF92EF92FF920F931F93CF93DF930E948A0E5B016C0120E030E06091FE0877E04091C3085091C4081DC0879FF0011124E40F7B
S284003080F51F83819481A581B681A816B906CA06DB0648F48A199B09AC09BD0983839483A583B68304C013821482158216822F5F3F4F822F261700F3B1E05B2E66247724A2E23A2EF3E04F2E70C0039D40011124C091D308D091D408C80DD91D8881882309F460C08981813009F05CC06F81772788279927E090F608F090F7080091F8086B
S2840031001091F908A80197010E94F9A49B01AC018B819C81AD81BE81280F391F4A1F5B1FA216B306C406D50670F5CA01B9016A197B098C099D096B837C838D839E83A80197010E943FA52F830091D3081091D408080D191DF80163817481858196812091F6083091F7084091F8085091F9080E943FA5F80163837483858396838281823087
S28400318089F455240FC01B821C821D821E821F82E091D308F091D408E80DF91D8281823009F442820894611C711C062D8091CE08681608F48ACF552021F485EE98E00E949D1E81E08093C50883E090E00E944F1EDF91CF911F910F91FF90EF90DF90CF90BF90AF909F908F907F906F905F904F903F9008958F929F92BF92CF92DF92EF9222
S284003200FF920F931F93CF93DF937C01B62EEC0109851A85F801808186FFE3C08370813019F421E0D22E02C097E0D92E7091CE088090D3089090D40860E082E2C82E4D2D5527D801A40FB51F1EC06C9DF0011124E80DF91D80818130A9F48181823091F4E7012F813885868597852817390751F40188F289E02DE40FF51F9C91808198177E
S28400328009F4B9C06F5F671701F7ADC0F701878190850E942D24FC01892B49F08485813031F4E989FA89B3978081826080831986188629893A8982E090E09D878C87F701878190859F878E878091C7088F5F8093C70881508B8B1C8A1D8A81E08E8B1F8A8AE29CE1998F888FF9018081BB2019F48C7F826002C08360F9018083F8019081F6
S2840033009C70F9018081837F892B8083F80190819071F9018F7E892B982F9F799083F801908190788F71892BF9018083F8018081AD2DBB2784FF0AC0F70181859285A80FB91F8C91F901818382E029C088E0888BF8018681F9018183F80182819381F90193838283F80184819581F90195838483F8018181F9018683F70181859285A80F6B
S284003380B91F8C91F9018783F801808187FF1FC08085837031F4F901108688898F5F888B16C088898D5F888BF80180858370F90180878FEF8287F80180858370813019F4F901118604C0F8018185F901818764E070E083E90E94AB1ECE010A960E94B8140AC080E009C082E00E946D10EC01892B09F04CCFF6CF81E09927DF91CF911F9176
S2840034000F91FF90EF90DF90CF90BF909F908F900895AF92BF92CF92DF92EF92FF920F931F93CF93DF93CDB7DEB7AB970FB6F894DEBF0FBECDBF8C01FC01E184F284F7019181892F81508E3F18F0AA24BB241CC0892F0E94930E5C01F701818181508E3F20F4A114B10421F432C0A114B10461F0F501A381B481FD0121813281F70184812C
S28400348095812817390719F5F7012081822F8C748834E9F026FF06C0F80187819085885F9F4FA8F427FD13C0207C203411F021E00FC0F501828180FD06C060E0C8010E94FA18282F05C061E0C8010E94FA1820E0F80184819581019709F4ECC0222309F4E9C0F7015781F801C780D0843091FE086091C3087091C40820E047E017C0249F93
S284003500F0011124E60FF71F83819481A581B6810097A105B10549F0808191818C159D0521F48281851709F4C5C02F5F231739F74091C90827E0429F90011124620F731FFB01D182C082E091C308F091C408E20FF31F52838091C3089091C408280F391F8091FA089091FB08A091FC08B091FD08F90183839483A583B6834F5F4093C908D6
S2840035808091FE08481710F01092C90885ED98E00E949D1EF701818181508E3F20F4A114B10409F487C032E0C32ED12CDA82C982F801828193819C838B83F70181818D87C80107960E941518FC01892BA9F083E090E09F878E8780818A8B81818B8B82818C8B83818D8B84818E8B85818F8B8681888F8781898F02C0DF86CE86F801878161
S2840036009085998B888BF70186818A8F848195819C8F8B8F828193819E8F8D8FF80126812A502F8F265F1BA21AA2F701808187FD02C0285009C082EA90E09BA38AA3F7018085837011F429502F8FF801268133278F8D281B310981859285820F931F99A388A38FEA90E09DA38CA383858EA385859685A785B0898FA398A7A9A7BAA78485B8
S2840036808BA7A114B10441F0F50125813681CE010196F90109950EC0F70181819E012F5F3F4F8F3F21F4C9010E94311603C0C9010E945E50AB960FB6F894DEBF0FBECDBFDF91CF911F910F91FF90EF90DF90CF90BF90AF900895FC01A185B2858C91282F2C70243021F185FD22C01EC083708230F1F02830E1F02C30D1F084819581029770
S284003700B1F48C9183709927009721F00297029770F406C02C3059F0CF010E94091A07C0CF010E94B61303C086FFE7CFDFCF81E090E008951F93FC01892BA1F0808191810E942D24DC01009779F0FC018485813049F01091CB086091CC087091CD0840E050E017C0A0E0B0E050E017C0242F33278EE290E0289FF001299FF00D389FF00D83
S2840037801124E60FF71F80818370823009F45F5F4F5F411759F7151B512F4091D1088091CE0899272091D208240F312D311D281739075CF48091CF08481738F4AB2B19F080E0523018F081E001C080E099271F910895FF920F931F93CF93DF9351E0F52E2CC00E949B1D8C0180E692E00E94293BC8010497029718F441E0F42E1BC00330B0
S284003800110531F0E985FA8580818370813079F4E985FA85808186FF06C0CE0107960E949A1B813021F4CE010E946B1BF82E81E0F81619F4CE010E947C1180E692E00E94253BEC01892B69F6DF91CF911F910F91FF900895CF93DF93EC018B81882321F464E070E084E703C064E070E085E70E94AB1E8091C60881508093C608BE0184E61A
S28400388092E00E94153B83E090E00E944F1EDF91CF9108950F931F938C0164E070E081E90E94AB1EB80180E692E00E94153B83E090E00E944F1E8091CA088F5F8093CA081F910F910895BC018CE592E00E94153B83E090E00E944F1E08950F931F93CF93DF93CDB7DEB722970FB6F894DEBF0FBECDBF20E030E06091FE084091C3085091E8
S284003900C4080FC09927FC01B3E0EE0FFF1FBA95E1F7E81BF90BE40FF51F1382148215821682822F2F5F3F4F861760F31092C7081092C8081092C5088CE592E00E940F3B80E692E00E940F3B84E692E00E940F3B88E692E00E940F3B6BEC78E088E090E00E942B066CEC78E084E090E00E94F40620E030E04EE250E012C0892F9927849F20
S284003980F001859FF00D949FF00D11248091CC089091CD08E80FF91F80818E7F8083922F2F5F3F4F8091CB08981738F36EEC78E087E090E00E942B0663ED78E083E090E00E94F40620E030E012C0FF27CF01A5E0880F991FAA95E1F7EE0FFF1FE80FF91F8091D3089091D408E80FF91F1082E22F9091CE082F5F3F4FE91738F38091CB0898
S284003A008093CF0891509093D0081092D1081092D20883E08093F50866EF78E088E190E00E942B062091F6083091F7084091F8085091F908DA01C901880F991FAA1FBB1F820F931FA41FB51F8093FA089093FB08A093FC08B093FD086EEF78E087E190E00E942B0663EC78E088E090E00E94F4064091FE08552760E070E08091C308909110
S284003A80C4080E94DEA5BE016F5F7F4F86E190E00E942B0604EB11E12AE030E040E050E060E070E085ED98E00E94771E08EC12E12AE030E040E050E060E070E085EE98E00E94771E1092C6081092CA0822960FB6F894DEBF0FBECDBFDF91CF911F910F9108950E94DF140E94E91B0E9403170E943B130E949B1D049721F48091C6088823B1
S284003B0039F08091C508813041F41092C508089583E090E00E944E0FF4CF08952091FF08309100093093020920930109909300098093FF0808958091FF08909100090895809101099091020908952091FF08309100092230310581F02330310518F4232B41F014C02330310599F02530310571F409C0019759F40CC08130910549F0049768
S284003B8029F406C020E0019721F402C020E001C021E0822F992708952091FF0830910009813059F4309302092093010983E090E0909300098093FF0808953093020920930109109200091092FF08089510920309089580910309882369F02FB7F89433278091560C9091570C80629093570C8093560C2FBF0895CF93DF93CDB7DEB7229724
S284003C000FB6F894DEBF0FBECDBF409103094423E9F120E030E0E42FFF27622F77272F5F3F4FCF01062E02C0959587950A94E2F780FFF3CF81E090E0062E02C0880F991F0A94E2F78095482340930309660F771F6D577C4F42E050E0CE0101960E94BFA580910309882369F02FB7F89433278091560C9091570C80629093570C8093560C7D
S284003C802FBFE981FA81309709F0099522960FB6F894DEBF0FBECDBFDF91CF910895BC0140910309442369F42FB7F89433278091560C9091570C80629093570C8093560C2FBF81E090E002C0880F991F6A95E2F7482B409303090895FC0180819181019729F411921192CF010E94D90D08958F929F92AF92BF92CF92DF92EF92FF920F9323
S284003D001F937C014B0159016A010E946C1EF7011182108295868486A086B186C286D386178706871F910F91FF90EF90DF90CF90BF90AF909F908F900895FC0180819181892B39F481E090E081939193CF010E94FD0D0895089508950895089520E030E08091040990910509019711F421E030E0C90108958091C90C9091CA0C892B61F4E3
S284003D801092050910920409E091CB0CF091CC0C309719F109950895E091C70CF091C80C4191F093C80CE093C70C6091C50C7091C60C6F5F7F4F7093C60C6093C50C615070408CE00E9458208091C90C9091CA0C01979093CA0C8093C90C0895CF93DF93FC018091040990910509892B19F08EEF9FEF71C0309709F46CC080819181248147
S284003E003581820F931F8050904108F062C081E090E09093050980930409A5ECBCE086E001900D928150E1F77093CC0C6093CB0C672B19F4C0E0D0E03DC0E091C70CF091C80C4191F093C80CE093C70C6091C50C7091C60C6F5F7F4F7093C60C6093C50C615070408CE00E9458208091C90C9091CA0C01979093CA0C8093C90C80E090E08B
S284003E802AC0E091C70CF091C80C4191F093C80CE093C70C6091C50C7091C60C6F5F7F4F7093C60C6093C50C6150704084E00E94582021968091C90C9091CA0CC817D90700F3F999FECF1092050910920409CE0102C08FEF9FEFDF91CF910895FC018091040990910509892B19F08EEF9FEF0895309709F456C08081918124813581820F8C
S284003F00931F8050904108F04CC081E090E090930509809304097093CC0C6093CB0CA5ECBCE086E001900D928150E1F7F999FECF40E050E017C0E091C70CF091C80CE40FF51F8091C50C9091C60C01969093C60C8093C50C019792BD81BDF89A80B580834F5F5F4F8091C90C9091CA0C4817590710F31092CA0C1092C90C8091090980616A
S284003F80809309092FB7F89433278091560C9091570C82609093570C8093560C2FBFCA0108958FEF9FEF08958091A100882371F488E893E19093A9008093A8008AE08093A1008091720082608093720008951092A1000895CF92DF92EF92FF920F931F936C016091AB087091AC088091AD089091AE08E090A400F090A50028EE33E040E029
S28400400050E00E94F9A4EE0CFF1CEE0CFF1C00271127E60EF71E081F191FF601E082F1820283138314821582168217821F910F91FF90EF90DF90CF9008951F920F920FB60F9211242F933F938F939F93AF93BF938091AB089091AC08A091AD08B091AE080A96A11DB11D8093AB089093AC08A093AD08B093AE0880910A09806880930A0912
S2840040802FB7F89433278091560C9091570C82609093570C8093560C2FBFBF91AF919F918F913F912F910F900FBE0F901F901895282FF999FECF72BD61BD40BD8FB7F89499272FBBF99A8FBF08951F920F920FB60F9211242F933F938F939F93FB98809109098061809309092FB7F89433278091560C9091570C82609093570C8093560C2B
S2840041002FBF9F918F913F912F910F900FBE0F901F9018958091070983FF0CC02FB7F894332780910709877F809307092FBF0E943B3CAFC08091080987FF0CC02FB7F8943327809108098F77809308092FBF0E940A3F9FC08091090980FF0CC02FB7F8943327809109098E7F809309092FBF0E94EE3D8FC08091090981FF0CC02FB7F894CC
S2840041803327809109098D7F809309092FBF0E94183E7FC08091090983FF0CC02FB7F894332780910909877F809309092FBF0E9471536FC08091090984FF0CC02FB7F8943327809109098F7E809309092FBF0E94BA1E5FC080910A0982FF0CC02FB7F894332780910A098B7F80930A092FBF0E94483E4FC080910A0983FF0CC02FB7F89425
S284004200332780910A09877F80930A092FBF0E94073F3FC080910A0984FF0CC02FB7F894332780910A098F7E80930A092FBF0E94303E2FC080910A0985FF0CC02FB7F894332780910A098F7D80930A092FBF0E9406221FC080910A0987FF0CC02FB7F894332780910A098F7780930A092FBF0E94390E0FC080910B0987FF0BC02FB7F894EA
S284004280332780910B098F7780930B092FBF0E94C73B809106098823A1F480910709882381F480910809882361F480910909882341F480910A09882321F480910B09882369F02FB7F89433278091560C9091570C82609093570C8093560C2FBF089580917102882319F08FEF9FEF089581E0809371021092CE0C1092CD0C80E090E0089551
S284004300FC018091CD0C9091CE0C892B31F580917102882311F5309701F180818093700210926F02818180936E028381948190936D0280936C0285859685909373028093720286E090E09093CE0C8093CD0C85EA8093BC0080E090E008958FEF9FEF0895E0917202F0917302309711F080E0099508951092CE0C1092CD0CE0917202F09152
S2840043807302309711F081E009950895282F8091CD0C9091CE0C892B11F480E918C080916F02E0916C02F0916D02E80FF11D20838F5F80936F0290916E02891758F48091BC0080648093BC008091BC0085688093BC00089588E090E09093CE0C8093CD0C84E98093BC0080910A09806280930A092FB7F89433278091560C9091570C82604D
S2840044009093570C8093560C2FBF08958091BC0084FDFCCF0E94B92108959C01892B91F080917102813071F4C9010E94BE5F1092CE0C1092CD0C10926F021092710280E090E008958FEF9FEF08958091CD0C9091CE0C8430910551F485E090E09093CE0C8093CD0C80917002880F0CC0069781F487E090E09093CE0C8093CD0C80917002E8
S284004480880F8F5F8093BB0085E88093BC0008951092CE0C1092CD0C80E98093BC000E94B02108952091CD0C3091CE0C2115310511F480E954C0882309F454C02530310521F540916F0280916E02481708F04AC0E42FFF279F012F5F3F4F99272817390731F482E090E09093CE0C8093CD0C80916C0290916D02E80FF91F80814F5F409304
S2840045006F028093BB0085E82AC022303105E1F483E090E09093CE0C8093CD0C84E98093BC0080910A09806280930A092FB7F89433278091560C9091570C82609093570C8093560C2FBF08952730310559F48091BC0080648093BC008091BC0085688093BC0008951092CE0C1092CD0C80E98093BC000E94B0210895FC018091CD0C90912D
S284004580CE0C892B31F580917102882311F5309701F18081809370028381948190936D0280936C0210926F02818180936E0285859685909373028093720284E090E09093CE0C8093CD0C85EA8093BC0080E090E008958FEF9FEF0895382FE82FE650E230B0F4FF27EE0FFF1FEF58F34F80819181892B69F02DB381E090E002C0880F991F5F
S2840046003A95E2F7282B2DBB80E090E008958FEF9FEF0895CF93DF93AC0186508230F0F4C82FDD27CC0FDD1FCF58D34F88819981892BA1F02DB381E090E0042E02C0880F991F0A94E2F7809528232DBB842F0E9458571982188280E090E002C08FEF9FEFDF91CF9108950F931F93CF93DF939C018A01E82FE650E23000F5CE2FDD27FE0131
S284004680EE0FFF1FEF58F34F80819181892BA9F46130710591F06115710511F460E001C06150822F0E942857CC0FDD1FCF58D34F1983088380E090E002C08FEF9FEFDF91CF911F910F910895382FE82FE650E230B8F4FF27EE0FFF1FEF58F34F80819181892B71F02DB381E090E002C0880F991F3A95E2F7809528232DBB80E090E008958B
S2840047008FEF9FEF08950E941C570E94A13A08950E9483232FB7F89433278091560C9091570C80619093570C8093560C2FBF0E94DE3C8823E1F781E083BF889513BEF7CF1092A5091092A6091092A70920E030E06091AA0975E34091A8095091A90911C0879FF0011124E40FF51F85859685892B31F48085918590933C0980933B092F5F53
S2840047803F4F822F261760F30895AF92BF92CF92DF92EF92FF920F931F93A22EB32EC42ED52EE62EF72E082F192F3091AA094091A8095091A90920E065E322C0269FF0011124E40FF51F858596850697C1F080818A15A9F481818B1591F482818C1579F483818D1561F484818E1549F485818F1531F48681801719F48781811729F02F5FF2
S2840048002317E1F6E0E0F0E0CF011F910F91FF90EF90DF90CF90BF90AF900895BC013091AA094091A8095091A90920E0A5E30FC02A9FF0011124E40FF51F85859685069729F0808591858617970729F02F5F231779F7E0E0F0E0CF0108950E940E240895AF92BF92CF92DF92EF92FF920F931F93FC01A080B180C280D380E480F5800681DB
S28400488017812A2D3B2D4C2D5D2D6E2D7F2D802F912F0E94C5231F910F91FF90EF90DF90CF90BF90AF900895AF92BF92CF92DF92EF92FF920F931F930E94C523FC01892B19F480E090E002C0808591851F910F91FF90EF90DF90CF90BF90AF9008958F929F92AF92BF92CF92DF92EF92FF920F93CF93DF93822E932EA42EB52EC62ED72E4F
S284004900E82EF92E6091AA094091A8095091A90930E0A0E0B0E029292A292B292C29272B282B292B75E33EC0379FF0011124E40FF51F858596850697A1F181A1882389F1002319F480A1882361F12223C1F08689881539F58789891521F5808D8A1509F5818D8B15F1F4828D8C15D9F4838D8D15C1F4848D8E15A9F4858D8F1591F41097AB
S28400498009F4DF01ED019BA183A1891710F4DF0102C0981731F4ED019F8D878D891708F4DF013F5F361709F0BFCFCD01DF91CF910F91FF90EF90DF90CF90BF90AF909F908F90089580E090E0089580E090E0089580E090E0089580E090E0089508958F3F11F481E015C08F3A10F082E011C0803610F083E00DC0813110F084E009C08730EC
S284004A0010F085E005C0882311F086E001C087E099270895482F7727653C7105B0F4643A710518F420E030E012C0862F845A9927382F2227281B390B85E0369527958A95E1F72F3F310519F010F02FEF30E0842F829586958695837009F481E09927AC01249FC001259F900D349F900D112463E070E00E9418A56F3F710519F010F06FEF91
S284004A8070E0862F99270895882309F4862F8695869566956695680F880F860F992708950F931F93CF93DF93162F042F0E940E24EC01892BF1F08091AB089091AC08A091AD08B091AE083AE0B695A795979587953A95D1F79CAB8BAB602F812F0E940A25682F8F850E9444258F87088B0E94EF248A8BDF91CF911F910F910895FC0186E004
S284004B0090E09687858714AA13AA0E94A0230E946E2708951F93CF93DF93CDB7DEB728970FB6F894DEBF0FBECDBF182F1092A5091092A6091092A7091092AA091092A9091092A8096AEA79E080E090E00E942B0668EA79E080E090E00E94F406BE016B5F7F4F8DE190E00E942B06BE016F5F7F4F84E190E00E942B062D813E814F8158857C
S284004B8089819A81AB81BC81280F391F4A1F5B1FDA01C901880F991FAA1FBB1F820F931FA41FB51F8D839E83AF83B8872AE0B695A795979587952A95D1F79093BA098093B909112319F420E030E045C00E94A02340E050E065E370E01FC08091AB089091AC08A091AD08B091AE083327269FF001279FF00D369FF00D11242091A80930918D
S284004C00A909E20FF31F1AE0B695A795979587951A95D1F794AB83AB242F4F5F5F4F8091AA092817D0F21EC0A5E39A9FD0011124E091A809F091A909EA0FFB1F86E090E0968785878091A8099091A909A80FB91FFD0114AA13AA922F2F5F3F4F8091AA09981710F328960FB6F894DEBF0FBECDBFDF91CF911F910895AF92BF92CF92DF92D7
S284004C80EF92FF920F931F93A22EB32EC42ED52EE62EF72E082F192F3091AA094091A8095091A90920E065E322C0269FF0011124E40FF51F858596850697C1F086898A15A9F487898B1591F4808D8C1579F4818D8D1561F4828D8E1549F4838D8F1531F4848D801719F4858D811729F02F5F2317E1F6E0E0F0E0CF011F910F91FF90EF9096
S284004D00DF90CF90BF90AF9008953091AA094091A8095091A90920E065E30AC0269FF0011124E40FF51F85859685069731F02F5F2317A1F7E0E0F0E017C03097A9F01786108A118A128A8091AB089091AC08A091AD08B091AE087AE0B695A795979587957A95D1F794AB83ABCF010895CF93DF93CDB7DEB721970FB6F894DEBF0FBECDBFF4
S284004D80DB01672B11F4DE0111961C92805890408133910548F48F549F4FFC01EE0FFF1F0590F491E02D099480E090E077C081E08C9380910C098F5F80930C098CE099E06DC081E08C938DE099E068C081E08C9381E199E063C081E08C938EE099E05EC081E08C938FE099E059C081E08C9380E199E054C082E08C9385EA99E04FC081E0FE
S284004E008C9382E199E04AC081E08C9383E199E045C081E08C9384E199E040C082E08C938EE199E03BC082E08C9382E299E036C088E08C9384E299E031C081E08C9380E299E02CC081E08C9386E199E027C081E08C938CE299E022C081E08C9384E399E01DC081E08C938AE399E018C082E08C938BE399E013C082E08C9387E499E00EC099
S284004E8082E08C9389E499E009C081E08C9385E399E004C088E08C938FE399E021960FB6F894DEBF0FBECDBFDF91CF910895CF93DF93EC018A819B8198878F83BE01675F7F4F0E94B6269B878A87892B11F080E001C089EC8E83DF91CF910895809135098F70880F880F880F409198094778482B4093980950E0209111093327609110090B
S284004F00261B31098091A6099927821793070CF451E0579555275795942F9F77952B9093980920E08091A709861708F421E0220F220F9B7F922B9093980980912409809399098091250980939A098091260980939B098091270980939C098091280980939D098091290980939E0980912A0980939F0980912B098093A00980913409809393
S284004F80A4098FEF8093A1098093A2098093A3090895CF93DF93CDB7DEB722970FB6F894DEBF0FBECDBF1A821982BE016F5F7F4F89E290E00E942B068981992722960FB6F894DEBF0FBECDBFDF91CF9108958FE0809330090E94C927992720E931E0AC01429FC001439F900D529F900D1124892F9927869586958F5F809312090895CF93C6
S284005000DF93CDB7DEB721970FB6F894DEBF0FBECDBFBE016F5F7F4F82E190E00E942B068981992721960FB6F894DEBF0FBECDBFDF91CF910895CF93DF93CDB7DEB721970FB6F894DEBF0FBECDBF61E179E081E090E00E942B0660E179E082E090E00E942B066FE079E083E090E00E942B066DE379E086E190E00E942B0667E179E084E05B
S28400508090E00E942B0661E279E089E090E00E942B0660E279E08AE090E00E942B066FE379E083E190E00E942B0662E379E080E190E00E942B0680913D0990913E0920911609029710F4226001C02D7F20931609BE016F5F7F4F8EE190E00E942B0690E08981811191E0990F990F990F20911609277F292B20682093160930E080913D094A
S28400510090913E09892B09F431E02E7F232B209316090E94E72721960FB6F894DEBF0FBECDBFDF91CF910895EF92FF920F931F93CF93DF93CDB7DEB721970FB6F894DEBF0FBECDBF8C01FC018281938193878287E580F680BE016F5F7F4F0E94B626009759F049815527B7010E94D5A50E946E270E94E72780E005C00E946E270E94E72761
S28400518089ECF801818721960FB6F894DEBF0FBECDBFDF91CF911F910F91FF90EF900895FF920F931F93F82E8BEA99E00E94D90D0CE019E08FEAF80111928A95E9F7085E1F4FB8018DE090E00E942B060E941B280E94E727085F1F4FB80181E290E00E942B061092960990912009809121098295807F9F70982B909397098FEF9FEF90934B
S2840052001F0980931E0981E08093150982E0809317098F2D0E948A250E946E271F910F91FF900895803108F08FE0809335090E94B1369093390980933809809135098F5F0E94B1369093370980933609089580910C098F5F80930C09815099270895BC013091070C4091050C5091060C20E0ABE00BC02A9FF0011124E40FF51F80859185E6
S2840052808617970729F02F5F231799F7E0E0F0E0CF010895AF92BF92CF92DF92EF92FF920F931F93A22EB32EC42ED52EE62EF72E082F192F4091070C2091050C3091060C90E05BE01EC0959FF0011124E20FF31F80818A15A9F481818B1591F482818C1579F483818D1561F484818E1549F485818F1531F48681801719F48781811729F0F1
S2840053009F5F941701F7E0E0F0E0CF011F910F91FF90EF90DF90CF90BF90AF9008958091220C8823D9F58EEF9FEF0E942F29FC01892BA1F12DEF3FEF3187208781E090E09093110C8093100C3093130C2093120C1092140C1092150C1092160C1092170C1092180C1092190C10921A0C10921B0C8DE080931C0C8081918190931E0C8093ED
S2840053801D0C84EF9AE29093210C8093200C8EE09CE00E94C13881E08093220C08956F927F928F929F92AF92BF92CF92DF92EF92FF920F931F93CF93DF93CDB7DEB728970FB6F894DEBF0FBECDBF3C0109831A832B833C834D835E836F837887A0911E09B0911F098A179B0701F580913F098017E1F4809140098117C1F48091410982174D
S284005400A1F480914209831781F480914309841761F480914409851741F480914509861721F4809146098717D9F080903F0990904009A0904109B0904209C0904309D0904409E0904509F0904609082D192D2A2D3B2D4C2D5D2D6E2D7F2DCD010E94CF29C3010E942F29DC01892BA1F18C91F9818F1721F5FD018181FA818F17F9F4FD010B
S2840054808281FB818F17D1F4FD018381FC818F17A9F4FD018481FD818F1781F4FD018581FE818F1759F4FD018681FF818F1731F4FD018781F8858F1709F448C0FD01808591858D939C938EEF9FEF918780870E948F293CC029813A814B815C816D817E818F8198850E944A29DC01892B31F488E09CE00E94E42CDC011A97FD017186608691
S284005500F981FC938A81FD0181839B8192838C8183839D8194838E8185839F819683888587834091AB085091AC086091AD087091AE088AE076956795579547958A95D1F71A96BD0188E09CE00E94032D29813A814B815C816D817E818F8198850E94C523FC01892B11F07186608628960FB6F894DEBF0FBECDBFDF91CF911F910F91FF9081
S284005580EF90DF90CF90BF90AF909F908F907F906F9008958F929F92AF92BF92CF92DF92EF92FF920F931F93FC0182809380A480B580C680D780E084F184082D192D2A2D3B2D4C2D5D2D6E2D7F2D808191810E94CF291F910F91FF90EF90DF90CF90BF90AF909F908F9008951092220C0E948F2908958F929F92AF92BF92CF92DF92EF9201
S284005600FF920F931F93CF93DF93CDB7DEB728970FB6F894DEBF0FBECDBFFC0180819181892B9281892B9381892B9481892B9581892B9681892B9781892B19F48824992464C0DE01119688E001900D928150E1F7A980BA80CB80DC80ED80FE800F81188580913F098A1509F5809140098B15E9F4809141098C15C9F4809142098D15A9F42C
S284005680809143098E1589F4809144098F1569F480914509801749F480914609811729F44EE1842E49E0942E30C02A2D3B2D4C2D5D2D6E2D7F2D802F912F0E944A29009719F48824992408C038E0832E912C880E991E81149104C9F4A980BA80CB80DC80ED80FE800F8118852A2D3B2D4C2D5D2D6E2D7F2D802F912F0E94C523009729F0D5
S28400570028E0822E912C880E991EC40128960FB6F894DEBF0FBECDBFDF91CF911F910F91FF90EF90DF90CF90BF90AF909F908F9008950F931F93CF93DF93FC01892BC1F18081C82FDD2781819927982F8827C82BD92B8FEFC83FD80758F580911E0990911F098C179D0719F40FE319E023C0CE010E942F29009711F08C011CC000E010E07F
S284005780CE010E940E24FC01892BA1F080819181892B9281892B9381892B9481892B9581892B9681892B9781892B21F08F0102C000E010E0C801DF91CF911F910F910895EF92FF920F931F93CF93DF93DC01F090070CC091050CD091060C90E06BE0E62E32C09E9DF0011124EC0FFD1F208531852A173B0711F12E5F3F4F21F58D0120E02F
S28400580030E040E050E060E070E080818A17D1F481818117B9F482818217A1F48381831789F48481841771F48581851759F48681861741F48781871729F48DEF9FEF9187808703C09F5F9F1561F6DF91CF911F910F91FF90EF900895CF93DF9367E07CE083E290E00E942B0665E07CE08CE090E00E94F40660E070E04091050C5091060C4C
S284005880CBE0D0E0ADEFBFEF0CC099278C9FF0018D9FF00D9C9FF00D1124E40FF51FB187A087862F2091070C6F5F7F4F821768F3BA01665F7F4F4B5E5F4F88E09CE00E94A22CE091050CF091060C80911E0990911F099187808780913F098083809140098183809141098283809142098383809143098483809144098583809145098683F5
S284005900809146098783E091050CF091060C8FEF82871092220CDF91CF9108956091AB087091AC088091AD089091AE08EAE09695879577956795EA95D1F788E09CE00E94C22C0895CF93DF93DC01FB0111961C921E92EC012D837B836A83461B4C8320E030E040E805C04083ED018C81E80FF11D922F2F5F3F4FED018D819817A0F3DF91C3
S284005980CF910895CF93DF93DC018C91962F981BED01EA81FB819923A1F020E030E00BC0808187FD02C0890F8083ED018C81E80FF11D2F5F3F4FED018D81281788F36D937C93DF91CF910895CF93DF93EC01EA81FB813D81DF0120E010C0808187FF04C08F3F11F0DF010BC080819C91891B81FDDF018C81E80FF11D2F5F231771F7CD0117
S284005A00DF91CF910895CF93DF93EB01BA010E94C22C88818F3F09F01882DF91CF910895FC01DB018081481B8C91480F842F992708950F931F9303E21CE0C8010E94D90D80E098E7A0E0B0E08093290C90932A0CA0932B0CB0932C0C10922E0C10922D0C8CE39DE29093300C80932F0CC8010E94FD0D1F910F9108950E94E52D0E943F3697
S284005A800E948E2C0895BF92CF92DF92EF92FF920F931F93CF93DF937C01B62E6091AB087091AC088091AD089091AE08EAE09695879577956795EA95D1F78B01D090120980EC9BE00E94C22C3091BF0B20E0C0E0D0E051E0C52E2FC0A22FBB27AA0FBB1FAA0FBB1FFD01E45FF64FED59FD4F80819181E356F240E816F906E1F4EB59FD4F57
S284005B008081E556F2408B15A9F4EA59FD4F9081AE58B44F8C9188231CF0CC24D91610F491E0C92EC22FDD27CC0FDD1FCC0FDD1FC159D44F2F5F231779F6209781F480EC9BE00E94E42CEC012397A801BC0180EC9BE00E94102D8D1568F0209759F0F982E882BA822396A801BE0180EC9BE00E94032D01C0CC248C2D9927DF91CF911F915F
S284005B800F91FF90EF90DF90CF90BF90089584E18093BF0B80E04FEF5FEFE82FFF27EE0FFF1FEE0FFF1FE159F44F518340838F5F2091BF0B821788F346E75BE062E77BE080EC9BE00E94A22C08956091AB087091AC088091AD089091AE08BAE09695879577956795BA95D1F780EC9BE00E94C22C089560910F0A40910D0A50910E0A262FBC
S284005C0030E077E315C0379FF0011124E40FF51F83A1882361F0823051F081A5882331F482A5882319F4848D958D82FD21503F5F361749F7822F99270895FC01BF9784E083A384E090E00E94283A0895FC018091100A84A315A216A217A210A611A612A613A616A615A613A2158E148E84E090E00E94283A0895BC0185EF99E00E94153B70
S284005C8084E090E00E94283A0895EF92FF920F931F93CF93DF938C017B010E94253BEC01892B11F0C8010BC00E94F92D823048F0C7010E94253BEC01892B19F0C7010E94293BCE01DF91CF911F910F91FF90EF9008950E94AFA508950F931F93CF93DF938C01EC01A097FC0181819281892B21F464E070E08EE603C064E070E08FE60E9464
S284005D00AB1E8AE08BA3888999898F5F9F4F91F1F80121813281809147099091480901969093480980934709892B21F410924A0910924909232BF1F08091490990914A09019690934A098093490940914709509148099A0136952795369527952817390748F44631510530F064E170E080E090E00E94EE388C8D9D8D82FD1AC08CA1815008
S284005D808CA38823A9F0F80181819281813E910511F487E08BA3F80181819281893E910511F48BE08BA388A5882311F08BE00BC08BA18A3049F48DA59EA5892B29F018A681E08CA387E08BA384E090E00E94283ADF91CF911F910F910895CF93DF9383E08093100A6FE07AE085E090E00E942B066DE07AE081E090E00E94F40681E19AE094
S284005E000E94D90D10921F0A1092340AC0E0D0E00CC087E3989FC001112420910D0A30910E0A820F931F0E94262E9C2F219680910F0A981770F385EF99E00E940F3B89EF99E00E940F3B8DEF99E00E940F3B81E09AE00E940F3B85E09AE00E940F3B89E09AE00E940F3BDF91CF9108951092340A089520E030E057E34AE011C0959FF00153
S284005E80112480910D0A90910E0AE80FF91F83A1882319F0883009F043A32F5F3F4F922F80910F0A281750F30E9411360E945E3784E090E00E94283A089520E030E057E347E00FC0959FF001112480910D0A90910E0AE80FF91F83A18C3009F443A32F5F3F4F922F80910F0A281760F384E090E00E94283A10921F0A0895CF92DF92EF9272
S284005F00FF920F931F93CF93DF93CC24DD24A1C387E3689FE001112480910D0A90910E0AC80FD91F8BA1853009F457C2863048F4813009F47CC0813070F0843009F086C30EC28A3009F484C28B3009F406C3873009F07CC357C281E090E00E946438882391F069E07AE08DEF99E00E94452E9C01892B89F081E08BA3398328838FA342C04B
S284005F8062EC0E94D27469E07AE08DEF99E00E94452E0097A9F780E090E00E946438882359F01FC0ED0189858A8B82EC8B8BEE85FF85CD014096099561E07AE085EF99E00E94452EDC01892B69F702C00E94ED7465E07AE089EF99E00E94452E0097B1F735C361E07AE085EF99E00E94452E8C01892B69F0CE010E94262E81E08BA319837D
S28400600008838DA384E090E00E94283A1FC365E07AE089EF99E00E94452E9C01892B09F415C381E08BA3398328838EA3EBCF8DA1882309F47BC0E881F9814681475F488F495027813085295030403A8F298F275F3F4F82819381019731F0285030403A8F298F485F488F098D1A8DC8010E94C533E881F98182819381019721F4F801818155
S28400608081608183E881F98184819581F80193838283E881F98194859295990F990F907CF80180818F73892B8083E881F9819285992361F0F8018681891730F481EC90E09AA389A38AE0C1C2F8019683E881F981828193810197E9F4F8018181816081839085892F8C7F8087E881F98183858770880F880F907E982BF8019087E881F98160
S28400610083858295880F807E9F71982BF801908716C0F80182819381885F9F4F80F0F8016781848195810E94432D09C0E881F981E157FF4F8081888F8F01065610408CE69EE29F8F8E8F1A8F098F82E090E09D878C879B878A8780912209909123099F878E871B8E1D8E1C8EF801828193819AAB89AB818180FF02C081E001C082E08DABC0
S284006180F801808182958695869583708EAB82819381FFEF883F9F0728F40E940E24FC01892B19F480E090E008C090E08485811191E081E09827892F992789A7FFE2EF2EF12CEC0EFD1EF70182819381FFEF883F9F0718F020E030E00DC040E050E0F70166810E94143620E030E08F5F9F4F11F421E030E02AA78091160983FD0CC0809131
S2840062003B0990913C09998B888B8C8D9D8D81609D8F8C8F18A6F801818180FD06C082819381885F9F4F38F449C0F80180858370813009F043C08FEF9FEF998B888B8FA18823E9F0E881F981EF56FF4F0190F081E02D0780F085E02D309789F0CE0102960995E881F981EF56FF4F0190F081E02D82818CA388899989885F9F4F10F081E028
S28400628088A78091160983FD12C0F80182819381885F9F4F30F080913B0990913C09998B888B8C8D9D8D81609D8F8C8F18A685E08BA384E090E00E94283A27C08C8D9D8D81609D8F8C8FF801828193819AAB89AB818180FF02C081E001C082E08DABF801808182958695869583708EAB89A5882319F48AA5882321F00E94F92D882329F0B3
S28400630083E08BA3C7010E9411378BA1813009F09DC18DA1882331F06881798181E09AE00E94153B8EA1882331F06881798185E09AE00E94153B8FA1882331F06881798189E09AE00E94153B8091100A8CA31DA21EA21FA218A619A61AA682E076C18C8D9D8D81609D8F8C8F8BA99CA9998B888BFFEF8F3F9F0779F4E98DFA8D81ED90E05F
S2840063809AA389A38AE08BA364817581828193810E94ED3837CE0E940E24FC01892B41F08485882329F48C8D9D8D84609D8F8C8F8FA1882379F0E881F981EF56FF4F0190F081E02D0780F085E02D309719F0CE010296099585E08BA315CE1CA61EA61DA688A5882351F1E98DFA8D828193818F5F9F4F19F56481758180E090E00E94E8240D
S2840064009EA78DA7ADA5BEA51097B9F088A58823A1F4FD0180859185998B888B85E090E09D8F8C8FE98DFA8D64817581CD010E94E8249EA78DA71AA219A264E070E08DE60E94AB1ECE0102960E94286688E0FDC089A19AA1098D1A8D28893989892B09F445C0F80164817581C9010E9416398EA1882309F441C0F801428153812481358131
S284006480FFEF483F5F07C0F58091340A8823A1F581E090E09093230A8093220A3093250A2093240A1092260A1092270A1092280A1092290A10922A0A10922B0A10922C0A10922D0A10922E0A5093300A40932F0A86E39FE29093330A8093320A80E29AE00E94C13881E08093340A06C0F80164817581C9010E9409398DA18823D9F08BA5B9
S284006500882311F00E947E73E881F9818185828BE881F98189A1838BE881F981148A158A168A178AE881F98126853785CF014096F90109958EA1882321F0888199810E94ED748FA1882329F069A1888199810E94D274CE010E94262E55CD80911F0A882309F051C08FA1882319F1E881F981EF56FF4F0190F081E02DE380FF240E94692EC4
S284006580E881F981EF56FF4F0190F081E02D2481332728233923E20EF31E00271127E092170AF092180A0093190A10931A0A18C088A5882349F00E94692EAA27BB278F739070A070B07004C08BE090E0A0E0B0E08093170A9093180AA093190AB0931A0A81E090E090931C0A80931B0A8DE59FE290931E0A80931D0A81E19AE00E94FD0D19
S28400660081E080931F0AE090170AF090180A0091190A10911A0A0E94C927282F332744275527C801B7010E94F9A4E2E09695879577956795EA95D1F76093170A7093180A8093190A90931A0A8CE08BA30894C11CD11C6C2D80910F0AC81608F459CC20E030E047E30FC0949FF001112480910D0A90910E0AE80FF91F83A1823009F413A2B8
S2840066802F5F3F4F922F80910F0A281760F3DF91CF911F910F91FF90EF90DF90CF900895BC018DEF99E00E94153B84E090E00E94283A0895BC0189EF99E00E94153B84E090E00E94283A0895CF93DF93FC01DB01AC01485F5F4F11965C934E939C01205F3F4FEB013B832A837896FD83EC833196F987E88779971F821E8289E18A8781818D
S28400670083FD0DC011961C921E925B834A833D832C837196F987E887719781E18A87818184FD10C0ED011B821A828C819D8108979D838C83888599850897998788878A8588508A87818180FD0BC0ED011D821C82888599850197998788878A8581508A87818182FF0FC0ED01E885F985FF83EE839081990F8A858E5F980F9A87E90FF11DDA
S284006780F987E887DF91CF9108950F931F938C01FC01118210829081892F8C7F8083809121098F70880F880F907C982B90831382128280911E0990911F099583848380910F099927880F991F86830E942729F80187831F910F910895089580E090E00E94283A089580E090E00E94283A089580E090E00E94283A089580E090E00E94283A64
S28400680008959093560A8093550A81E08093450A8CEF93E39093470A8093460A82E49AE00E948C6610925F0A0E94553A1092580A1092570A0895A091550AB091560A109709F4EEC1E091570AF091580AE831F10508F0E6C1EE51FF4FEE0FFF1F0590F491E02D0994FD0182810E94D0280E94ED2E0E9478740E94187B0E94A47A0E94A17AB7
S2840068800E94FD770E94F8370E94B8840E94C72D0E9464800E94B5840E9411360E9427390E945E370E94192D0E942C2C0E94C0380E945E3A0E94B9840E94067A80E090E00E94FB37E091550AF091560A8281882319F487E190E041C181E090E03EC16AE379E087E290E00E942B0662E279E088E290E00E942B066EE179E08FE090E00E947F
S2840069002B0682E090E09093580A8093570A83E590E09093460A8093450A80911E0990911F090AC183E090E018C184E090E09093580A8093570A8BE490E09093460A8093450A80913B0990913C09F6C085E090E004C186E090E09093580A8093570A8AE490E09093460A8093450A80913B0990913C090E940E24FC0180818093470A818170
S2840069808093480A82818093490A838180934A0A848180934B0A858180934C0A868180934D0A878180934E0ACBC087E090E0D5C088E090E09093580A8093570A86E590E09093460A8093450A1092470AB9C08BE090E0C3C085E490E09093460A8093450A86E999E09093480A8093470A87EF93E39093500A80934F0A8CE090E014C08DE0F6
S284006A0090E0ABC086E490E09093460A8093450A8FE08093470A87EF93E39093500A80934F0A8EE090E09093580A8093570A8EC08FE090E092C082E590E09093460A8093450A8091160986958695869581708093470A87EF93E39093500A80934F0A80E190E0E1CF81E190E078C01092460A1092450A80913A098093470A87EF93E39093FD
S284006A80500A80934F0A82E49AE00E94366682E190E03AC081E490E09093460A8093450A8FEF8093470A87EF93E39093500A80934F0A83E190E0B7CF8DEE93E390934C0A80934B0A80912209909123099093460A8093450A0E94FF278093480A80913A098093470A20E080911E0990911F09892B09F421E02093490A10924A0A80E090E011
S284006B000E94283A84E190E09093580A8093570A089589E090E021C08AE090E09093580A8093570A80E590E09093460A8093450A80912209909123099093480A8093470A87EF93E39093500A80934F0A82E49AE00E943666089585E190E09093580A8093570A80E090E00E94283A0895809116098695869586959927AA27BB278170907053
S284006B80A070B0708093450A9093460AA093470AB093480A82EF93E390934A0A8093490A86E190E09093580A8093570A82E49AE00E9444660895FD0182818823F1F08091240990912509892B90912609892B90912709892B90912809892B90912909892B90912A09892B90912B09892B31F082E090E090935E0A80935D0AE091550AF091D7
S284006C00560A1582E091550AF091560A23813481CF010596F90109951092560A1092550A0895089508950895CF93DF93CDB7DEB721970FB6F894DEBF0FBECDBFFA01452B11F4FE01319610828091160983FF03C08FEF9FEF04C080913B0990913C0921960FB6F894DEBF0FBECDBFDF91CF91089540E050E062E00E94143608950895089520
S284006C80AC0120E030E067E011C0969FF00111248091FB0B9091FC0BE80FF91F838194814817590709F415822F5F3F4F922F8091FD0B281750F30895CB010E940E24FC01892B11F480E005C091898289891708F4892F992708958091FE0B8F5F8093FE0B815099270895AC0120E030E067E014C0969FF00111248091FB0B9091FC0BE80F84
S284006D00F91F808191814817590721F48281887F836082832F5F3F4F922F8091FD0B281738F30895AC0120E030E067E014C0969FF00111248091FB0B9091FC0BE80FF91F838194814817590721F48281887F836082832F5F3F4F922F8091FD0B281738F3089508950895EF92FF921F93CF93DF93AC01E0911E09F0911F0910911009809138
S284006D8011092091380930913909C0913609D091370962307105E1F5DF0111964A175B0770F12E0F3F1F4217530748F59927811B9109281B390B4217530760F560E01DC0862F99278C9F90018D9F300D9C9F300D11242A0F3B1F4217530770F001967C01EC9EC001ED9E900DFC9E900D11248E0F9F1F8417950750F46F5F611709F7EF2B82
S284006E0039F040913B0950913C0904C0A90102C04FEF5FEFCA01DF91CF911F91FF90EF9008950F931F93CF93DF93CDB7DEB721970FB6F894DEBF0FBECDBF8C011982AE014F5F5F4FFC016681828193810E9414369C01F80197818981892319F03583248306C0FFEF2F3F3F07C1F4992351F0B80181EE9BE00E94153B83E090E00E94283A4B
S284006E8012C080911809882341F0F80166817727828193810E94B3369C01F80135832483C8010E941D2E21960FB6F894DEBF0FBECDBFDF91CF911F910F91089581EE9BE00E940F3B1092F10B08950F931F9301EE1BE0C8010E94253B1092F10B0E941D2EC8010E94293B83E090E00E94283A1F910F9108950F931F9301EE1BE0C8010E9446
S284006F00253BFC011092F10B17820E941137C8010E94293B83E090E00E94283A1F910F9108950F931F93CF93DF93CDB7DEB721970FB6F894DEBF0FBECDBF8091F10B882309F04BC0198281EE9BE00E94253B8C01009709F442C0AE014F5F5F4FFC016681828193810E9414369C018F5F9F4FC9F4F801868199279093E80B8093E70B82814F
S284006F8093819093EA0B8093E90B8AE797E39093EE0B8093ED0B85EE9BE00E94123681E00BC08981882359F0F80166817727828193810E94517382E08093F10B0EC0F80135832483C8010E941D2E81EE9BE00E94293B83E090E00E94283A21960FB6F894DEBF0FBECDBFDF91CF911F910F9108950895089508959C0183309105A9F1843070
S284007000910518F4892B61F012C08530910509F44FC08530910578F1069709F054C04DC081E090E090935E0A80935D0A089582E090E090935E0A80935D0A64E279E08DE090E00E9456076EE179E08FE090E00E94560762E279E088E290E00E9456076AE379E087E290E021C080915D0A90915E0A029749F51DC084E090E090935E0A809388
S2840070805D0A10922409109225091092260910922709109228091092290910922A0910922B0964E279E08DE090E00E945607089530935E0A20935D0A089582E090E090935E0A80935D0A089520915D0A30915E0A84309105F1F08530910560F48130910541F18130910580F08230910569F0039749F429C08630910581F08630910548F144
S2840071000D9710F080E02AC080E02230310531F524C080E0232B11F120C0C90101970297E0F025303105C9F080E024303105B1F414C02230310589F02430310571F02330310559F003C02230310539F02530310521F080E02130310509F481E09927089580915F0A815080935F0A089580915F0A8F5F80935F0A089580915F0A99270895FC
S284007180089508950895089560E170E080911E0990911F090E94EE3808959C0180915D0A90915E0A0297C1F430931F0920931E0983E590E090936B0A80936A0A30936D0A20936C0A84EC98E39093750A8093740A87E69AE00E94366608950895CF93DF93CDB7DEB724970FB6F894DEBF0FBECDBF9A8389837C836B83CE0101960E941944AD
S28400720024960FB6F894DEBF0FBECDBFDF91CF9108959C0180913D0990913E09029729F463E170E0C9010E94EE3808959C0180913D0990913E09029719F469E070E002C060E070E0C9010E94EE380895089586EC9BE00E940F3B0895DC018D919C9111978B3E910511F0009729F4E091DF0BF091E00B0FC0813E910581F08091CA0B8F5F83
S2840072808093CA0B823048F0E091DF0BF091E00B8C91808782E08093CB0B81E090E00E94283A0895BC0186EC9BE00E94153B8091CB0B882321F481E090E00E94283A08958091CB0B8130F9F0813020F0823009F065C04EC086EC9BE00E94253B9093E00B8093DF0B892B09F459C086EC9BE00E94293B8AE090E00E946438882359F11092D4
S284007300CA0B81E02EC08AE090E00E946438882309F182E090E09093D00B8093CF0B80912209909123099093D20B8093D10B80913B0990913C099093D40B8093D30B8CE299E39093DC0B8093DB0B8CEC9BE00E942F660895E091DF0BF091E00B82EC808782E08093CB0B81E090E00E94283A08951092CB0BE091DF0BF091E00B26813781F9
S284007380CF010896F901099586EC9BE00E94253B892B21F081E090E00E94283A0895EF92FF920F931F932091590A30915A0A40915B0A50915C0A91E0E92EF12C012D112D60E070E0E4E7F2E0DA01C9018E219F21A023B1230097A105B10589F02E253F25402751272093590A30935A0A40935B0A50935C0A0190F081E02D09950BC0329657
S2840074006F5F7F4F6131710529F0EE0CFF1C001F111FDACF8091590A90915A0AA0915B0AB0915C0A0097A105B10569F02FB7F89433278091560C9091570C88609093570C8093560C2FBF1F910F91FF90EF90089521E030E040E050E004C0220F331F441F551F8A95D2F78091590A90915A0AA0915B0AB0915C0A822B932BA42BB52B809362
S284007480590A90935A0AA0935B0AB0935C0A2FB7F89433278091560C9091570C88609093570C8093560C2FBF08951092590A10925A0A10925B0A10925C0A08950895089508950895CF93DF93CDB7DEB721970FB6F894DEBF0FBECDBF19820E94165C8230910561F08330910518F4892B99F015C08330910539F0049781F408C08981887F0A
S28400750082600EC08981887F83600AC08981887F846006C08981887F03C08981887F8160898369816F7C6061698383E00E94EF3A21960FB6F894DEBF0FBECDBFDF91CF9108950E94095C8FEF0E94245C8FEF0E94245C0E94075C86E00E94245C0E942B5C68E082E00E94EF3A8FEF0E94245C8FEF0E94245C81E00E94FB3A8F718830D1F786
S2840075800E94623A60E08EE00E94EF3A0E94EF5B0E94F85B0E94FB5B08951F93CF93DF93EC01162F289880E601C089910E94385C1150D8F7289ADF91CF911F9108951F93CF93DF93EC01162F04C080E20E94385C89931150D0F7DF91CF911F9108951F93162F2898806C0E94385C812F0E94385C289A1F9108951F932898182F1F73106855
S284007600812F0E94385C812F0E94385C289A99271F910895289880E20E94385C0895FC0111821082938382830895CF93DF93FC01DB0182819381EC0179836883738362831D921C92DF91CF910895FC01808191810895FC01A081B181109719F480E090E008958D919C9191838083892B19F081E090E0089511821082F383E28381E090E0E2
