:100000000C94BA010C94EA010C94EA010C94EA01F4
:100010000C94EA010C94DD6B0C943C670C94EB643B
:100020000C947F640C94EA010C94EA010C94EA01AC
:100030000C94EA010C94F3690C94EA010C94EA0123
:100040000C94EA010C9457650C94EA010C94EA01B3
:100050000C94EA010C94EA010C94EA010C94EA0174
:100060000C94EA010C948A6C0C94296B0C94566BDA
:100070000C94EA010C9438630C94DA210C94EA0194
:100080000C94EA010C94EA010C94EA010C94EA0144
:100090000C944D6C0C94836B0C94B06B0C94CF6CE3
:1000A0000C94EA010C94EA010C9492210C94EA015C
:1000B0000C94EA010C94EA010C94EA010C94EA0114
:1000C0000C94EA010C94EA010C94EA01110813085B
:1000D00015088D08290829088D08290829082B08E2
:1000E0002E087908310834084C0800089C08650877
:1000F0006E0871080808F807FB0779087B08800874
:1001000080088008170820080508820885088808E4
:100110008B088B088D088F089F08A208A508AC08DB
:10012000D209CE09290AD6098909620923092B09AE
:10013000B409C2093B09DA092F093309290A290A36
:10014000290A290A290AE809F609B009C609CA09CB
:10015000040A290A290A290A1C0A080A0C0A100A90
:10016000180A8F2A532A5D2A672A622A6C2A712A62
:10017000762A7B2A802A852A502A502A502A502AF9
:100180009E2A502A502A502A502AA82A502A8A2ABF
:10019000992A502A502A942AA32A502A502A502AAF
:1001A000502A502A502A502A502A502A502A502A7F
:1001B000502A502A502AAD2AB22AB72ABC2AC12A6C
:1001C000502AC62A3E3C7B3C9E3CA13CB23CB53CFE
:1001D000E13CE43CF33CA33DC23DF63C0B3D0E3D0F
:1001E000243D273D3E3D413D563D683DA03DCD3D32
:1001F000F23DF23D38B0C7AF84B084B084B0CEAF2A
:10020000D3AF47B084B0D6AFD9AFF2AFF7AF84B0B9
:10021000FAAFFDAF00B084B005B008B047B00DB084
:100220002CB041B084B02FB032B0CBAF35B035B0C8
:1002300047B047B047B047B047B047B047B047B006
:1002400047B047B047B047B047B047B047B047B0F6
:1002500047B012B047B084B084B084B084B084B0EA
:1002600084B084B084B084B084B084B084B084B0EE
:1002700084B047B044B0F3B1FEB0F6B1F6B1F6B118
:1002800003B10BB1F6B1F6B113B118B132B13AB155
:10029000F6B13FB147B151B1F6B159B15EB1F6B166
:1002A00066B188B19AB1F6B18DB195B1F3B1F3B140
:1002B000F3B1A4B1A4B1A4B1A4B1A4B1A4B1A4B147
:1002C000A4B1A4B1A4B1A4B1A4B1A4B1A4B1A4B186
:1002D000A4B1A4B16EB1A4B1F6B1F6B1F6B1F6B164
:1002E000F6B1F6B1F6B1F6B1F6B1F6B1F6B1F6B1D6
:1002F000F6B1F6B1A4B19FB1130E111216151E1F5F
:10030000200F10260AABAE000008000800080010FD
:10031000000400140001001500020017000100187D
:10032000000100190001001A0001001B0002001D5D
:100330000001001E0001001F000400230002002530
:100340000001002E11F1600000E61E000000000018
:100350000002400305000000010864000C01640075
:100360000000FFFFFFFFFFFFFFFFE80300000203A5
:10037000040506008091FA1C823111F084B701C097
:1003800081E18093FA1C14BE8091600088618093A3
:1003900060001092600011241FBECFEFD1E2DEBFDB
:1003A000CDBF14E0A0E0B2E0E8E2F1E801E00BBF6D
:1003B00002C007900D92A033B107D9F71CE1A0E36A
:1003C000B4E001C01D92AA3FB107E1F70E94662484
:1003D0000C9492C00C9400007F937FB7F8949D9A80
:1003E000A5988AEF0E944B028AEF0E944B029D98CB
:1003F00086E40E944B0281E0959980E08F9380EF24
:100400000E944B028F917FBF7F9108957F937FB7AA
:10041000F8949D9AA59882E00E944B029D988AE0EC
:100420000E944B02889495990894881F8F9384E6C4
:100430000E944B028F917FBF7F9108959F937F937E
:1004400098E00E940602879577959A959923C9F7B7
:10045000872F7F919F9108957F937FB7F894A598F8
:100460009D9A8F9382E00E944B028F91879508F4AA
:100470009D988F9384E60E944B028F919D987FBF39
:100480007F9108959F9398E00E942C029A9599235A
:10049000D9F79F9108958A958823E9F708950F93D6
:1004A000DF93CF93CDB7DEB760970FB6F894DEBF7A
:1004B0000FBECDBF002309F459C029833A834B8373
:1004C0005C836D837E838F839887E0E2E01B2D81C0
:1004D0003E814F8158851E16BCF01D861E861F86E4
:1004E000188A8E2F992787FD9095909581959F4F1B
:1004F00004C056954795379527958A95D2F7298751
:100500003A874B875C872AC0CA01B901002E04C014
:1005100096958795779567950A94D2F76D877E872C
:100520008F87988BDA01C90104C0880F991FAA1F11
:10053000BB1FEA95D2F729813A814B815C8104C0C7
:1005400056954795379527950A95D2F7822B932B89
:10055000A42BB52B89879A87AB87BC8729853A85D9
:100560004B855C856D857E858F85988960960FB6F5
:10057000F894DEBF0FBECDBFCF91DF910F910895EC
:1005800080914E03882319F0815080934E032FB73A
:10059000F894809110179091111792609093111711
:1005A000809310172FBF089510925E041092850457
:1005B000109284042E98FC0160817181613D710567
:1005C00089F0623D710520F46115710541F015C097
:1005D000693E710579F0603F710579F408C080E0EB
:1005E00092E002C087E092E00E9486070AC086E19E
:1005F00092E0FACF81E292E0F7CF80E392E00E94AE
:1006000052072FB7F89480911017909111179260AC
:1006100090931117809310172FBF0895FC016785E1
:1006200070896115710509F582E090E090933104BD
:10063000809330041092330410923204608185E478
:1006400092E070E00E9452078AE393E090933804AE
:100650008093370486E493E090933A0480933904BE
:1006600084E394E00E94851104C082E692E00E9437
:1006700052072FB7F894809110179091111792603C
:1006800090931117809310172FBF0895EF92FF9248
:100690000F931F93CF93DF93EC01809130049091DF
:1006A00031048230910509F04AC02F9A0F8D18A1AC
:1006B0008DB79EB70C970FB6F8949EBF0FBE8DBF37
:1006C000EDB7FEB731968BE3E82E84E0F82EADB798
:1006D000BEB71296FC92EE92119785E792E0938353
:1006E00082838F85988995838483D8018C918683B2
:1006F000178211968C91808711868AA5992787FD8C
:100700009095938782870E9497BDEDB7FEB73C9680
:100710000FB6F894FEBF0FBEEDBFC7010E9486075B
:10072000D8018C91813041F480915E04882321F4BA
:100730008F8580935E0402C010925E042F982FB7BD
:10074000F89480911017909111179260909311175F
:10075000809310172FBFDF91CF911F910F91FF90C2
:10076000EF900895BF92CF92DF92EF92FF920F9396
:100770001F93DF93CF93CDB7DEB7C15BD0400FB6E9
:10078000F894DEBF0FBECDBFE0903004F09031048E
:1007900081E0E816F10409F45DC091E0E916F10486
:1007A00030F0A2E0EA16F10409F084C161C085E5E9
:1007B0008A878B871C861D861E861F86188A198A43
:1007C00083E190E0BE01665F7F4F0E941409259A85
:1007D000269A279A2D9A2E9A2F9A80E098E0A0E0E8
:1007E000B0E080935F0490936004A0936104B093A1
:1007F000620481E190E06FE574E00E9414090E94B8
:10080000040686E493E00E94860788E992E00E944D
:10081000860784E690E0A0E0B0E0809369049093BE
:100820006A04A0936B04B0936C0410926E0410924F
:100830006D0480EC92E09093700480936F0483E6E3
:1008400094E00E94B70F81E090E090933104809390
:100850003004A3C02D982E982F988EE093E09093AB
:1008600083048093820481E794E00E94CD5922C1E1
:100870002D9A00913204109133040115110529F0CD
:100880000130110509F016C195C080915E048823DE
:1008900091F081E090E090933304809332042FB77D
:1008A000F8948091101790911117926090931117FE
:1008B000809310172FBF80914E03882309F06DC0DD
:1008C0008EE180934E03CE0101960E947E536A8191
:1008D0008CEA92E070E00E945207CE0142969D831E
:1008E0008C83CE0103960E94D0538B81882309F418
:1008F00054C0BB2476E0E72EF12CEC0EFD1E0BE37A
:1009000014E06AEBC62E62E0D62E43C08B2D90E039
:100910009C01220F331F43E0880F991F4A95E1F78E
:10092000280F391FEC81FD81E20FF31F8081918137
:100930009F838E83C7010E94D254EDB7FEB73A97CA
:100940000FB6F894FEBF0FBEEDBF3196ADB7BEB780
:1009500012961C930E931197D382C2828E819F812F
:10096000958384838985992787FD909597838683CE
:100970008885808711860E9497BDEDB7FEB73A96AD
:100980000FB6F894FEBF0FBEEDBFC8010E948607E8
:10099000B3948B81B81608F4B9CF2FB7F89480912F
:1009A0001017909111179260909311178093101760
:1009B0002FBF80C02F982E9A1092330410923204C9
:1009C0008091840490918504009709F073C010937E
:1009D00085040093840400D000D000D0EDB7FEB7AA
:1009E00031969BE3C92E94E0D92EADB7BEB71296CF
:1009F000DC92CE92119781ED92E093838283809175
:100A00005E04848315820E9497BDEDB7FEB73696CB
:100A10000FB6F894FEBF0FBEEDBFC6010E94860759
:100A200081E08093B4048091AD129091AE12A091B8
:100A3000AF12B091B0128093B5049093B604A09316
:100A4000B704B093B804F092BC04E092BB048DEB01
:100A500094E020915E042093BD04DC0111961C9269
:100A600042E04093C70420913B0330913C03309314
:100A7000C9042093C8041093CB040093CA04409384
:100A8000CC0425E02093CD0424EB34E03093CF0454
:100A90002093CE042091D0042B7F2093D004109279
:100AA000D10424ED32E03093D3042093D204049790
:100AB0000E94D81DCF54DF4F0FB6F894DEBF0FBE93
:100AC000CDBFCF91DF911F910F91FF90EF90DF90FD
:100AD000CF90BF900895DF93CF93CDB7DEB76197E6
:100AE0000FB6F894DEBF0FBECDBFFC0160817181EF
:100AF0006039710531F16139710538F46E3871056D
:100B0000A9F16F387105B9F50AC06239710521F193
:100B10006239710578F06339710569F522C088ED95
:100B200092E00E948607198A188ACE0101960E94D7
:100B30000E0325C081E090E090933104809330044F
:100B40001EC081E090E09093310480933004628174
:100B5000738182EF92E011C0628173818BE093E038
:100B60000CC0628173818FE093E007C083E193E062
:100B70000E94860704C083E293E00E9452072FB7C9
:100B8000F89480911017909111179260909311171B
:100B9000809310172FBF61960FB6F894DEBF0FBE7B
:100BA000CDBFCF91DF910895089508950895EF92F4
:100BB000FF921F93CF93DF931091DA041123E1F09A
:100BC000CBEDD4E02FE335E0CE01B901412F50E069
:100BD0000E9487BD83E697E1BE01412F0E946450C9
:100BE000181619065CF42091DA04281B2093DA0405
:100BF00081E08093A30502C01092A305DF91CF91FD
:100C00001F91FF90EF9008951092A30582E08093CA
:100C1000631710926517109264178CE090E0909320
:100C200067178093661786E090E09093691780932A
:100C3000681710926B1710926A1710926D17109226
:100C40006C1784EA95E0909373178093721782E390
:100C500090E0909375178093741710927717109205
:100C60007617109279171092781710927B171092BE
:100C70007A1787ED95E090937D1780937C171092FB
:100C80007E1783E697E10E94FA5108950F931F9310
:100C9000482F792F162F0091DA04202F30E0F90128
:100CA000E60FF11DE436F1055CF4215C3A4FC90111
:100CB000642F412F50E00E9487BD100F1093DA047B
:100CC0008091A305882311F40E94D7051F910F91ED
:100CD0000895CF93DF9300D000D000D0EDB7FEB7DA
:100CE0003196C6EDD5E0ADB7BEB71296DC93CE9384
:100CF00011972FE433E033832283848315820E948B
:100D000097BD682F80931206909313068DB79EB7F8
:100D100006960FB6F8949EBF0FBE8DBFCE010E94FF
:100D20004606DF91CF910895CF93DF9300D000D096
:100D300000D0EDB7FEB73196C6EDD5E0ADB7BEB782
:100D40001296DC93CE9311972AE533E03383228306
:100D5000848315820E9497BD682F8093120690931A
:100D600013068DB79EB706960FB6F8949EBF0FBEBA
:100D70008DBFCE010E944606DF91CF910895CF939B
:100D8000DF9300D000D000D0EDB7FEB73196C6EDAE
:100D9000D5E0ADB7BEB71296DC93CE93119724E69B
:100DA00033E033832283958384830E9497BD682F29
:100DB00080931206909313068DB79EB706960FB6D2
:100DC000F8949EBF0FBE8DBFCE010E944606DF91F4
:100DD000CF910895CF93DF932DB73EB72850304081
:100DE0000FB6F8943EBF0FBE2DBFEDB7FEB73196DC
:100DF000C6EDD5E0ADB7BEB71296DC93CE93119792
:100E00002EE633E03383228395838483778366835E
:100E10000E9497BD682F80931206909313062DB7FA
:100E20003EB7285F3F4F0FB6F8943EBF0FBE2DBFB1
:100E3000CE010E944606DF91CF910895CF93DF93B4
:100E40002DB73EB7285030400FB6F8943EBF0FBEC6
:100E50002DBFEDB7FEB73196C6EDD5E0ADB7BEB745
:100E60001296DC93CE9311972AE733E033832283E3
:100E700095838483668317820E9497BD682F809331
:100E80001206909313062DB73EB7285F3F4F0FB65B
:100E9000F8943EBF0FBE2DBFCE010E944606DF91E3
:100EA000CF910895CF93DF932DB73EB728503040B0
:100EB0000FB6F8943EBF0FBE2DBFEDB7FEB731960B
:100EC000C6EDD5E0ADB7BEB71296DC93CE931197C1
:100ED00026E833E033832283958384837783668394
:100EE0000E9497BD682F80931206909313062DB72A
:100EF0003EB7285F3F4F0FB6F8943EBF0FBE2DBFE1
:100F0000CE010E944606DF91CF910895CF93DF93E3
:100F100000D000D000D0EDB7FEB73196C6EDD5E0D9
:100F2000ADB7BEB71296DC93CE9311972EE833E09F
:100F300033832283958384830E9497BD682F809397
:100F40001206909313068DB79EB706960FB6F894C7
:100F50009EBF0FBE8DBFCE010E944606DF91CF918E
:100F60000895CF93DF932DB73EB7285030400FB68A
:100F7000F8943EBF0FBE2DBFEDB7FEB73196C6ED5C
:100F8000D5E0ADB7BEB71296DC93CE93119723E9A7
:100F900033E03383228384831582668317820E9421
:100FA00097BD682F80931206909313062DB73EB716
:100FB000285F3F4F0FB6F8943EBF0FBE2DBFCE0146
:100FC0000E944606DF91CF910895CF93DF93EB0106
:100FD000209709F4C4C08A32910508F0C0C08A592C
:100FE0009F4FFC01EE0FFF1F0590F491E02D099437
:100FF00080912706B3C08091280690912906A9C048
:1010000080911C0690911D06A4C08091AA03A6C0E1
:101010008091B0039091B103A091B203B091B3035A
:1010200086C08BE09BC08AE099C0188298C08091EE
:101030002F0690913006A0913106B091320677C00C
:101040008091B4039091B503A091B603B091B7031A
:101050006EC082E083C08091AE0380C08091AD03FA
:101060007DC08091AF037AC08091140688838091FF
:1010700015068983809116068A83809117068B83D3
:10108000809118068C83809119068D8380911A06B1
:101090008E8380911B0617C080919E038883809168
:1010A0009F0389838091A0038A838091A1038B830E
:1010B0008091A2038C838091A3038D838091A403EC
:1010C0008E838091A5038F834AC08091A60390915F
:1010D000A703A091A803B091A90329C080911E067F
:1010E0003DC0EFE1F6E088E0019009928150E1F720
:1010F00036C085E033C08CE690E0A0E0B0E017C0D9
:1011000081E02CC08091AB0329C080912A0626C0C3
:101110008091330623C088E221C083E01FC0809104
:10112000B9039091BA03A091BB03B091BC0388832B
:101130009983AA83BB8313C08091AC030FC08091B5
:101140002B060CC080912C0609C080912D06909131
:101150002E069983888303C08091B8038883DF912A
:10116000CF910895FB018630910509F440C0873086
:101170009105A0F48230910571F18330910538F426
:10118000009719F18130910509F04BC021C08430DE
:10119000910539F18530910538F520C08A309105E7
:1011A00091F18B30910538F48830910531F1893017
:1011B000910530F51FC08C30910559F18C309105A7
:1011C00028F18D30910569F527C084E396E026C0AB
:1011D0008BE798E023C089EE98E020C085EA9AE08A
:1011E0001DC089EE9AE01AC085E49BE017C08FE22B
:1011F0009DE014C080E09EE011C08DEF9EE00EC027
:1012000080E29FE00BC083EA9FE008C087EA9FE08E
:1012100005C08FEB90E102C087E792E19183808364
:101220000895118210820895DB01FC013997E132A3
:10123000F10508F00EC1E057FF4FEE0FFF1F0590BC
:10124000F491E02D09948D919C91119790931D0636
:1012500080931C0608958C918093AC0308958C9123
:101260008093270608958D919C911197909329065C
:101270008093280608958C9180931F0611968C9177
:1012800011978093200612968C91129780932106D5
:1012900013968C9113978093220614968C91149731
:1012A0008093230615968C911597809324061696A5
:1012B0008C9116978093250617968C91179780939B
:1012C000260608958C9180939E0311968C91119718
:1012D00080939F0312968C9112978093A00313968C
:1012E0008C9113978093A10314968C9114978093FB
:1012F000A20315968C9115978093A30316968C9153
:1013000016978093A40317968C9117978093A50343
:1013100008958C918093140611968C911197809367
:10132000150612968C9112978093160613968C913F
:1013300013978093170614968C9114978093180630
:1013400015968C9115978093190616968C91169781
:1013500080931A0617968C91179780931B06089511
:101360008C918093AA0308958D919D910D90BC91CD
:10137000A02D8093A6039093A703A093A803B093F6
:10138000A90308958C9180931E0608958C918093F3
:10139000AB0308958C9180932A0608958C918093D5
:1013A000AD0308958C918093AE0308958C91809342
:1013B000AF0308958D919D910D90BC91A02D8093C8
:1013C000B0039093B103A093B203B093B303089515
:1013D0008D919D910D90BC91A02D80932F0690939F
:1013E0003006A0933106B093320608958D919D91F9
:1013F0000D90BC91A02D8093B4039093B503A0935E
:10140000B603B093B70308958C9180933306089583
:101410008C9180932B0608958C9180932C060895CF
:101420008D919C91119790932E0680932D0608958F
:101430008C918093B80308958D919D910D90BC91EE
:10144000A02D8093B9039093BA03A093BB03B093EC
:10145000BC0308950E94CF0C0895109214061092B8
:101460001506109216061092170610921806109282
:10147000190610921A0610921B068AEA80939E03A0
:1014800080939F038093A0038093A1038093A20382
:101490008093A3038093A4038093A50310921D0659
:1014A00010921C0680E090E0A1E0B0E08093A603DB
:1014B0009093A703A093A803B093A90310921E06CC
:1014C00010921F06109220061092210610922206FA
:1014D00010922306109224061092250610922606DA
:1014E00010922706109229061092280681E0809318
:1014F000AA0393E09093AB0310922A068093AC0367
:1015000010922B0610922C0610922E0610922D0689
:10151000089502C00E946C4E0E9423208823D1F7B8
:101520000895CF92DF92EF92FF920F931F93DF9374
:10153000CF93CDB7DEB727970FB6F894DEBF0FBEB7
:10154000CDBF8C0119820097C9F1FC0110821B826A
:101550001A8281E090E09F838E837E010894E11CD3
:10156000F11C82E0C82ED12CCC0EDD1E1FC0FD82E6
:10157000EC820E94890AC60160E070E00E94E320CC
:10158000FFEF8F3F9F0731F481E090E0F8019483F3
:10159000838314C00E94890AF80180819981890F90
:1015A00080838A819B8101969B838A838A819B8128
:1015B00086329105E0F2F8011482138227960FB665
:1015C000F894DEBF0FBECDBFCF91DF911F910F9179
:1015D000FF90EF90DF90CF900895EF92FF920F93DE
:1015E0001F93DF93CF9300D000D000D0CDB7DEB7EC
:1015F0008C010097B9F186E290E09A83898381E0BB
:1016000090E09E838D837E010894E11CF11C1EC036
:101610001C830B830E94890AC70160E070E00E946E
:10162000E3202FEF8F3F920731F481E090E0F80143
:101630009483838317C00E94890AF80120818981DD
:101640009A812F3F59F401969A83898389819A81DF
:1016500080339105E8F286E290E0F801928381837D
:101660001482138226960FB6F894DEBF0FBECDBF4C
:10167000CF91DF911F910F91FF90EF900895DF932D
:10168000CF93CDB7DEB761970FB6F894DEBF0FBE2C
:10169000CDBF8FEF8983CE0102960E94ED0A8D8126
:1016A0009E818130910509F44BC0CE0107960E94BE
:1016B000910A8A859B858130910509F441C09F81FB
:1016C0008A81890FD1F191959F838B819C819D8720
:1016D0008C87CE0101969F878E8781E090E0998B61
:1016E000888B0E94890ACE010C966CEA7BE00E94EE
:1016F00063202FEF8F3F920719F10E94890A8C8592
:101700009D8501969D878C878033910520F086E228
:1017100090E09D878C87CE0107969F878E870E94D9
:10172000890ACE010C966CEA7BE00E9463202FEFC1
:101730008F3F920729F00E94890A20E030E002C022
:1017400021E030E0C90161960FB6F894DEBF0FBE0C
:10175000CDBFCF91DF9108950895BF92CF92DF92D0
:10176000EF92FF920F931F93DF93CF93CDB7DEB726
:101770006C970FB6F894DEBF0FBECDBF10928E17D8
:10178000DD248E01035F1F4F7E010894E11CF11CD4
:1017900082E0B82ECC24C3948D2D0E940C0F809132
:1017A0008E17882329F4109392170093911709C07C
:1017B000813039F480918D1790E061E977E10E94E2
:1017C000B20880918E17823069F480918D178B83D7
:1017D0001C82C7010E94D32A2B853C853093921727
:1017E000209391170E94890A8FE897E160E070E0EA
:1017F0000E94E3202FEF8F3F920701F10E94890A98
:1018000080918E17882331F480918D1790E0B80174
:101810000E941409D3948D2D8C3019F4C0928E1728
:10182000BBCF2D2D2D3019F4B0928E17B5CF8D2D45
:101830008F3008F4B1CF20E030E002C021E030E08A
:10184000C9016C960FB6F894DEBF0FBECDBFCF9125
:10185000DF911F910F91FF90EF90DF90CF90BF909D
:101860000895CF92DF92EF92FF920F931F93DF9331
:10187000CF93CDB7DEB765970FB6F894DEBF0FBE36
:10188000CDBF0E942D0ACC2426E0E22EF12CEC0ED6
:10189000FD1E8C2D0E940C0F80918D1790E0B701DA
:1018A0000E94E50701E917E1F0929217E092911783
:1018B0000E94890AC80102976CEA7BE00E946320BB
:1018C0002FEF8F3F920709F458C00E94890AC394F2
:1018D0008C2D8C30F1F6C7016FEF70E04AE050E0DC
:1018E0000E9490BDF0929217E092911796E2C92E55
:1018F000D12CD0929017C0928F178AE090E0F80117
:10190000938382830E94890AC80102976CEA7BE074
:101910000E946320FFEF8F3F9F0779F10E94890AA1
:101920007E010894E11CF11CC7010E94910A8C8180
:101930009D818130910509F1898181958983D092BA
:101940009017C0928F17F0929217E092911781E052
:1019500090E0F801938382830E94890AC80102976C
:101960006CEA7BE00E946320FFEF8F3F9F0729F026
:101970000E94890A20E030E002C021E030E0C90185
:1019800065960FB6F894DEBF0FBECDBFCF91DF9145
:101990001F910F91FF90EF90DF90CF900895DF930C
:1019A000CF93CDB7DEB72A970FB6F894DEBF0FBE40
:1019B000CDBFCE0106960E94910A89859A85813015
:1019C000910509F1CE0101960E94ED0A8C819D815D
:1019D00081309105C1F089819E81890F51F40E9467
:1019E000AD0B8130910579F00E94C30D20E030E00D
:1019F0000CC00E94310C8130910529F00E94C30D6A
:101A000022E030E002C021E030E0C9012A960FB6A2
:101A1000F894DEBF0FBECDBFCF91DF9108958091C6
:101A20009B12882349F48FE797E10E94930F0E944D
:101A3000780F02C00E946C4E80919B128130D1F3CE
:101A400008950F931F93DF93CF9300D000D000D061
:101A5000CDB7DEB78901C0969A8389835E834D83B3
:101A60007C836B8302C00E946C4E80919B128130FC
:101A7000D1F30115110511F40CEA1BE00E94890A4B
:101A8000CE010196B8010E94E3202FEF8F3F92070D
:101A900039F08BE00C3A180731F40E94890A03C030
:101AA00021E030E002C020E030E0C90126960FB608
:101AB000F894DEBF0FBECDBFCF91DF911F910F9184
:101AC00008950F931F93DF93CF9300D000D000D0E1
:101AD000CDB7DEB78901C0969A8389835E834D8333
:101AE0007C836B8302C00E946C4E80919B1281307C
:101AF000D1F30115110511F40CEA1BE00E94890ACB
:101B0000CE010196B8010E9463202FEF8F3F92070C
:101B100039F08BE00C3A180731F40E94890A03C0AF
:101B200021E030E002C020E030E0C90126960FB687
:101B3000F894DEBF0FBECDBFCF91DF911F910F9103
:101B4000089590938C1780938B17662329F480EE69
:101B500093E9A4E0B0E004C082E390E0A0E0B0E04C
:101B60008093851790938617A0938717B093881753
:101B700081E090E090938A17809389178FE797E12F
:101B80000E94B70F089510928E1788E79FE060E0DB
:101B90000E94A10D0895EF92FF920F931F93DF9380
:101BA000CF93CDB7DEB760970FB6F894DEBF0FBE08
:101BB000CDBF7E010894E11CF11CF0929217E092D7
:101BC00091170DE912E180918D1790E0B8010E9404
:101BD000E5070E94890A8FE897E160E070E00E94C3
:101BE000E3200E94890A4091931750919417C801ED
:101BF000B7010E947ABD009761F01093921700938D
:101C000091178FE897E168E77FE00E94632081E009
:101C100001C080E060960FB6F894DEBF0FBECDBF66
:101C2000CF91DF911F910F91FF90EF900895AF92A8
:101C3000BF92CF92DF92EF92FF920F931F93DF93A9
:101C4000CF9300D00F92CDB7DEB7CE01019690931F
:101C5000921780939117C0909317D0909417A090EB
:101C60008F17B090901781E090E090939417809335
:101C7000931780918D1790E0BE016E5F7F4F0E9499
:101C8000B20800E010E031C00E94890A8FE8E82E17
:101C900087E1F82EC70160E070E00E94E3200E9417
:101CA000890A8A819B81FC01E00FF11F3081298123
:101CB000321781F0F70193838283D582C482B09278
:101CC0009017A0928F17C70168E77FE00E946320FA
:101CD00081E00FC080918F1790919017019690939B
:101CE000901780938F170F5F1F4F0C151D0560F223
:101CF00080E00F900F900F90CF91DF911F910F9187
:101D0000FF90EF90DF90CF90BF90AF9008956F92CB
:101D10007F928F929F92AF92BF92CF92DF92EF927B
:101D2000FF920F931F93DF93CF93CDB7DEB72D971D
:101D30000FB6F894DEBF0FBECDBFCE0101969093D3
:101D400092178093911780909317909094176090BA
:101D50008F177090901781E090E090939417809384
:101D6000931780918D178C831D82CE0102960E945D
:101D7000D32A3C852D85A32EB22EA114B104B1F136
:101D8000C901C92ED82EEE24FF242DC00E94890A35
:101D90000FE817E1C80160E070E00E94E3200E94B4
:101DA000890AF60191916F018981981781F0F801F4
:101DB000B382A282958284827092901760928F176C
:101DC000C80168E77FE00E94632081E010C0809135
:101DD0008F179091901701969093901780938F177B
:101DE0000894E11CF11CE814F90480F280E02D96BF
:101DF0000FB6F894DEBF0FBECDBFCF91DF911F911C
:101E00000F91FF90EF90DF90CF90BF90AF909F9099
:101E10008F907F906F9008950F931F93DF93CF93D0
:101E200000D000D0CDB7DEB7082F10E0B801685061
:101E30007D4F8DE897E141E050E00E9471BDB8010F
:101E4000660F771F660F771F695F7C4FCE01019683
:101E500044E050E00E9471BD89819A81909390176F
:101E600080938F178B819C81909394178093931705
:101E70000F900F900F900F90CF91DF911F910F91C6
:101E8000089580919C120E940C0F80918E178823D8
:101E900021F40E94CB0D882339F580918E17813073
:101EA00021F40E94170E8823F9F480918E17823056
:101EB00021F40E94870E8823B9F480919C128F5FD1
:101EC00080939C128C3011F481E003C08D3029F492
:101ED00082E080938E1780E008958F3039F410925D
:101EE0009C1283E080938E1781E0089580E008952E
:101EF00081E080939B120E94410F8823E1F380913F
:101F00008E17833079F40E943F0B8130910531F4B4
:101F100088E79FE061E00E94A10D08950E94C30D33
:101F200010929B120895CF93DF93EC01892BD1F08F
:101F30008091B1129091B2128C179D0719F460E054
:101F400070E008C0BE0181EB92E10E94974EBC0197
:101F5000892B41F0AE0181EB92E10E947B4E80E043
:101F600090E002C08FEF9FEFDF91CF910895CF9364
:101F7000DF93EC01892B71F0E091B112F091B21274
:101F800006C0EC17FD0751F10190F081E02D30976C
:101F9000C1F703C08FEF9FEF23C08FB7F894992745
:101FA0002091AD123091AE124091AF125091B0120B
:101FB0008FBF198218828E819F81A885B985820F73
:101FC000931FA41FB51F8A839B83AC83BD83BE016F
:101FD00081EB92E10E946F4E0E94492180E090E0E7
:101FE000DF91CF910895CF92DF92EF92FF920F93FE
:101FF0001F93CF93DF93C091B112D091B2126E01B3
:1020000038C08FB7F89499272091AD123091AE1255
:102010004091AF125091B0128FBFEA80FB800C81CB
:102020001D812E153F0540075107F8F08A859B85D5
:10203000019739F4AE01B60181EB92E10E947B4E2B
:102040000CC08E819F81A885B985E80EF91E0A1FF4
:102050001B1FEA82FB820C831D83EC85FD8509959D
:102060008091B1129091B21203C0888199816E0162
:10207000EC01209731F6DF91CF911F910F91FF90E6
:10208000EF90DF90CF9008956091BB127091BC12D9
:102090008091BD129091BE120895CF93DF93982F37
:1020A000A091BD03B091BE0303C00D90BC91A02DC3
:1020B000109731F0ED01EB81FC8180819817A9F731
:1020C000CD01DF91CF910895CF93DF93282F809199
:1020D000BD039091BE032F3F99F0DC0103C00D902A
:1020E000BC91A02D1097C1F0ED01EB81FC818081A6
:1020F0002817A9F761708A818E7F862B8A830CC08E
:10210000FC01617007C082818E7F862B82830190E3
:10211000F081E02D3097B9F7DF91CF91089580914C
:10212000BD039091BE03089561E00E94641008957C
:1021300060E00E94641008951092B4121092B312DD
:102140001092B5121092B6121092B7121092B812E5
:102150000895A091B312B091B412109731F0ED919F
:10216000FC911197CD01029609950895009729F4E5
:102170008DEB93E00E945B4C08950E949A4C089569
:10218000CF93DF93EC011B821A829093B412809359
:10219000B3120E94101F0397B9F484E090E00E94EC
:1021A000031F8091AD129091AE12A091AF12B09129
:1021B000B0128093BB129093BC12A093BD12B09347
:1021C000BE120E94301404C083EA90E09B838A838D
:1021D0001092B5121092B6121092B7121092B81255
:1021E00080E090E00E94C41F8091B5129091B612D9
:1021F000A091B712B091B81283608093B5129093FA
:10220000B612A093B712B093B812DF91CF91089590
:1022100080959095AA27BB272091B5123091B612D0
:102220004091B7125091B81282239323A423B5236F
:102230008093B5129093B612A093B712B093B812D0
:102240000097A105B10549F480E00E94E21D85E0F8
:1022500090E00E94031F0E94A91008950E94101F81
:10226000059721F00E94101F049721F480E090E070
:102270000E9408110895CF93DF93EC011B821A820C
:102280000E94101F8230910511F0059729F483E018
:1022900090E00E94031F04C083EA90E09B838A833E
:1022A0000E94A213E881F981CE0102960995DF917F
:1022B000CF9108950F931F938C0162E070E08CE83A
:1022C0000E9420201093BA120093B91281E090E08E
:1022D0000E94031FF80180818093C11288EC91E174
:1022E0009093C3128093C2128FEB92E10E940D3C37
:1022F0001F910F9108950E94F83B8DEB93E00E948F
:10230000454C80E00E94F2600895CF93DF93EC018A
:10231000EB81FC819081892F8150803FD0F4A09186
:10232000BD03B091BE0303C00D90BC91A02D1097CA
:1023300041F0FD0123813481F90180819817A1F7D3
:1023400008C08A818E7F8A83BE018DEB93E00E9454
:102350004B4CDF91CF910895CF93DF93FC01908197
:10236000A091BD03B091BE0303C00D90BC91A02D00
:10237000109759F0ED01EB81FC8180819817A9F746
:10238000BD018DEB93E00E94774CDF91CF910895D2
:102390001F93CF93DF93EC010E94151F892B11F03F
:1023A0000E94231710E0E091B912F091BA128081D7
:1023B000813009F411E0812F0E94411F1092B41264
:1023C0001092B3121092B5121092B6121092B71268
:1023D0001092B812812F0E945B1F812F0E94F26021
:1023E000812F0E94E21DE091B912F091BA12808112
:1023F000882319F482E090E002C083E090E00E941C
:10240000031FE091B912F091BA1288819927948341
:10241000838321813281CF010396F90109951092BE
:10242000BA121092B912DF91CF911F910895809145
:10243000CA128F5F8093CA128150992708958091A4
:10244000C9128F5F8093C912815099270895FF9216
:102450000F931F93182F6091D0122091D5123091B5
:10246000D61290E0FF248BC082E2989FA001112435
:10247000F901E40FF51F8081882309F07DC0123037
:1024800020F0123009F07EC016C09091D4128091D5
:10249000D212981708F076C09F5F9093D4121382DF
:1024A000148215821682E091D512F091D612E40FB3
:1024B000F51F178241C09091D3128091D1129817C5
:1024C00008F060C0B091CD126091CE127091CF1221
:1024D000A0E00EE29F5F2DC0A09F90011124FB01A0
:1024E000E20FF31F808180FD23C09093D31280817F
:1024F00081608083E091CE12F091CF12E20FF31F42
:10250000808183708F298083E091D512F091D6125B
:10251000E40FF51F8091CE129091CF12820F931F7E
:102520008396928B818B8091CD128A1729F42AC0D1
:10253000AF5FAB1789F626C0E091D512F091D612A5
:10254000E40FF51F1282E091D512F091D612E40F3C
:10255000F51F81E08083E091D512F091D612E40F4F
:10256000F51F1183E091D512F091D612E40FF51FFB
:1025700011861086CF0108C09F5F84E0F80E961781
:1025800009F072CF80E090E01F910F91FF900895C5
:10259000CF93DF93E091D512F091D6128E179F075B
:1025A00008F461C08E1B9F0B62E270E00E94DDBCEC
:1025B0008091D012681708F056C082E2689FE0014F
:1025C0001124EC0FFD1F1282E091D512F091D6126A
:1025D000EC0FFD1F8181823018F08230E9F508C0D0
:1025E0008091D4128823C1F181508093D41234C0D9
:1025F0008091D312882319F081508093D3122091B7
:10260000CE123091CF1281899289821B930B6EE298
:1026100070E00E94DDBC8091D1126817A8F48EE2B0
:10262000689FB0011124F901E60FF71F808180FF38
:102630000BC08E7F8083E091CE12F091CF12E60F17
:10264000F71F80818D7F8083E091D512F091D612A3
:10265000EC0FFD1F128A118AE091D512F091D6126B
:10266000EC0FFD1F1082DF91CF910895FC01148AB9
:102670008091CC1281508093CC1222893389CF0172
:102680004496F90109950895FC01DA01892BD9F0E6
:10269000748F638F452B51F08D919D910D90BC915E
:1026A000A02D858F968FA78FB0A304C0158E168E90
:1026B000178E10A2218D328D2115310521F0CF0109
:1026C0004B96F9010995089590E08091C812811107
:1026D00091E081E09827892F992708951F9371E051
:1026E00020E030E06091001317E04091C512509156
:1026F000C6121DC0819FF0011124E40FF51F8381D4
:102700009481A581B6818A309105A105B10548F073
:102710000A97A109B10983839483A583B68370E0E6
:1027200004C013821482158216822F5F3F4F822FBE
:10273000261700F3772321F087ED92E10E94E11F35
:102740001F9108950F931F93CF93DF93CDB7DEB7FB
:1027500021970FB6F894DEBF0FBECDBFBE016F5FED
:102760007F4F89E290E00E94E507898199270796CB
:10277000AA2797FDA095BA2F9C01AD0174E0220F06
:10278000331F441F551F7A95D1F7281B390B4A0B6D
:102790005B0B2093F8123093F9124093FA12509386
:1027A000FB1268EF72E188E190E00E941409209129
:1027B000F8123091F9124091FA125091FB12DA019D
:1027C000C901880F991FAA1FBB1F820F931FA41F47
:1027D000B51F8093FC129093FD12A093FE12B0934C
:1027E000FF120EE613E12AE030E040E050E060E046
:1027F00070E087ED92E10E94EC1F0DE314E12AE006
:1028000030E040E050E060E070E087EE92E10E944E
:10281000EC1F8091E7129091E812019741F487EE46
:1028200092E10E94E11F87EE92E10E9412208091C6
:10283000D7129091D812019741F487ED92E10E944E
:10284000E11F87ED92E10E94122021960FB6F894C5
:10285000DEBF0FBECDBFDF91CF911F910F910895C5
:1028600087EE92E10E94E11F87ED92E10E94E11F55
:1028700083E090E00E94C41F08951F93CF93DF93DD
:1028800011E0C0E0D0E036C082E2E89F9001112460
:10289000E091D512F091D612E20FF31F80818823C8
:1028A00041F18181813029F58281823011F5838166
:1028B0009481A581B6818A309105A105B10548F0C2
:1028C0000A97A109B10983839483A583B68310E095
:1028D00010C083E08283E091D512F091D612E20F0E
:1028E000F31F138214821582168283E090E00E9407
:1028F000C41F2196EC2F8091D012C81728F21130F6
:1029000021F487EE92E10E94E11FDF91CF911F91A8
:102910000895CF93DF93EC018A818130F1F081E05B
:102920008A838F8181508F838091C9128F5F8093BA
:10293000C91281508B8B8091C8128F5F8093C8120F
:1029400064E070E081E80E942020CE010A960E9497
:10295000B73187EE92E10E941220DF91CF91089566
:102960000F931F93CF93DF930E94101F049721F0C2
:102970000E94101F059781F500E010E027C082E259
:10298000989FE0011124E091D512F091D612EC0F3E
:10299000FD1F80818823C1F081818130A9F482816B
:1029A0008250823088F440E050E063EA70E0808535
:1029B00091850E9444138091D5129091D6128C0F6C
:1029C0009D1F4A960E94C8120F5F1F4F902F809143
:1029D000D0120817A0F23AC00E94101F0397B1F559
:1029E00000E010E02EC082E2989FE0011124E09107
:1029F000D512F091D612EC0FFD1F80818823F9F0DB
:102A000081818130E1F482818330C9F48781882318
:102A100021F0CF010E94891412C0AF01425E5F4FC6
:102A200067EA70E0808591850E9444138091D512F9
:102A30009091D6128C0F9D1F4A960E94C8120F5F6C
:102A40001F4F902F8091D012081768F2DF91CF911D
:102A50001F910F910895AF92BF92CF92DF92EF92A4
:102A6000FF920F931F93CF93DF93AC01EC01A984E6
:102A7000BA847091D012C090D512D090D61260E076
:102A800069C082E2689F70011124F601EE0DFF1DFE
:102A90008081882309F45DC08181813009F059C0AB
:102AA0008281823009F055C0A189B28900851185E3
:102AB000EA012F813885E8018C819D81281739072B
:102AC00009F047C0E5019F81ED018F81981709F05A
:102AD00040C0E5012C813D81ED018C819D8128174D
:102AE0003907B9F5E5012A813B81ED018A819B8196
:102AF0002817390771F5E5019981ED018E81981745
:102B000041F5E5019E81ED018981981711F5D50107
:102B10008C918370823029F47E96AF0160E070E082
:102B20000BC08781882321F0CF010E94891415C032
:102B30007E96AF0161EB70E0C8010E944413809162
:102B4000D5129091D6128E0D9F1D4A960E94C812E2
:102B500004C06F5F671709F094CFDF91CF911F9189
:102B60000F91FF90EF90DF90CF90BF90AF900895BE
:102B70000F931F93CF93DF93DC018B0182E090E0F2
:102B8000EB019D878C87FD01848195819F878E87CE
:102B90008489885F888B8589968908979A8B898B29
:102BA0008091C9128B8B8F5F8093C912808D8C8B23
:102BB0001D8A81E08E8B1F8A8FE99DE1998F888F16
:102BC000E989FA892081822F8C7F8083ED018C81B5
:102BD0009D81207F875F9F4F08F028602083808140
:102BE0008F7D8083ED018F89908182FD03C09F7B63
:102BF000908308C09064908381E0E8018A8380918B
:102C0000F7128F8380818F778083ED018E8581839A
:102C100089899A89938382838F8598899583848310
:102C20008B8986838091CA1287838F5F8093CA12B3
:102C30008091C8128F5F8093C81264E070E083E7D0
:102C40000E942020C8010A960E94B73180E090E0DF
:102C5000DF91CF911F910F9108952091C8122F5F9E
:102C60002093C8120E94B7310895CF93DF93CDB758
:102C7000DEB72C970FB6F894DEBF0FBECDBF80EB4A
:102C800090E09C838B831E821D82CE0101960E9460
:102C9000D32A8B859C852C960FB6F894DEBF0FBE89
:102CA000CDBFDF91CF9108956F927F929F92AF92A7
:102CB000BF92CF92DF92EF92FF920F931F93CF9329
:102CC000DF930E94101F5C01892B09F4AEC082E0E3
:102CD000A816B10409F4A9C089EC93E00E945B4CEA
:102CE000EC010E949A4C9DC0E091D512F091D61251
:102CF000CE018E1B9F0B62E270E00E94DDBC8091D2
:102D0000D012681708F083C082E2689F6001112426
:102D1000EC0DFD1DE084F184E181E130D1F0E13082
:102D200020F0E23009F073C06AC0C5010497029731
:102D3000A8F0E3E0AE16B10409F069C0BE0189EC69
:102D400093E00E94774CAE014C5F5F4F6B81772719
:102D500052C09B80C5010497029758F4BE0189ECCC
:102D600093E00E94774CAE014C5F5F4F63EA70E0E6
:102D700042C0F3E0AF16B10409F049C0BE0189ECCE
:102D800093E00E94774C0091D5121091D6120C0D51
:102D90001D1DF80182818130D1F5992039F580918E
:102DA000F71299272781821B910921E030E002C0A8
:102DB000220F331F8A95E2F7442737FD4095542FA1
:102DC0006091F8127091F9128091FA129091FB12B1
:102DD0000E94BEBCF801638374838583968382E07E
:102DE000828387EE92E10E94122011C0AE014C5FF7
:102DF0005F4F692D7727C7010E94441305C0BE01AC
:102E000089EC93E00E94774CCE010E94C8126114B5
:102E1000710419F480E090E003C0C3010E949A4C51
:102E2000E3013C01209709F05FCFDF91CF911F9123
:102E30000F91FF90EF90DF90CF90BF90AF909F9059
:102E40007F906F900895CF93DF930BC081EC93E058
:102E50000E945F4C40E050E063EA70E0CE010E94C7
:102E6000441381EC93E00E945B4CEC01892B71F7D9
:102E700033C0BE0189EC93E00E94774C2091D512BB
:102E80003091D612CE01821B930B62E270E00E9459
:102E9000DDBC8091D0126817F8F4E2E26E9FF00179
:102EA0001124E20FF31F808591856181613059F013
:102EB000613018F0623081F40CC0AE014C5F5F4F9E
:102EC0006B81772704C040E050E067EA70E00E9421
:102ED0004413CE010E94C81289EC93E00E945B4C1F
:102EE000EC01892B31F6C0E0D0E028C082E2989F47
:102EF000F00111248091D5129091D612E80FF91F9C
:102F000080818823D1F0808591852181213059F0FD
:102F1000213018F0223089F40CC06091030077272B
:102F200044E050E004C040E050E067EA70E00E94F6
:102F3000441380E090E00E94C81221969C2F80915B
:102F4000D012C81798F2DF91CF9108950F931F9375
:102F5000CF93DF938C01C0E0D0E014C0EB81FC8103
:102F60008081882379F08A8180FD0CC021813281A3
:102F7000F801828D938D2817390721F4ED81FE81A8
:102F8000C8010995CE010E94B610EC01892B31F7DA
:102F9000DF91CF911F910F910895EF92FF920F93C0
:102FA0001F93CF93DF93CDB7DEB7AB970FB6F894EF
:102FB000DEBF0FBECDBF8C01FC0186858823F9F0F2
:102FC0008F3FE9F00E944D107C01009761F0FC01F9
:102FD000A381B481FD0121813281F8018785908927
:102FE0002817390739F0F801878982FF0AC087EA74
:102FF00090E069C0F701828180FD63C002C0EE24C9
:10300000FF24F801828193819A83898386818D834D
:1030100087818E8380858F83818588878285898754
:1030200083858A8784858B8785858C8786858D8730
:10303000BE016E5E7F4F83E190E00E94E50782E073
:1030400090E09F878E878091CE179091CF17998BB4
:10305000888BF80183898A8F878590899C8F8B8FD5
:10306000818992899E8F8D8F84898F8F858996899A
:1030700099A388A38FEA90E09DA38CA38FEF8EA3E2
:103080001FA218A619A61AA68BA78D85882329F436
:10309000CE0101960E94665D0AC0F80186859E01F8
:1030A0002F5F3F4F8F3F31F4C9010E94A61780E088
:1030B00090E009C0F70145815681C901FA010995DF
:1030C000F6CF81EB90E0AB960FB6F894DEBF0FBE63
:1030D000CDBFDF91CF911F910F91FF90EF90089599
:1030E000009719F480E090E008950E94752E0895ED
:1030F000DF92EF92FF920F931F93CF93DF93CDB7A1
:10310000DEB766970FB6F894DEBF0FBECDBF83E083
:1031100090E00E941A1FD82E0E94101F0497029759
:10312000A0F40BC081EC93E00E945F4C40E050E0C3
:1031300063EA70E0C8010E94441381EC93E00E94AE
:103140005B4C8C01892B71F7D7C086E990E09E8794
:103150008D87188A1F86CE010B960E94D32AED898F
:10316000FE89808191819A838983A5C0DD2019F42D
:1031700003EA10E096C0F70187898B7F09F0ADC0A4
:10318000F7018489853518F000EA10E08AC0F7015C
:103190008389882329F00E944D10892B09F4A9C046
:1031A000F701228133812230310551F484819581E8
:1031B000885F9F4F50F0F701878982FF06C099C052
:1031C000C9010297029708F07FC0F7018685815FE9
:1031D0008E3008F079C08DC0BE016D5F7F4F83E1F6
:1031E00090E00E94E5079B81F70186819817F9F42A
:1031F0009C8187819817D9F49D8180859817B9F4AF
:103200009E818185981799F49F818285981779F41A
:1032100098858385981759F499858485981739F48A
:103220009A858585981719F4FE01319608C0C70163
:1032300006960E947018FC01892B09F457C0808102
:103240009181F7019583848382E090E09383828368
:10325000F7012481358189819A812817390759F42A
:1032600081EC93E00E945F4CC7010E94CD1740E0C3
:1032700050E0BC011DC0F701878982FD02C080E0DB
:103280002FC081E02DC081EC93E00E945F4CF801DB
:10329000F186E086B801C7010E94B8158C01892B20
:1032A00051F081EC93E00E945F4C40E050E0B801A7
:1032B000C7010E94441381EC93E00E945B4C7C01A7
:1032C000892B09F053CF18C02230310509F2233081
:1032D000310509F481CF232B61F40AEA10E0E1CF34
:1032E0000E9427128C01892B71F606C009EA10E0B2
:1032F000D8CF06EA10E0D5CF66960FB6F894DEBFB9
:103300000FBECDBFDF91CF911F910F91FF90EF9036
:10331000DF900895009719F480E090E008950E94EE
:10332000152F08953F924F925F926F927F928F92E6
:103330009F92AF92BF92CF92DF92EF92FF920F9344
:103340001F93CF93DF930E9444105B016C0120E038
:1033500030E06091001377E04091C5125091C612A1
:103360001DC0879FF0011124E40FF51F8381948114
:10337000A581B681A816B906CA06DB0648F48A19E3
:103380009B09AC09BD0983839483A583B68304C0DC
:1033900013821482158216822F5F3F4F822F2617C9
:1033A00000F3A1E05A2E66247724F2E23F2EE3E0F8
:1033B0004E2E70C0039D40011124C091D512D091B2
:1033C000D612C80DD91D8881882309F460C089816F
:1033D000813009F05CC06F81772788279927E090BA
:1033E000F812F090F9120091FA121091FB12A80154
:1033F00097010E94BEBC9B01AC018B819C81AD8179
:10340000BE81280F391F4A1F5B1FA216B306C406D0
:10341000D50670F5CA01B9016A197B098C099D09A5
:103420006B837C838D839E83A80197010E94F1BCEE
:103430002F830091D5121091D612080D191DF80195
:1034400063817481858196812091F8123091F912FF
:103450004091FA125091FB120E94F1BCF801638373
:103460007483858396838281823089F455240FC0CA
:103470001B821C821D821E821F82E091D512F09158
:10348000D612E80DF91D8281823009F44282089437
:10349000611C711C062D8091D012681608F48ACF29
:1034A000552021F487EE92E10E94122081E0809362
:1034B000C71283E090E00E94C41FDF91CF911F915B
:1034C0000F91FF90EF90DF90CF90BF90AF909F90C3
:1034D0008F907F906F905F904F903F9008958F9264
:1034E0009F92BF92CF92DF92EF92FF920F931F9322
:1034F000CF93DF937C01B62EEC0109851A85F80184
:10350000808186FFE3C08370813019F491E0D92E69
:1035100002C087E0D82E7091D0128090D512909082
:10352000D61260E0B2E2CB2E4D2D5527D801A40F64
:10353000B51F1EC06C9DF0011124E80DF91D80819E
:103540008130A9F48181823091F4E7012F8138859F
:10355000868597852817390751F40188F289E02D6F
:10356000E40FF51F9C918081981709F4B9C06F5F33
:10357000671701F7ADC0F701878190850E942A2562
:10358000FC01892B49F08485813031F4E989FA897D
:10359000B3978081826080831986188629893A8949
:1035A00082E090E09D878C87F701878190859F87D7
:1035B0008E878091C9128F5F8093C91281508B8B47
:1035C0001C8A1D8A81E08E8B1F8A8FE99DE1998F6D
:1035D000888FF9018081BB2019F48C7F826002C042
:1035E0008360F9018083F80190819C70F9018081EA
:1035F000837F892B8083F80190819071F9018F7E00
:10360000892B982F9F799083F801908190788F7102
:10361000892BF9018083F8018081AD2DBB2784FFC0
:103620000AC0F70181859285A80FB91F8C91F90115
:10363000818382E029C088E0888BF8018681F901C6
:103640008183F80182819381F90193838283F80158
:1036500084819581F90195838483F8018181F90141
:103660008683F70181859285A80FB91F8C91F90196
:103670008783F801808187FF1FC08085837031F4C4
:10368000F901108688898F5F888B16C088898D5FC5
:10369000888BF80180858370F90180878FEF82879E
:1036A000F80180858370813019F4F901118604C016
:1036B000F8018185F901818764E070E083E90E9467
:1036C0002020CE010A960E942D160AC080E009C073
:1036D00082E00E942712EC01892B09F04CCFF6CF33
:1036E00081E09927DF91CF911F910F91FF90EF908B
:1036F000DF90CF90BF909F908F900895AF92BF9230
:10370000CF92DF92EF92FF920F931F93CF93DF93AD
:10371000CDB7DEB7AB970FB6F894DEBF0FBECDBF07
:103720008C01FC01E184F284F7019181892F8150A1
:103730008E3F18F0AA24BB241CC0892F0E944D1074
:103740005C01F701818181508E3F20F4A114B10406
:1037500021F432C0A114B10461F0F501A381B48158
:10376000FD0121813281F701848195812817390774
:1037700019F5F7012081822F8C748834E9F026FF37
:1037800006C0F80187819085885F9F4FA8F427FDC8
:1037900013C0207C203411F021E00FC0F50182819C
:1037A00080FD06C060E0C8010E946F1A282F05C086
:1037B00061E0C8010E946F1A20E0F80184819581C0
:1037C000019709F4ECC0222309F4E9C0F7015781FD
:1037D000F801C780D084309100136091C5127091B8
:1037E000C61220E047E017C0249FF0011124E60F25
:1037F000F71F83819481A581B6810097A105B1054A
:1038000049F0808191818C159D0521F48281851775
:1038100009F4C5C02F5F231739F74091CB1227E079
:10382000429F90011124620F731FFB01D182C0825D
:10383000E091C512F091C612E20FF31F52838091FE
:10384000C5129091C612280F391F8091FC129091D9
:10385000FD12A091FE12B091FF12F90183839483AF
:10386000A583B6834F5F4093CB1280910013481716
:1038700010F01092CB1287ED92E10E941220F70116
:10388000818181508E3F20F4A114B10409F487C0D6
:1038900022E0C22ED12CDA82C982F8018281938182
:1038A0009C838B83F70181818D87C80107960E94D5
:1038B0008A19FC01892BA9F083E090E09F878E870D
:1038C00080818A8B81818B8B82818C8B83818D8B94
:1038D00084818E8B85818F8B8681888F8781898F6C
:1038E00002C0DF86CE86F80187819085998B888B10
:1038F000F70186818A8F848195819C8F8B8F82814D
:1039000093819E8F8D8FF80126812A502F8F265FFD
:103910001BA21AA2F701808187FD02C0285009C0AE
:1039200082EA90E09BA38AA3F7018085837011F45B
:1039300029502F8FF801268133278F8D281B3109BD
:1039400081859285820F931F99A388A38FEA90E0C7
:103950009DA38CA383858EA385859685A785B08935
:103960008FA398A7A9A7BAA784858BA7A114B10490
:1039700041F0F50125813681CE010196F9010995C5
:103980000EC0F70181819E012F5F3F4F8F3F21F4D1
:10399000C9010E94A61703C0C9010E94665DAB96CB
:1039A0000FB6F894DEBF0FBECDBFDF91CF911F9150
:1039B0000F91FF90EF90DF90CF90BF90AF90089560
:1039C000FC01A185B2858C91282F2C70243021F127
:1039D00085FD22C01EC083708230F1F02830E1F0F6
:1039E0002C30D1F0848195810297B1F48C91837051
:1039F0009927009721F00297029770F406C02C30A7
:103A000059F0CF010E947E1B07C0CF010E942B15E9
:103A100003C086FFE7CFDFCF81E090E008951F93DA
:103A2000FC01892BA1F0808191810E942A25DC0173
:103A3000009779F0FC018485813049F01091CD1216
:103A40006091CE127091CF1240E050E017C0A0E01C
:103A5000B0E050E017C0242F33278EE290E0289F7B
:103A6000F001299FF00D389FF00D1124E60FF71F8C
:103A700080818370823009F45F5F4F5F411759F78F
:103A8000151B512F4091D3128091D012992720916C
:103A9000D412240F312D311D281739075CF4809181
:103AA000D112481738F4AB2B19F080E0523018F0DF
:103AB00081E001C080E099271F910895FF920F9344
:103AC0001F93CF93DF9341E0F42E2CC00E94101F70
:103AD0008C0185EC93E00E945F4CC801049702972B
:103AE00018F431E0F32E1BC00330110531F0E985E5
:103AF000FA8580818370813079F4E985FA85808147
:103B000086FF06C0CE0107960E940F1D813021F46A
:103B1000CE010E94E01CF82E81E0F81619F4CE01C7
:103B20000E94361385EC93E00E945B4CEC01892BDC
:103B300069F6DF91CF911F910F91FF900895CF9378
:103B4000DF93EC018B81882321F464E070E084E74B
:103B500003C064E070E085E70E9420208091C812D5
:103B600081508093C812BE0189EC93E00E944B4CB7
:103B700083E090E00E94C41FDF91CF9108950F93DE
:103B80001F938C0164E070E081E90E942020B8015D
:103B900085EC93E00E944B4C83E090E00E94C41FB0
:103BA0008091CC128F5F8093CC121F910F9108955A
:103BB000BC0181EC93E00E944B4C83E090E00E94BA
:103BC000C41F08950F931F93CF93DF93CDB7DEB734
:103BD00022970FB6F894DEBF0FBECDBF20E030E0D5
:103BE000609100134091C5125091C6120FC09927E1
:103BF000FC01B3E0EE0FFF1FBA95E1F7E81BF90BEC
:103C0000E40FF51F1382148215821682822F2F5F14
:103C10003F4F861760F31092C9121092CA12109289
:103C2000C71281EC93E00E94454C85EC93E00E9422
:103C3000454C89EC93E00E94454C8DEC93E00E944A
:103C4000454C6DEC72E188E090E00E94E5076EEC77
:103C500072E184E090E00E94B20820E030E04EE2A1
:103C600050E012C0892F9927849FF001859FF00DA5
:103C7000949FF00D11248091CE129091CF12E80FF5
:103C8000F91F80818E7F8083922F2F5F3F4F80911D
:103C9000CD12981738F360ED72E187E090E00E9452
:103CA000E50765ED72E183E090E00E94B20820E054
:103CB00030E012C0FF27CF01A5E0880F991FAA9519
:103CC000E1F7EE0FFF1FE80FF91F8091D5129091D9
:103CD000D612E80FF91F1082E22F9091D0122F5FB9
:103CE0003F4FE91738F38091CD128093D112915054
:103CF0009093D2121092D3121092D41283E0809338
:103D0000F71268EF72E188E190E00E94E5072091E8
:103D1000F8123091F9124091FA125091FB12DA0127
:103D2000C901880F991FAA1FBB1F820F931FA41FD1
:103D3000B51F8093FC129093FD12A093FE12B093D6
:103D4000FF1260E073E187E190E00E94E50765EC17
:103D500072E188E090E00E94B2084091001355277C
:103D600060E070E08091C5129091C6120E9490BDF3
:103D7000BE016F5F7F4F86E190E00E94E5070EE68F
:103D800013E12AE030E040E050E060E070E087EDD1
:103D900092E10E94EC1F0DE314E12AE030E040E0E4
:103DA00050E060E070E087EE92E10E94EC1F10921C
:103DB000C8121092CC1222960FB6F894DEBF0FBE36
:103DC000CDBFDF91CF911F910F9108950E9454169E
:103DD0000E945E1D0E9478180E94B0140E94101F5D
:103DE000049721F48091C812882339F08091C7127A
:103DF000813041F41092C712089583E090E00E9450
:103E00000811F4CF089520910113309102133093DB
:103E100004132093031390930213809301130895C6
:103E20008091011390910213089580910313909152
:103E300004130895209101133091021322303105AB
:103E400081F02330310518F4232B41F014C02330C6
:103E5000310599F02530310571F409C0019759F405
:103E60000CC08130910549F0049729F406C020E088
:103E7000019721F402C020E001C021E0822F9927A0
:103E800008952091011330910213813059F4309339
:103E900004132093031383E090E090930213809324
:103EA0000113089530930413209303131092021307
:103EB000109201130895109205130895809105132F
:103EC000882369F02FB7F8943327809110179091C9
:103ED0001117806290931117809310172FBF0895C8
:103EE000CF93DF93CDB7DEB722970FB6F894DEBF3E
:103EF0000FBECDBF409105134423E9F120E030E02F
:103F0000E42FFF27622F77272F5F3F4FCF01062E29
:103F100002C0959587950A94E2F780FFF3CF81E080
:103F200090E0062E02C0880F991F0A94E2F7809550
:103F3000482340930513660F771F6D5B7C4F42E06B
:103F400050E0CE0101960E9471BD80910513882337
:103F500069F02FB7F89433278091101790911117BB
:103F6000806290931117809310172FBFE981FA8117
:103F7000309709F0099522960FB6F894DEBF0FBE70
:103F8000CDBFDF91CF910895BC014091051344232B
:103F900069F42FB7F8943327809110179091111777
:103FA000806290931117809310172FBF81E090E0EB
:103FB00002C0880F991F6A95E2F7482B40930513BA
:103FC0000895FC0180819181019729F41192119249
:103FD000CF010E94930F08958F929F92AF92BF924C
:103FE000CF92DF92EF92FF920F931F937C014B01D0
:103FF00059016A010E94E11FF70111821082958622
:104000008486A086B186C286D386178706871F91CD
:104010000F91FF90EF90DF90CF90BF90AF909F9067
:104020008F900895FC0180819181892B39F481E082
:1040300090E081939193CF010E94B70F0895089566
:1040400008950895089520E030E08091061390913E
:104050000713019711F421E030E0C9010895809120
:10406000991790919A17892B61F410920713109267
:104070000613E0919B17F0919C17309719F1099561
:104080000895E0919717F09198174191F093981740
:10409000E093971760919517709196176F5F7F4F18
:1040A0007093961760939517615070408CE00E9452
:1040B000CD218091991790919A17019790939A1713
:1040C000809399170895CF93DF93FC018091061395
:1040D00090910713892B19F08EEF9FEF71C03097E5
:1040E00009F46CC08081918124813581820F931FF6
:1040F0008050904108F062C081E090E090930713F7
:1041000080930613A5E9B7E186E001900D928150F6
:10411000E1F770939C1760939B17672B19F4C0E02D
:10412000D0E03DC0E0919717F09198174191F0933E
:104130009817E093971760919517709196176F5F96
:104140007F4F7093961760939517615070408CE085
:104150000E94CD218091991790919A170197909381
:104160009A178093991780E090E02AC0E091971702
:10417000F09198174191F0939817E09397176091F9
:104180009517709196176F5F7F4F70939617609396
:1041900095176150704084E00E94CD212196809156
:1041A000991790919A17C817D90700F3F999FECF7C
:1041B0001092071310920613CE0102C08FEF9FEFEB
:1041C000DF91CF910895FC01809106139091071320
:1041D000892B19F08EEF9FEF0895309709F456C0A0
:1041E0008081918124813581820F931F805090417D
:1041F00008F04CC081E090E0909307138093061381
:1042000070939C1760939B17A5E9B7E186E0019036
:104210000D928150E1F7F999FECF40E050E017C0D0
:10422000E0919717F0919817E40FF51F809195177B
:1042300090919617019690939617809395170197F2
:1042400092BD81BDF89A80B580834F5F5F4F8091AA
:10425000991790919A174817590710F310929A17C7
:104260001092991780910B13806180930B132FB7D5
:10427000F8943327809110179091111782609093D2
:104280001117809310172FBFCA0108958FEF9FEF6A
:1042900008958091A100882371F488E893E19093B8
:1042A000A9008093A8008AE08093A1008091720009
:1042B00082608093720008951092A1000895CF92B9
:1042C000DF92EF92FF920F931F936C016091AD12FA
:1042D0007091AE128091AF129091B012E090A40054
:1042E000F090A50028EE33E040E050E00E94BEBC14
:1042F000EE0CFF1CEE0CFF1C00271127E60EF71E2C
:10430000081F191FF601E082F182028313831482D1
:104310001582168217821F910F91FF90EF90DF9008
:10432000CF9008951F920F920FB60F9211242F93E2
:104330003F938F939F93AF93BF938091AD129091D2
:10434000AE12A091AF12B091B0120A96A11DB11D8C
:104350008093AD129093AE12A093AF12B093B012AF
:1043600080910C13806880930C132FB7F894332737
:10437000809110179091111782609093111780937C
:1043800010172FBFBF91AF919F918F913F912F91A8
:104390000F900FBE0F901F901895282FF999FECF00
:1043A00072BD61BD40BD8FB7F89499272FBBF99AB4
:1043B0008FBF08951F920F920FB60F9211242F9363
:1043C0003F938F939F93FB9880910B138061809311
:1043D0000B132FB7F8943327809110179091111772
:1043E000826090931117809310172FBF9F918F9128
:1043F0003F912F910F900FBE0F901F9018958091B5
:10440000091383FF0CC02FB7F89433278091091349
:10441000877F809309132FBF0E94714DAFC0809199
:104420000A1387FF0CC02FB7F894332780910A1323
:104430008F7780930A132FBF0E9440509FC08091B6
:104440000B1380FF0CC02FB7F894332780910B1308
:104450008E7F80930B132FBF0E94244F8FC08091BB
:104460000B1381FF0CC02FB7F894332780910B13E7
:104470008D7F80930B132FBF0E944E4F7FC0809182
:104480000B1383FF0CC02FB7F894332780910B13C5
:10449000877F80930B132FBF0E9479606FC080913C
:1044A0000B1384FF0CC02FB7F894332780910B13A4
:1044B0008F7E80930B132FBF0E942F205FC08091AF
:1044C0000C1382FF0CC02FB7F894332780910C1384
:1044D0008B7F80930C132FBF0E947E4F4FC0809123
:1044E0000C1383FF0CC02FB7F894332780910C1363
:1044F000877F80930C132FBF0E943D503FC0809157
:104500000C1384FF0CC02FB7F894332780910C1341
:104510008F7E80930C132FBF0E94664F2FC0809117
:104520000C1385FF0CC02FB7F894332780910C1320
:104530008F7D80930C132FBF0E947B231FC080911F
:104540000C1387FF0CC02FB7F894332780910C13FE
:104550008F7780930C132FBF0E94F30F0FC08091B1
:104560000D1387FF0BC02FB7F894332780910D13DD
:104570008F7780930D132FBF0E94FD4C80910813FD
:104580008823A1F480910913882381F480910A1370
:10459000882361F480910B13882341F480910C13DC
:1045A000882321F480910D13882369F02FB7F894A4
:1045B00033278091101790911117826090931117F3
:1045C000809310172FBF08958091D603882319F088
:1045D0008FEF9FEF089581E08093D60310929E178E
:1045E00010929D1780E090E00895FC0180919D1746
:1045F00090919E17892B31F58091D603882311F570
:10460000309701F180818093D5031092D40381818A
:104610008093D303838194819093D2038093D103B9
:10462000858596859093D8038093D70386E090E0A4
:1046300090939E1780939D1785EA8093BC0080E03D
:1046400090E008958FEF9FEF0895E091D703F091E8
:10465000D803309711F080E00995089510929E17C5
:1046600010929D17E091D703F091D803309711F085
:1046700081E009950895282F80919D1790919E17AC
:10468000892B11F480E918C08091D403E091D10303
:10469000F091D203E80FF11D20838F5F8093D40344
:1046A0009091D303891758F48091BC008064809363
:1046B000BC008091BC0085688093BC00089588E0B0
:1046C00090E090939E1780939D1784E98093BC009F
:1046D00080910C13806280930C132FB7F8943327CA
:1046E0008091101790911117826090931117809309
:1046F00010172FBF08958091BC0084FDFCCF0E944D
:104700002E2308959C01892B91F08091D60381304E
:1047100071F4C9010E94C66C10929E1710929D17E9
:104720001092D4031092D60380E090E008958FEFAA
:104730009FEF089580919D1790919E178430910569
:1047400051F485E090E090939E1780939D1780919F
:10475000D503880F0CC0069781F487E090E0909312
:104760009E1780939D178091D503880F8F5F80934C
:10477000BB0085E88093BC00089510929E171092AC
:104780009D1780E98093BC000E9425230895209105
:104790009D1730919E172115310511F480E954C001
:1047A000882309F454C02530310521F54091D40304
:1047B0008091D303481708F04AC0E42FFF279F01D8
:1047C0002F5F3F4F99272817390731F482E090E097
:1047D00090939E1780939D178091D1039091D2035F
:1047E000E80FF91F80814F5F4093D4038093BB0093
:1047F00085E82AC022303105E1F483E090E090930F
:104800009E1780939D1784E98093BC0080910C13C0
:10481000806280930C132FB7F89433278091101780
:1048200090911117826090931117809310172FBFEA
:1048300008952730310559F48091BC00806480933D
:10484000BC008091BC0085688093BC0008951092E4
:104850009E1710929D1780E98093BC000E9425232B
:104860000895FC0180919D1790919E17892B31F539
:104870008091D603882311F5309701F180818093D0
:10488000D503838194819093D2038093D1031092B6
:10489000D40381818093D303858596859093D80333
:1048A0008093D70384E090E090939E1780939D17A8
:1048B00085EA8093BC0080E090E008958FEF9FEF41
:1048C00008950E9424640E94D74B08950E94612499
:1048D0002FB7F894332780911017909111178061AA
:1048E00090931117809310172FBF0E94144E8823A6
:1048F000E1F781E083BF889513BEF7CF1092A7132D
:104900001092A8131092A91340E050E0A091AC13AC
:10491000B5E36091AA137091AB1330C08B9F9001E7
:104920001124F901E60FF71F8585968581309105E1
:1049300011F00597A1F48091A7138F5F8093A713BF
:1049400082859385019731F48091A9138F5F8093BD
:10495000A91305C08091A8138F5F8093A813F90154
:10496000E60FF71F85859685892B31F48085918523
:1049700090933E1380933D134F5F5F4F842F4A17F0
:1049800068F20895AF92BF92CF92DF92EF92FF92BA
:104990000F931F93A22EB32EC42ED52EE62EF72EE4
:1049A000082F192F3091AC134091AA135091AB13DB
:1049B00020E065E322C0269FF0011124E40FF51FDB
:1049C000858596850697C1F080818A15A9F4818135
:1049D0008B1591F482818C1579F483818D1561F4A6
:1049E00084818E1549F485818F1531F48681801775
:1049F00019F48781811729F02F5F2317E1F6E0E092
:104A0000F0E0CF011F910F91FF90EF90DF90CF90DA
:104A1000BF90AF900895BC013091AC134091AA13A0
:104A20005091AB1320E0A5E30FC02A9FF0011124A1
:104A3000E40FF51F85859685069729F08085918579
:104A40008617970729F02F5F231779F7E0E0F0E04A
:104A5000CF0108950E940B250895AF92BF92CF9287
:104A6000DF92EF92FF920F931F93FC01A080B18021
:104A7000C280D380E480F580068117812A2D3B2DEA
:104A80004C2D5D2D6E2D7F2D802F912F0E94C224E5
:104A90001F910F91FF90EF90DF90CF90BF90AF905C
:104AA0000895AF92BF92CF92DF92EF92FF920F9351
:104AB0001F930E94C224FC01892B19F480E090E02E
:104AC00002C0808591851F910F91FF90EF90DF903C
:104AD000CF90BF90AF90089580E090E008958F3F11
:104AE00011F481E015C08F3A10F082E011C08036D9
:104AF00010F083E00DC0813110F084E009C08730F0
:104B000010F085E005C0882311F086E001C087E041
:104B100099270895482F7727653C7105B0F4643ACA
:104B2000710518F420E030E012C0862F845A9927CE
:104B3000382F2227281B390B85E0369527958A9533
:104B4000E1F72F3F310519F010F02FEF30E0842FFF
:104B5000829586958695837009F481E09927AC014A
:104B6000249FC001259F900D349F900D112463E078
:104B700070E00E94DDBC6F3F710519F010F06FEF1F
:104B800070E0862F99270895882309F4862F86954B
:104B9000869566956695680F880F860F9927089504
:104BA0000F931F93CF93DF93162F042F0E940B2593
:104BB000EC01892BF1F08091AD129091AE12A09191
:104BC000AF12B091B0123AE0B695A7959795879538
:104BD0003A95D1F79CAB8BAB602F812F0E948A2531
:104BE000682F8F850E94C4258F87088B0E946F25B0
:104BF0008A8BDF91CF911F910F910895FC0186E080
:104C000090E09687858714AA13AA0E947E240E94AA
:104C1000EA2A08953091AC134091AA135091AB1336
:104C200020E065E30AC0269FF0011124E40FF51F80
:104C300085859685069731F02F5F2317A1F7E0E071
:104C4000F0E017C03097A9F01786108A118A128AEF
:104C50008091AD129091AE12A091AF12B091B012AE
:104C60004AE0B695A795979587954A95D1F794AB65
:104C700083ABCF010895AF92BF92CF92DF92EF92B4
:104C8000FF920F931F93CF93DF93EC01888199815B
:104C90008230910529F48C819D810E940B2514C0DE
:104CA000039739F5AC80BD80CE80DF80E884F9843D
:104CB0000A851B852A2D3B2D4C2D5D2D6E2D7F2DBC
:104CC000802F912F0E94C224FC01892B91F08091AA
:104CD000AD129091AE12A091AF12B091B0125AE005
:104CE000B695A795979587955A95D1F794AB83ABD1
:104CF0000CC00FEF1FEF2FEF3FEF4FEF5FEF6FEFA6
:104D00007FEF8C819D810E949438DF91CF911F911C
:104D10000F91FF90EF90DF90CF90BF90AF900895EC
:104D20004F925F926F927F928F929F92AF92BF92BB
:104D3000CF92DF92EF92FF920F931F93CF93DF9367
:104D40008091AD129091AE12A091AF12B091B012BD
:104D50006AE0B695A795979587956A95D1F72C0146
:104D6000C0E0D0E04BC085E3989F30011124E09172
:104D7000AA13F091AB13E60DF71D8585968506976E
:104D8000E1F182859385029729F42091BB1330913C
:104D9000BC1306C09091321383E0989F90011124B8
:104DA00083A994A90196280F391F24193509215088
:104DB0003F4F18F184858823E9F480809180A28098
:104DC000B380C480D580E680F780082D192D2A2D68
:104DD0003B2D4C2D5D2D6E2D7F2D808591850E9464
:104DE0009438882351F08091AA139091AB13860DCB
:104DF000971D01C0CF010E94FE2521969C2F809116
:104E0000AC13C81708F4AFCFDF91CF911F910F916A
:104E1000FF90EF90DF90CF90BF90AF909F908F90DA
:104E20007F906F905F904F900895AF92BF92CF9216
:104E3000DF92EF92FF920F931F93A22EB32EC42EF8
:104E4000D52EE62EF72E082F192F3091AC13409156
:104E5000AA135091AB1320E065E322C0269FF00116
:104E60001124E40FF51F858596850697C1F0868984
:104E70008A15A9F487898B1591F4808D8C1579F4A6
:104E8000818D8D1561F4828D8E1549F4838D8F157A
:104E900031F4848D801719F4858D811729F02F5FE7
:104EA0002317E1F6E0E0F0E0CF011F910F91FF90B2
:104EB000EF90DF90CF90BF90AF900895AC01662344
:104EC00041F580912013909121134817590719F14A
:104ED0003091AC136091AA137091AB1320E0A5E35D
:104EE00016C02A9FF0011124E60FF71F85859685CD
:104EF0008130910511F0059749F480859185481717
:104F0000590721F482859385029729F02F5F231793
:104F100041F780E001C081E0992708951F93CF9366
:104F2000DF93CDB7DEB728970FB6F894DEBF0FBE7C
:104F3000CDBF182F1092A7131092A8131092A91387
:104F40001092AC131092AB131092AA136CEA73E197
:104F500080E090E00E94E5076AEA73E180E090E07B
:104F60000E94B208BE016B5F7F4F8DE190E00E940E
:104F7000E507BE016F5F7F4F84E190E00E94E50787
:104F80002D813E814F81588589819A81AB81BC8179
:104F9000280F391F4A1F5B1FDA01C901880F991FAB
:104FA000AA1FBB1F820F931FA41FB51F8D839E8353
:104FB000AF83B8872AE0B695A795979587952A95E8
:104FC000D1F79093BC138093BB13112319F420E005
:104FD00030E045C00E947E2440E050E065E370E090
:104FE0001FC08091AD129091AE12A091AF12B091FE
:104FF000B0123327269FF001279FF00D369FF00D4A
:1050000011242091AA133091AB13E20FF31F1AE081
:10501000B695A795979587951A95D1F794AB83ABDD
:10502000242F4F5F5F4F8091AC132817D0F21EC022
:10503000A5E39A9FD0011124E091AA13F091AB133C
:10504000EA0FFB1F86E090E0968785878091AA1380
:105050009091AB13A80FB91FFD0114AA13AA922FA8
:105060002F5F3F4F8091AC13981710F38091181366
:1050700083FF1EC088EE93E0A0E0B0E08093B313FE
:105080009093B413A093B513B093B6131092B813C2
:105090001092B71380E996E29093BA138093B913F4
:1050A0008DEA93E10E94930F8DEA93E10E94B70F7E
:1050B00028960FB6F894DEBF0FBECDBFDF91CF911B
:1050C0001F9108959C01892B11F420E012C080915A
:1050D000AA139091AB13281B390B8DE192E5AC011B
:1050E000249FC001259F900D349F900D1124282FDF
:1050F0002F5F3091AC134091AA135091AB13A5E3ED
:1051000015C02A9FF0011124E40FF51F85859685AF
:105110008130910511F0059741F48485882329F4A5
:10512000808591856817790729F42F5F231748F345
:10513000E0E0F0E0CF0108953091AC134091AA1364
:105140005091AB1320E065E30DC0269FF0011124C0
:10515000E40FF51F858596858130910539F0059717
:1051600029F02F5F231789F7E0E0F0E0CF010895E1
:105170004F925F926F927F928F929F92AF92BF9267
:10518000CF92DF92EF920F931F93CF93DF93CDB720
:10519000DEB721970FB6F894DEBF0FBECDBF622EEB
:1051A000732E842E952EA62EB72EC82ED92E28010A
:1051B000E982E0901313109112130E94C224009709
:1051C00011F00E94FE258091A7138E1590F4909106
:1051D000371380911113981741F05091AC136091DF
:1051E000AA137091AB1340E030C080911913823044
:1051F000A1F38FEF681609F01CC1781609F019C1E8
:10520000881609F016C1981609F013C1A81609F0FE
:1052100010C1B81609F00DC1C81609F00AC1D81698
:1052200009F007C1DACF242F332785E390E0289FC8
:10523000F001299FF00D389FF00D1124E60FF71FA4
:1052400085859685069721F04F5F451761F71AC04F
:105250004F3F09F04AC016C0242F332785E390E062
:10526000289FF001299FF00D389FF00D1124E60FC3
:10527000F71F858596858130910511F0059731F4EA
:105280004F5F01C040E0451739F72BC04F3F49F150
:10529000242F2FC085E3289FF0011124E60FF71F6C
:1052A000858596858130910511F00597C1F480813F
:1052B0008F3FA9F481818F3F91F482818F3F79F4F0
:1052C00083818F3F61F484818F3F49F485818F3FD3
:1052D00031F486818F3F19F487818F3F39F02F5F3A
:1052E00001C020E02517B1F6A4C0242F2F3F09F4F8
:1052F000A0C0898181FF09C08091A913811708F09E
:1053000098C08F5F8093A91321C08091A813E11AE0
:105310008E15C8F09FEF691609F08BC0791609F059
:1053200088C0891609F085C0991609F082C0A916AF
:1053300009F07FC0B91609F07CC0C91609F079C020
:10534000D91609F076C08F5F8093A8138091A713B8
:105350008F5F8093A71385E3289F8001112480919C
:10536000AA139091AB13080F191FF8016082718284
:1053700082829382A482B582C682D78289818695F1
:10538000B20181700E943944F80191878087898138
:1053900081FF03C081E090E002C082E090E0F8016C
:1053A0009387828781E090E09687858789818695BB
:1053B000869586958170848780912613868B80914F
:1053C0002713878B80912813808F80912913818FD9
:1053D00080912A13828F80912B13838F80912C13BD
:1053E000848F80912D13858F80913C13868F8091BF
:1053F0003713878F10A211A28091AD129091AE1237
:10540000A091AF12B091B0127AE0B695A79597959A
:1054100087957A95D1F794AB83AB12A2898180AB43
:105420001786108A118A128A0E947E240E94EA2A14
:1054300002C000E010E0C80121960FB6F894DEBF6C
:105440000FBECDBFDF91CF911F910F91EF90DF90F5
:10545000CF90BF90AF909F908F907F906F905F9014
:105460004F900895CF93DF93CDB7DEB721970FB656
:10547000F894DEBF0FBECDBFDB01672B11F4DE0158
:1054800011961C92805890408133910548F48F54B6
:105490009F4FFC01EE0FFF1F0590F491E02D099442
:1054A00080E090E077C081E08C9380910E138F5F55
:1054B00080930E138EE093E16DC081E08C938FE0BA
:1054C00093E168C081E08C9383E193E163C081E064
:1054D0008C9380E193E15EC081E08C9381E193E164
:1054E00059C081E08C9382E193E154C082E08C93B7
:1054F00087EA93E14FC081E08C9384E193E14AC055
:1055000081E08C9385E193E145C081E08C9386E155
:1055100093E140C082E08C9380E293E13BC082E063
:105520008C9384E293E136C088E08C9386E293E129
:1055300031C081E08C9382E293E12CC081E08C93B6
:1055400088E193E127C081E08C938EE293E122C051
:1055500081E08C9386E393E11DC081E08C938CE322
:1055600093E118C082E08C938DE393E113C082E055
:105570008C9389E493E10EC082E08C938BE493E1F9
:1055800009C081E08C9387E393E104C088E08C93A9
:1055900081E493E121960FB6F894DEBF0FBECDBF34
:1055A000DF91CF910895CF93DF93EC018A819B81A6
:1055B00098878F83BE01675F7F4F0E94322A9B8747
:1055C0008A87892B11F080E001C089EC8E83DF91FE
:1055D000CF910895809137138F70880F880F880FAF
:1055E00040919A134778482B40939A1350E02091AA
:1055F0001313332760911213261B31098091A813CE
:105600009927821793070CF451E057955527579522
:10561000942F9F77952B90939A1320E08091A91354
:10562000861708F421E0220F220F9B7F922B909384
:105630009A138091261380939B1380912713809354
:105640009C138091281380939D138091291380933C
:105650009E1380912A1380939F1380912B13809324
:10566000A01380912C138093A11380912D1380930C
:10567000A213809136138093A6138FEF8093A31308
:105680008093A4138093A5130895CF93DF93CDB790
:10569000DEB722970FB6F894DEBF0FBECDBF1A82D9
:1056A0001982BE016F5F7F4F89E290E00E94E5079B
:1056B0008981992722960FB6F894DEBF0FBECDBF21
:1056C000DF91CF9108958FE0809332130E94452B94
:1056D000992720E931E0AC01429FC001439F900D22
:1056E000529F900D1124892F9927869586958F5F5B
:1056F000809314130895CF93DF93CDB7DEB721972E
:105700000FB6F894DEBF0FBECDBFBE016F5F7F4FF7
:1057100082E190E00E94E5078981992721960FB6E2
:10572000F894DEBF0FBECDBFDF91CF910895CF9328
:10573000DF93CDB7DEB721970FB6F894DEBF0FBE6B
:10574000CDBF63E173E181E090E00E94E50762E193
:1057500073E182E090E00E94E50761E173E183E09C
:1057600090E00E94E5076FE373E186E190E00E941C
:10577000E50769E173E184E090E00E94E50763E2F8
:1057800073E189E090E00E94E50762E273E18AE05C
:1057900090E00E94E50761E473E183E190E00E94FC
:1057A000E50764E373E180E190E00E94E507809102
:1057B0003F139091401320911813029710F4226028
:1057C00001C02D7F20931813BE016F5F7F4F8EE1C4
:1057D00090E00E94E50790E08981811191E0990FA6
:1057E000990F990F20911813277F292B2068209358
:1057F000181330E080913F1390914013892B09F4E6
:1058000031E02E7F232B209318130E94632B2196C7
:105810000FB6F894DEBF0FBECDBFDF91CF910895D4
:10582000EF92FF920F931F93CF93DF93CDB7DEB725
:1058300021970FB6F894DEBF0FBECDBF8C01FC01DF
:105840008281938193878287E580F680BE016F5FB6
:105850007F4F0E94322A009759F049815527B7019E
:105860000E9487BD0E94EA2A0E94632B80E005C047
:105870000E94EA2A0E94632B89ECF8018187219615
:105880000FB6F894DEBF0FBECDBFDF91CF911F9151
:105890000F91FF90EF900895FF920F931F93F82EB2
:1058A0008DEA93E10E94930F0EE013E18FEAF80175
:1058B00011928A95E9F7085E1F4FB8018DE090E0DC
:1058C0000E94E5070E94972B0E94632B085F1F4FE1
:1058D000B80181E290E00E94E50710929813909140
:1058E0002213809123138295807F9F70982B909331
:1058F00099138FEF9FEF909321138093201381E0F2
:105900008093171382E0809319138F2D0E948E27A6
:105910000E94EA2A1F910F91FF900895803108F0AC
:105920008FE0809337130E94C64490933B1380937B
:105930003A13809137138F5F0E94C64490933913B6
:1059400080933813089580910E138F5F80930E1308
:10595000815099270895BC013091A7164091A51652
:105960005091A61620E0ABE00BC02A9FF001112455
:10597000E40FF51F808591858617970729F02F5F23
:10598000231799F7E0E0F0E0CF010895AF92BF92BE
:10599000CF92DF92EF92FF920F931F93A22EB32E1E
:1059A000C42ED52EE62EF72E082F192F4091A716BC
:1059B0002091A5163091A61690E05BE01EC0959F41
:1059C000F0011124E20FF31F80818A15A9F481816F
:1059D0008B1591F482818C1579F483818D1561F496
:1059E00084818E1549F485818F1531F48681801765
:1059F00019F48781811729F09F5F941701F7E0E080
:105A0000F0E0CF011F910F91FF90EF90DF90CF90CA
:105A1000BF90AF9008958091C2168823D9F58EEF7C
:105A20009FEF0E94AB2CFC01892BA1F12DEF3FEFE2
:105A30003187208781E090E09093B1168093B01673
:105A40003093B3162093B2161092B4161092B51676
:105A50001092B6161092B7161092B8161092B91688
:105A60001092BA161092BB168DE08093BC168081FE
:105A700091819093BE168093BD1680E79EE290932D
:105A8000C1168093C0168EEA96E10E949B4781E082
:105A90008093C21608956F927F928F929F92AF92D9
:105AA000BF92CF92DF92EF92FF920F931F93CF930B
:105AB000DF93CDB7DEB728970FB6F894DEBF0FBEE1
:105AC000CDBF3C0109831A832B833C834D835E83C6
:105AD0006F837887A0912013B09121138A179B07B9
