:100000000C94DA010C940A020C940A020C940A0271
:100010000C940A020C943F610C949E5C0C944D5A13
:100020000C94E1590C940A020C940A020C940A02F2
:100030000C940A020C94555F0C940A020C940A0268
:100040000C940A020C94B95A0C940A020C940A02F9
:100050000C940A020C940A020C940A020C940A02F0
:100060000C940A020C94EC610C948B600C94B860B4
:100070000C940A020C949A580C94CF220C940A0205
:100080000C940A020C940A020C940A020C940A02C0
:100090000C94AF610C94E5600C9412610C94316285
:1000A0000C940A020C940A020C9487220C940A0203
:1000B0000C940A020C940A020C940A020C940A0290
:1000C0000C940A020C940A020C940A02C108C30898
:1000D000C3083709D708D7083909D708D708D90876
:1000E000DC083709DF08E208FA08B00848091309F4
:1000F0001C091F09B808A808AB08370927093509E2
:1001000035093509C508CE08B5082C092F0932096B
:100110003509370939093B094B094E095109580975
:100120007E0A7A0AD50A820A350A0E0ACF09D70949
:10013000600A6E0AE709860ADB09DF09D50AD50AD3
:10014000D50AD50AD50A940AA20A5C0A720A760A66
:10015000B00AD50AD50AD50AC80AB40AB80ABC0A30
:10016000C40A7D2941294B29552950295A295F293B
:10017000642969296E2973293E293E293E293E2991
:100180008C293E293E293E293E2996293E29782957
:1001900087293E293E29822991293E293E293E2947
:1001A0003E293E293E293E293E293E293E293E2917
:1001B0003E293E293E299B29A029A529AA29AF2904
:1001C0003E29B4299C36D936FC36FF361037133712
:1001D0003F3742375137F6371538543769376C3760
:1001E000823785379C379F37B437C637F337203887
:1001F0004538453836805D8078809C82C480C980CF
:100200009C82FA80AD819C829C8223819C82238186
:100210009C8223819C8243819C8253819C82798130
:100220009C8285819C829D819C82D7819C82EB816E
:100230009C82FC819C8218829C823A8238974497E7
:100240007F977F977F974497449744977F974497EA
:10025000DF96FA96FF967F970297059708977F9704
:100260000D971097449744972D9741977F97309714
:100270003397F79636973697449744974497449721
:100280004497449744974497449744974497449796
:1002900044974497449744974497159744977F977A
:1002A0007F977F977F977F977F977F977F977F979E
:1002B0007F977F977F977F977F97BA986B98BD9826
:1002C000BD98BD986B986B98BD98BD986B98EC974E
:1002D00006980E98BD9813981B982598BD982D9850
:1002E0003298BD986B9854986698BD9859986198C3
:1002F000BA98BA98BA986B986B986B986B986B98F9
:100300006B986B986B986B986B986B986B986B98D5
:100310006B986B986B986B983A986B98BD98BD9852
:10032000BD98BD98BD98BD98BD98BD98BD98BD9825
:10033000BD98BD98BD98BD98130E111216151E1FBD
:10034000200F10260AABAE000008000800080010BD
:10035000000400140001001500020017000100183D
:10036000000100190001001A0001001B0002001D1D
:100370000001001E0001001F0004002300020025F0
:10038000000100DE1153560000DB1F0000000000DA
:100390000002400305000000010864000C01640035
:1003A0000000FFFFFFFFFFFFFFFFE8030000020365
:1003B0000405060080911314823111F084B701C046
:1003C00081E18093131414BE809160008861809352
:1003D00060001092600011241FBECFEFD1E2DEBF9B
:1003E000CDBF13E0A0E0B2E0E6EAF6E501E00BBF26
:1003F00002C007900D92A630B107D9F714E1A6E02C
:10040000B3E001C01D92A331B107E1F70E94F225CC
:100410000C9451AB0C9400007F937FB7F8949D9A95
:10042000A5988AEF0E946B028AEF0E946B029D984A
:1004300086E40E946B0281E0959980E08F9380EFC3
:100440000E946B028F917FBF7F9108957F937FB74A
:10045000F8949D9AA59882E00E946B029D988AE08C
:100460000E946B02889495990894881F8F9384E664
:100470000E946B028F917FBF7F9108959F937F931E
:1004800098E00E942602879577959A959923C9F757
:10049000872F7F919F9108957F937FB7F894A598B8
:1004A0009D9A8F9382E00E946B028F91879508F44A
:1004B0009D988F9384E60E946B028F919D987FBFD9
:1004C0007F9108959F9398E00E944C029A959923FA
:1004D000D9F79F9108958A958823E9F708950F9396
:1004E000DF93CF93CDB7DEB760970FB6F894DEBF3A
:1004F0000FBECDBF002309F459C029833A834B8333
:100500005C836D837E838F839887E0E2E01B2D817F
:100510003E814F8158851E16BCF01D861E861F86A3
:10052000188A8E2F992787FD9095909581959F4FDA
:1005300004C056954795379527958A95D2F7298710
:100540003A874B875C872AC0CA01B901002E04C0D4
:1005500096958795779567950A94D2F76D877E87EC
:100560008F87988BDA01C90104C0880F991FAA1FD1
:10057000BB1FEA95D2F729813A814B815C8104C087
:1005800056954795379527950A95D2F7822B932B49
:10059000A42BB52B89879A87AB87BC8729853A8599
:1005A0004B855C856D857E858F85988960960FB6B5
:1005B000F894DEBF0FBECDBFCF91DF910F910895AC
:1005C0002E9863995E9808952E9A809107039091D2
:1005D000080382309105C1F48091090390910A03C8
:1005E000009791F481E090E090930A0380930903CF
:1005F0002FB7F8948091E20C9091E30C9260909365
:10060000E30C8093E20C2FBF08950895FC018785C9
:1006100090890097E1F482E090E090930803809342
:10062000070310920A03109209031092060385E54E
:1006300092E090930F0380930E0384E393E09093F2
:100640001103809310038BE093E00E9435122FB7C3
:10065000F8948091E20C9091E30C92609093E30CFB
:100660008093E20C2FBF08958F929F92AF92BF921A
:10067000CF92DF92EF920F93CF93DF936C012D987F
:10068000C2E1D3E000E0802E02E0902ECE01B40162
:100690000E944FA8CE0120914F023091500240910C
:1006A00051025091520260915302709154020BE634
:1006B000B8E3EB2E0E94CDA4CE0164E072E00E946C
:1006C0004FA8CE0120914F0230915002409151022B
:1006D0005091520260915302709154020E94CDA435
:1006E00020E333E0D6015E964C915E975F966C9165
:1006F0005F9790967C91C90150E00E943FA8A8E0C6
:10070000AA2EA2E0BA2ECE01B5010E944FA8CE01BA
:1007100020914F023091500240915102509152026B
:10072000609153027091540201E0EE24E3940E9420
:10073000CDA4EDB7FEB738970FB6F894FEBF0FBE45
:10074000EDBF3196ADB7BEB71296DC93CE9311973D
:1007500089E192E093838283809131039091320307
:10076000A0913303B091340384839583A683B78328
:100770000E9456A8EDB7FEB738960FB6F894FEBFA4
:100780000FBEEDBFCE0120914F023091500240913B
:1007900051025091520260915302709154020E9492
:1007A000CDA4CE01B5010E944FA8CE0120914F02E9
:1007B0003091500240915102509152026091530287
:1007C00070915402FBE0EF2E0E94CDA400D000D027
:1007D00000D0EDB7FEB73196ADB7BEB71296DC9339
:1007E000CE93119783E292E093838283D6019A9607
:1007F0008C91992787FD9095958384830E9456A8B4
:10080000EDB7FEB736960FB6F894FEBF0FBEEDBF3C
:10081000CE0120914F0230915002409151025091EF
:10082000520260915302709154020E94CDA4CE01F5
:10083000B4010E944FA8CE0120914F023091500286
:1008400040915102509152026091530270915402B2
:100850000BE6E8E3EE2E0E94CDA4CE016DE272E03D
:100860000E944FA8CE0120914F023091500240913A
:1008700051025091520260915302709154020E94B1
:10088000CDA42D9ADF91CF910F91EF90DF90CF9073
:10089000BF90AF909F908F900895CF92DF92EF928C
:1008A0000F93CF93DF936C012D9A10925D031092FA
:1008B0005C03DC018D919C911197C2E1D3E000971C
:1008C00009F04AC010920A0310920903CE0160E0B9
:1008D00072E00E944FA8CE0120914F023091500249
:1008E0004091510250915202609153027091540212
:1008F0000BE6F8E3EF2E0E94CDA400D000D000D08C
:10090000EDB7FEB73196ADB7BEB71296DC93CE9376
:1009100011978DE292E093838283D6018D919C9111
:10092000958384830E9456A8EDB7FEB736960FB61E
:10093000F894FEBF0FBEEDBFCE0120914F02309163
:1009400050024091510250915202609153027091B5
:1009500054020E94CDA44BC0CE0160E072E00E9420
:100960004FA8CE0120914F02309150024091510288
:100970005091520260915302709154020BE6E8E3E9
:10098000EE2E0E94CDA400D000D000D0EDB7FEB76F
:100990003196ADB7BEB71296DC93CE93119781E333
:1009A00092E093838283D6018D919C919583848379
:1009B0000E9456A8EDB7FEB736960FB6F894FEBF64
:1009C0000FBEEDBFCE0120914F02309150024091F9
:1009D00051025091520260915302709154020E9450
:1009E000CDA481E090E090930A03809309032FB790
:1009F000F8948091E20C9091E30C92609093E30C58
:100A00008093E20C2FBFDF91CF910F91EF90DF9099
:100A1000CF900895CF92DF92EF92FF920F931F93A2
:100A2000DF93CF9300D0CDB7DEB7809107039091CD
:100A300008038130910509F470C18130910528F0D7
:100A40008230910509F066C2A9C1569A5E9A259A2C
:100A5000269A2D982E980E942AA780EE92E064EEA6
:100A600072E00E94EE078FEF9FEF9A8389838E01D9
:100A70000F5F1F4F81E2B80142E050E00E94F9A6EB
:100A800081E2B80142E050E00E94B7A6E9818A8184
:100A9000E095E0933503EE2319F42D982E98FFCFBF
:100AA00080958F70855F8093360330E040E050E0A2
:100AB00060E070E0CB011E2F1F5DF1E01E1708F013
:100AC000F0E0E1E0323B08F4E0E001EBF02EFF0E55
:100AD000E060F1E04C3B08F4F0E00E2F0554E1E05B
:100AE0000B3B08F0E0E0FE2BE1E05C3B08F4E0E0CB
:100AF000BF2FB554F1E0BB3B08F0F0E0EF2BF1E085
:100B00006C3A08F4F0E0AE2FA555E1E0AB3A08F0FE
:100B1000E0E0FE2BE1E07B3A08F4E0E0F655CC247F
:100B2000C394FA3A08F0CC24EC29CC24C3948B3A31
:100B300008F4CC249E2F965581E09A3A08F080E084
:100B40008C29865510933703F092380300933903AC
:100B5000B0933A03A0933B03F0933C0390933D037F
:100B600080933E0383E190E067E373E00E94C00955
:100B70008091350380933F03109240038FE090E013
:100B80006FE373E00E94C00981E090E0A0E0B0E074
:100B90000090360304C0880F991FAA1FBB1F0A9438
:100BA000D2F78093410390934203A0934303B09301
:100BB000440381E190E061E473E00E94C0090E9477
:100BC00002A60E9452A200D000D000D0EDB7FEB71E
:100BD0003196B2E1CB2EB3E0DB2EADB7BEB71296A5
:100BE000DC92CE92119787E392E09383828381E631
:100BF00092E0958384830E9456A88DB79EB706968F
:100C00000FB6F8949EBF0FBE8DBFC60120914F0254
:100C10003091500240915102509152026091530222
:100C20007091540201E0A2E3EA2E0E94CDA400D00C
:100C300000D000D0EDB7FEB73196ADB7BEB7129673
:100C4000DC92CE9211978BE392E093838283809122
:100C50003603848315820E9456A88DB79EB70696E8
:100C60000FB6F8949EBF0FBE8DBFC60120914F02F4
:100C700030915002409151025091520260915302C2
:100C80007091540201E6FEE1EF2E0E94CDA400D047
:100C900000D000D0EDB7FEB73196ADB7BEB7129613
:100CA000DC92CE92119781E492E0938382838091CB
:100CB0003503848315820E9456A88DB79EB7069689
:100CC0000FB6F8949EBF0FBE8DBFC60120914F0294
:100CD0003091500240915102509152026091530262
:100CE00070915402E8E2EE2E0E94CDA42D9A2E9A25
:100CF0001092060381E090E090930803809307032D
:100D00002FB7F8948091E20C9091E30C926090934D
:100D1000E30C8093E20C2FBFFDC080910603882373
:100D200091F582E193E060E072E00E944FA882E1D9
:100D300093E020914F023091500240915102509126
:100D4000520260915302709154020BE618E3E12EB7
:100D50000E94CDA482E193E067E472E00E944FA874
:100D600082E193E020914F02309150024091510274
:100D70005091520260915302709154020E94CDA48E
:100D800081E08093060386E093E09093570380937D
:100D9000560385E493E00E94584DBCC08091060341
:100DA000882391F582E193E060E072E00E944FA811
:100DB00082E193E020914F02309150024091510224
:100DC0005091520260915302709154020BE6B8E3C5
:100DD000EB2E0E94CDA482E193E06DE272E00E94CE
:100DE0004FA882E193E020914F0230915002409150
:100DF00051025091520260915302709154020E942C
:100E0000CDA481E080930603C0900903D0900A032B
:100E100091E0C916D10431F0A5E0CA16D10409F059
:100E200079C06EC02D98D0925D03C0925C0382E1C0
:100E300093E060E072E00E944FA882E193E020918D
:100E40004F023091500240915102509152026091F4
:100E50005302709154020BE6A8E3EA2E0E94CDA43F
:100E600082E193E06BE472E00E944FA882E193E09C
:100E700020914F0230915002409151025091520204
:100E800060915302709154020E94CDA481E080933E
:100E90008C0310928D0382E090E0909391038093F5
:100EA0009003109293031092920322E020939C03EC
:100EB000809156029091570290939E0380939D03D8
:100EC000D092A003C0929F032093A1032093A2037A
:100ED0008CE893E09093A4038093A3038091A503EF
:100EE0008B7F8093A5031092A6038DE494E09093EA
:100EF000A8038093A7038EE893E00E94CD1E0AC04A
:100F000085E093E090935B0380935A0388E593E038
:100F10000E94C3490F900F90CF91DF911F910F91C5
:100F2000FF90EF90DF90CF900895DF93CF93CDB7F0
:100F3000DEB761970FB6F894DEBF0FBECDBFFC01E0
:100F4000808191818F38910539F4198A188ACE01F0
:100F500001960E94060317C081399105A1F41092F1
:100F6000060381E090E090930803809307032FB776
:100F7000F8948091E20C9091E30C92609093E30CD2
:100F80008093E20C2FBF61960FB6F894DEBF0FBEC0
:100F9000CDBFCF91DF9108950895089586E090E048
:100FA0000E94CE258091AF0381608093AF03809132
:100FB000AF0384608093AF038091B5038160809319
:100FC000B5032FB7F8948091E20C9091E30C9160F7
:100FD0009093E30C8093E20C2FBF08952091B4030B
:100FE000222321F521E02093B4039093B103809351
:100FF000B0037093B3036093B20386E090E060E0C7
:1010000070E04EEC57E00E949D25669B04C08091E5
:10101000AF038E7F03C08091AF0381608093AF03E5
:1010200086E090E00E94562580E0089581E00895D2
:101030008091B403813081F486E090E00E947425B1
:101040001092B1031092B0031092B3031092B20346
:101050001092B40380E0089581E008958091AF0379
:1010600081709091AF0391FD826008958091AF03EC
:1010700082FF12C08091AF038B7F8093AF0380917A
:10108000AF0380618093AF03E091B003F091B103AF
:10109000309711F081E009958091AF0384FF2AC059
:1010A000669B17C08091AF038F7E8093AF038091C2
:1010B000AF038E7F8093AF03E091B203F091B3034F
:1010C000309711F081E0099586E090E00E94562566
:1010D00008958091B50381608093B5032FB7F8948C
:1010E0008091E20C9091E30C91609093E30C8093DB
:1010F000E20C2FBF08958091B50380FF05C08E7F5D
:101100008093B5030E9436088091B503882361F06F
:101110002FB7F8948091E20C9091E30C916090933A
:10112000E30C8093E20C2FBF0895CF93DF93EB0184
:10113000209709F4C0C08A32910508F0BCC08A59D2
:101140009F4FFC01EE0FFF1F0590F491E02D0994D5
:101150008091C703AFC08091770290917802A5C0BB
:101160008091710290917202A0C08091C803A2C0C8
:1011700080917E0290917F02A0918002B0918102C5
:1011800082C084E097C0188296C08091CE0390916F
:10119000CF03A091D003B091D10375C0809182029A
:1011A00090918302A0918402B09185026CC082E08C
:1011B00081C080917C027EC080917B027BC0809147
:1011C0007D0278C08091B60388838091B7038983BC
:1011D0008091B8038A838091B9038B838091BA038D
:1011E0008C838091BB038D838091BC038E8380911F
:1011F000BD0317C080916902888380916A02898348
:1012000080916B028A8380916C028B8380916D0246
:101210008C8380916E028D8380916F028E8380918A
:1012200070028F8348C08091730290917402A091E4
:101230007502B091760227C08091BE033BC0EFEBF0
:10124000F3E088E0019009928150E1F734C084EB2B
:1012500090E0A0E0B0E017C0809179022BC08091AF
:10126000C90328C08091D20325C081E023C085E056
:1012700021C083E01FC08091870290918802A091D5
:101280008902B0918A0288839983AA83BB8313C0A1
:1012900080917A020FC08091CA030CC08091CB0369
:1012A00009C08091CC039091CD039983888303C0BA
:1012B000809186028883DF91CF910895FB0186306B
:1012C000910509F440C087309105A0F48230910562
:1012D00071F18330910538F4009719F1813091054F
:1012E00009F04BC021C08430910539F1853091055A
:1012F00038F520C08A30910591F18B30910538F492
:101300008830910531F18930910530F51FC08C305E
:10131000910559F18C30910528F18D30910569F5D1
:1013200027C083ED93E026C087EA94E023C085E1DF
:1013300095E020C081ED96E01DC085E197E01AC0E0
:1013400081E797E017C081E797E014C08DEB97E045
:1013500011C089E198E00EC08CE398E00BC08FEBE0
:1013600098E008C083EC98E005C08AEC98E002C0E1
:1013700081E099E09183808308951182108208951D
:10138000DB01FC013997E132F10508F00EC1E057AD
:10139000FF4FEE0FFF1F0590F491E02D09948D9102
:1013A0009C911197909372028093710208958C9191
:1013B00080937A0208958C918093C70308958D914C
:1013C0009C911197909378028093770208958C9165
:1013D0008093BF0311968C9111978093C00312964E
:1013E0008C9112978093C10313968C9113978093DD
:1013F000C20314968C9114978093C30315968C9115
:1014000015978093C40316968C9116978093C50305
:1014100017968C9117978093C60308958C918093AB
:10142000690211968C91119780936A0212968C91A1
:10143000129780936B0213968C91139780936C0292
:1014400014968C91149780936D0215968C91159734
:1014500080936E0216968C91169780936F02179662
:101460008C9117978093700208958C918093B603A6
:1014700011968C9111978093B70312968C911297C5
:101480008093B80313968C9113978093B9031496A5
:101490008C9114978093BA0315968C91159780932D
:1014A000BB0316968C9116978093BC0317968C916C
:1014B00017978093BD0308958C918093C803089576
:1014C0008D919D910D90BC91A02D8093730290936E
:1014D0007402A0937502B093760208958C91809364
:1014E000BE0308958C918093790208958C91809326
:1014F000C90308958C9180937B0208958C91809309
:101500007C0208958C9180937D0208958D919D9128
:101510000D90BC91A02D80937E0290937F02A093AA
:101520008002B093810208958D919D910D90BC91A0
:10153000A02D8093CE039093CF03A093D003B093BC
:10154000D10308958D919D910D90BC91A02D809314
:10155000820290938302A0938402B093850208953F
:101560008C918093D20308958C918093CA0308953F
:101570008C918093CB0308958D919C9111979093BA
:10158000CD038093CC0308958C91809386020895B7
:101590008D919D910D90BC91A02D80938702909389
:1015A0008802A0938902B0938A0208950E947F0D59
:1015B00008951092B6031092B7031092B8031092D8
:1015C000B9031092BA031092BB031092BC0310929D
:1015D000BD038AEA8093690280936A0280936B025A
:1015E00080936C0280936D0280936E0280936F02F1
:1015F000809370028FEF9FEF90937202809371023D
:1016000080E090E0A1E0B0E08093730290937402D8
:10161000A0937502B09376021092BE031092BF039E
:101620001092C0031092C1031092C2031092C30320
:101630001092C4031092C5031092C6031092C70300
:1016400082E090E090937802809377021092C80332
:1016500083E0809379021092C90381E080937A023B
:101660001092CA031092CB031092CD031092CC03B8
:10167000089502C00E94A03F0E9418218823D1F73C
:101680000895CF92DF92EF92FF920F931F93DF9313
:10169000CF93CDB7DEB727970FB6F894DEBF0FBE56
:1016A000CDBF8C0119820097C9F1FC0110821B8209
:1016B0001A8281E090E09F838E837E010894E11C72
:1016C000F11C82E0C82ED12CCC0EDD1E1FC0FD8285
:1016D000EC820E94390BC60160E070E00E94D821C4
:1016E000FFEF8F3F9F0731F481E090E0F801948392
:1016F000838314C00E94390BF80180819981890F7E
:1017000080838A819B8101969B838A838A819B81C6
:1017100086329105E0F2F8011482138227960FB603
:10172000F894DEBF0FBECDBFCF91DF911F910F9117
:10173000FF90EF90DF90CF900895EF92FF920F937C
:101740001F93DF93CF9300D000D000D0CDB7DEB78A
:101750008C010097B9F186E290E09A83898381E059
:1017600090E09E838D837E010894E11CF11C1EC0D5
:101770001C830B830E94390BC70160E070E00E945C
:10178000D8212FEF8F3F920731F481E090E0F801EC
:101790009483838317C00E94390BF80120818981CB
:1017A0009A812F3F59F401969A83898389819A817E
:1017B00080339105E8F286E290E0F801928381831C
:1017C0001482138226960FB6F894DEBF0FBECDBFEB
:1017D000CF91DF911F910F91FF90EF900895DF93CC
:1017E000CF93CDB7DEB761970FB6F894DEBF0FBECB
:1017F000CDBF8FEF8983CE0102960E949D0B8D8114
:101800009E818130910509F44BC0CE0107960E945C
:10181000410B8A859B858130910509F441C09F81E8
:101820008A81890FD1F191959F838B819C819D87BE
:101830008C87CE0101969F878E8781E090E0998BFF
:10184000888B0E94390BCE010C966CE57CE00E94DF
:1018500058212FEF8F3F920719F10E94390B8C8589
:101860009D8501969D878C878033910520F086E2C7
:1018700090E09D878C87CE0107969F878E870E9478
:10188000390BCE010C966CE57CE00E9458212FEFBD
:101890008F3F920729F00E94390B20E030E002C010
:1018A00021E030E0C90161960FB6F894DEBF0FBEAB
:1018B000CDBFCF91DF9108950895BF92CF92DF926F
:1018C000EF92FF920F931F93DF93CF93CDB7DEB7C5
:1018D0006C970FB6F894DEBF0FBECDBF10924A0DC5
:1018E000DD248E01035F1F4F7E010894E11CF11C73
:1018F00082E0B82ECC24C3948D2D0E94BC0F809121
:101900004A0D882329F410934E0D00934D0D09C004
:10191000813039F48091490D90E06DE47DE00E94C2
:101920005E0980914A0D823069F48091490D8B8364
:101930001C82C7010E94C1292B853C8530934E0D26
:1019400020934D0D0E94390B8BE49DE060E070E028
:101950000E94D8212FEF8F3F920701F10E94390B8F
:1019600080914A0D882331F48091490D90E0B801AF
:101970000E94C009D3948D2D8C3019F4C0924A0D69
:10198000BBCF2D2D2D3019F4B0924A0DB5CF8D2D32
:101990008F3008F4B1CF20E030E002C021E030E029
:1019A000C9016C960FB6F894DEBF0FBECDBFCF91C4
:1019B000DF911F910F91FF90EF90DF90CF90BF903C
:1019C0000895CF92DF92EF92FF920F931F93DF93D0
:1019D000CF93CDB7DEB765970FB6F894DEBF0FBED5
:1019E000CDBF0E94D90ACC2426E0E22EF12CEC0EC9
:1019F000FD1E8C2D0E94BC0F8091490D90E0B70117
:101A00000E9495080DE41DE0F0924E0DE0924D0D00
:101A10000E94390BC80102976CE57CE00E945821B6
:101A20002FEF8F3F920709F458C00E94390BC394DF
:101A30008C2D8C30F1F6C7016FEF70E04AE050E07A
:101A40000E9448A8F0924E0DE0924D0D96E2C92EEC
:101A5000D12CD0924C0DC0924B0D8AE090E0F80151
:101A6000938382830E94390BC80102976CE57CE066
:101A70000E945821FFEF8F3F9F0779F10E94390B99
:101A80007E010894E11CF11CC7010E94410B8C816E
:101A90009D818130910509F1898181958983D09259
:101AA0004C0DC0924B0DF0924E0DE0924D0D81E029
:101AB00090E0F801938382830E94390BC80102975A
:101AC0006CE57CE00E945821FFEF8F3F9F0729F0D3
:101AD0000E94390B20E030E002C021E030E0C90173
:101AE00065960FB6F894DEBF0FBECDBFCF91DF91E4
:101AF0001F910F91FF90EF90DF90CF900895DF93AB
:101B0000CF93CDB7DEB72A970FB6F894DEBF0FBEDE
:101B1000CDBFCE0106960E94410B89859A85813002
:101B2000910509F1CE0101960E949D0B8C819D814A
:101B300081309105C1F089819E81890F51F40E9405
:101B40005D0C8130910579F00E94730E20E030E049
:101B50000CC00E94E10C8130910529F00E94730EA7
:101B600022E030E002C021E030E0C9012A960FB641
:101B7000F894DEBF0FBECDBFCF91DF910895809165
:101B80002509882349F48BE39DE00E9443100E94BD
:101B9000281002C00E94A03F809125098130D1F316
:101BA00008950F931F93DF93CF9300D000D000D000
:101BB000CDB7DEB78901C0969A8389835E834D8352
:101BC0007C836B8302C00E94A03F809125098130F5
:101BD000D1F30115110511F40CE51CE00E94390B3D
:101BE000CE010196B8010E94D8212FEF8F3F9207B6
:101BF00039F08CE00C35180731F40E94390B03C022
:101C000021E030E002C020E030E0C90126960FB6A6
:101C1000F894DEBF0FBECDBFCF91DF911F910F9122
:101C200008950F931F93DF93CF9300D000D000D07F
:101C3000CDB7DEB78901C0969A8389835E834D83D1
:101C40007C836B8302C00E94A03F80912509813074
:101C5000D1F30115110511F40CE51CE00E94390BBC
:101C6000CE010196B8010E9458212FEF8F3F9207B5
:101C700039F08CE00C35180731F40E94390B03C0A1
:101C800021E030E002C020E030E0C90126960FB626
:101C9000F894DEBF0FBECDBFCF91DF911F910F91A2
:101CA00008959093480D8093470D662329F480EEA4
:101CB00093E9A4E0B0E004C082E390E0A0E0B0E0EB
:101CC0008093410D9093420DA093430DB093440D2A
:101CD00081E090E09093460D8093450D8BE39DE06D
:101CE0000E946710089510924A0D88E290E160E02A
:101CF0000E94510E0895EF92FF920F931F93DF936E
:101D0000CF93CDB7DEB760970FB6F894DEBF0FBEA6
:101D1000CDBF7E010894E11CF11CF0924E0DE092C3
:101D20004D0D07E219E08091490D90E0B8010E9445
:101D300095080E94390B8BE49DE060E070E00E9402
:101D4000D8210E94390B40914F0D5091500DC80180
:101D5000B7010E9432A8009761F010934E0D0093D6
:101D60004D0D8BE49DE068E270E10E94582181E016
:101D700001C080E060960FB6F894DEBF0FBECDBF05
:101D8000CF91DF911F910F91FF90EF900895AF9247
:101D9000BF92CF92DF92EF92FF920F931F93DF9348
:101DA000CF9300D00F92CDB7DEB7CE0101969093BE
:101DB0004E0D80934D0DC0904F0DD090500DA090C2
:101DC0004B0DB0904C0D81E090E09093500D8093BE
:101DD0004F0D8091490D90E0BE016E5F7F4F0E94D4
:101DE0005E0900E010E031C00E94390B8BE4E82E60
:101DF0008DE0F82EC70160E070E00E94D8210E94BB
:101E0000390B8A819B81FC01E00FF11F3081298110
:101E1000321781F0F70193838283D582C482B09216
:101E20004C0DA0924B0DC70168E270E10E94582151
:101E300081E00FC080914B0D90914C0D01969093D5
:101E40004C0D80934B0D0F5F1F4F0C151D0560F25D
:101E500080E00F900F900F90CF91DF911F910F9125
:101E6000FF90EF90DF90CF90BF90AF9008956F926A
:101E70007F928F929F92AF92BF92CF92DF92EF921A
:101E8000FF920F931F93DF93CF93CDB7DEB72D97BC
:101E90000FB6F894DEBF0FBECDBFCE010196909372
:101EA0004E0D80934D0D80904F0D9090500D609091
:101EB0004B0D70904C0D81E090E09093500D80930D
:101EC0004F0D8091490D8C831D82CE0102960E9498
:101ED000C1293C852D85A32EB22EA114B104B1F1E8
:101EE000C901C92ED82EEE24FF242DC00E94390B23
:101EF0000BE41DE0C80160E070E00E94D8210E9460
:101F0000390BF60191916F018981981781F0F801E1
:101F1000B382A2829582848270924C0D60924B0DA6
:101F2000C80168E270E10E94582181E010C08091F0
:101F30004B0D90914C0D019690934C0D80934B0D51
:101F40000894E11CF11CE814F90480F280E02D965D
:101F50000FB6F894DEBF0FBECDBFCF91DF911F91BA
:101F60000F91FF90EF90DF90CF90BF90AF909F9038
:101F70008F907F906F9008950F931F93DF93CF936F
:101F800000D000D0CDB7DEB7082F10E0B801685CF4
:101F90007C4F89E49DE041E050E00E9429A8B8010F
:101FA000660F771F660F771F695B7C4FCE01019626
:101FB00044E050E00E9429A889819A8190934C0DB9
:101FC00080934B0D8B819C819093500D80934F0D8E
:101FD0000F900F900F900F90CF91DF911F910F9165
:101FE0000895809126090E94BC0F80914A0D882394
:101FF00021F40E947B0E882339F580914A0D8130AF
:1020000021F40E94C70E8823F9F480914A0D823092
:1020100021F40E94370F8823B9F4809126098F5F3D
:10202000809326098C3011F481E003C08D3029F4AF
:1020300082E080934A0D80E008958F3039F4109249
:10204000260983E080934A0D81E0089580E0089599
:1020500081E0809325090E94F10F8823E1F38091AC
:102060004A0D833079F40E94EF0B8130910531F4F1
:1020700088E290E161E00E94510E08950E94730E83
:10208000109225090895CF93DF93EC01892BD1F0AD
:1020900080913B0990913C098C179D0719F460E0F1
:1020A00070E008C0BE018BE399E00E94CB3FBC0109
:1020B000892B41F0AE018BE399E00E94AF3F80E0B5
:1020C00090E002C08FEF9FEFDF91CF910895CF9303
:1020D000DF93EC01892B71F0E0913B09F0913C0911
:1020E00006C0EC17FD0751F10190F081E02D30970B
:1020F000C1F703C08FEF9FEF23C08FB7F8949927E4
:1021000020913709309138094091390950913A09A5
:102110008FBF198218828E819F81A885B985820F11
:10212000931FA41FB51F8A839B83AC83BD83BE010D
:102130008BE399E00E94A33F0E943E2280E090E062
:10214000DF91CF910895CF92DF92EF92FF920F939C
:102150001F93CF93DF93C0913B09D0913C096E014F
:1021600038C08FB7F89499272091370930913809F2
:102170004091390950913A098FBFEA80FB800C8168
:102180001D812E153F0540075107F8F08A859B8574
:10219000019739F4AE01B6018BE399E00E94AF3F9D
:1021A0000CC08E819F81A885B985E80EF91E0A1F93
:1021B0001B1FEA82FB820C831D83EC85FD8509953C
:1021C00080913B0990913C0903C0888199816E01FF
:1021D000EC01209731F6DF91CF911F910F91FF9085
:1021E000EF90DF90CF900895609145097091460976
:1021F00080914709909148090895CF93DF93982FD4
:10220000A0918B02B0918C0203C00D90BC91A02DC7
:10221000109731F0ED01EB81FC8180819817A9F7CF
:10222000CD01DF91CF910895CF93DF93282F809137
:102230008B0290918C022F3F99F0DC0103C00D902E
:10224000BC91A02D1097C1F0ED01EB81FC81808144
:102250002817A9F761708A818E7F862B8A830CC02C
:10226000FC01617007C082818E7F862B8283019082
:10227000F081E02D3097B9F7DF91CF9108958091EB
:102280008B0290918C02089561E00E9414110895D0
:1022900060E00E941411089510923E0910923D09C9
:1022A00010923F0910924009109241091092420980
:1022B0000895A0913D09B0913E09109731F0ED913C
:1022C000FC911197CD01029609950895009729F484
:1022D0008BE892E00E948F3D08950E94CE3D0895C4
:1022E000CF93DF93EC011B821A8290933E09809377
:1022F0003D090E9405200397B9F484E090E00E9414
:10230000F81F8091370990913809A0913909B0914F
:102310003A098093450990934609A0934709B093E1
:1023200048090E94251504C083EA90E09B838A83B4
:1023300010923F09109240091092410910924209EF
:1023400080E090E00E94B92080913F09909140097F
:10235000A0914109B0914209836080933F09909315
:102360004009A0934109B0934209DF91CF910895AC
:1023700080959095AA27BB2720913F09309140096D
:10238000409141095091420982239323A423B5230C
:1023900080933F0990934009A0934109B09342096B
:1023A0000097A105B10549F480E00E94D71E85E0A1
:1023B00090E00E94F81F0E94591108950E94052084
:1023C000059721F00E940520049721F480E090E019
:1023D0000E94B8110895CF93DF93EC011B821A82FB
:1023E0000E9405208230910511F0059729F483E0C1
:1023F00090E00E94F81F04C083EA90E09B838A83E8
:102400000E945214E881F981CE0102960995DF916C
:10241000CF9108950F931F938C0162E070E08CE8D8
:102420000E941521109344090093430981E090E034
:102430000E94F81FF801808180934B0988E792E1A0
:1024400090934D0980934C0989E499E00E946B3682
:102450001F910F9108950E9456368BE892E00E94DA
:10246000793D80E00E9454560895CF93DF93EC01AC
:10247000EB81FC819081892F8150803FD0F4A09125
:102480008B02B0918C0203C00D90BC91A02D1097CF
:1024900041F0FD0123813481F90180819817A1F772
:1024A00008C08A818E7F8A83BE018BE892E00E94F9
:1024B0007F3DDF91CF910895CF93DF93FC01908111
:1024C000A0918B02B0918C0203C00D90BC91A02D05
:1024D000109759F0ED01EB81FC8180819817A9F7E5
:1024E000BD018BE892E00E94AB3DDF91CF91089552
:1024F0001F93CF93DF93EC010E940A20892B11F0E8
:102500000E94181810E0E0914309F091440980817D
:10251000813009F411E0812F0E94362010923E098B
:1025200010923D0910923F09109240091092410902
:1025300010924209812F0E945020812F0E945456F0
:10254000812F0E94D71EE0914309F09144098081B8
:10255000882319F482E090E002C083E090E00E94BA
:10256000F81FE0914309F0914409888199279483E9
:10257000838321813281CF010396F901099510925D
:10258000440910924309DF91CF911F9108958091E2
:1025900054098F5F80935409815099270895809141
:1025A00053098F5F80935309815099270895FF92B3
:1025B0000F931F93182F60915A0920915F09309152
:1025C000600990E0FF248BC082E2989FA001112453
:1025D000F901E40FF51F8081882309F07DC01230D6
:1025E00020F0123009F07EC016C090915E098091F3
:1025F0005C09981708F076C09F5F90935E0913827C
:10260000148215821682E0915F09F0916009E40F4F
:10261000F51F178241C090915D0980915B09981761
:1026200008F060C0B091570960915809709159093C
:10263000A0E00EE29F5F2DC0A09F90011124FB013E
:10264000E20FF31F808180FD23C090935D0980819C
:1026500081608083E0915809F0915909E20FF31FDE
:10266000808183708F298083E0915F09F0916009F8
:10267000E40FF51F8091580990915909820F931F1B
:102680008396928B818B809157098A1729F42AC0EF
:10269000AF5FAB1789F626C0E0915F09F091600942
:1026A000E40FF51F1282E0915F09F0916009E40FD9
:1026B000F51F81E08083E0915F09F0916009E40FEC
:1026C000F51F1183E0915F09F0916009E40FF51F98
:1026D00011861086CF0108C09F5F84E0F80E961720
:1026E00009F072CF80E090E01F910F91FF90089564
:1026F000CF93DF93E0915F09F09160098E179F07F8
:1027000008F461C08E1B9F0B62E270E00E9482A7FA
:1027100080915A09681708F056C082E2689FE0016C
:102720001124EC0FFD1F1282E0915F09F091600906
:10273000EC0FFD1F8181823018F08230E9F508C06E
:1027400080915E098823C1F1815080935E0934C075
:1027500080915D09882319F0815080935D09209153
:1027600058093091590981899289821B930B6EE235
:1027700070E00E9482A780915B096817A8F48EE23E
:10278000689FB0011124F901E60FF71F808180FFD7
:102790000BC08E7F8083E0915809F0915909E60FB4
:1027A000F71F80818D7F8083E0915F09F091600940
:1027B000EC0FFD1F128A118AE0915F09F091600908
:1027C000EC0FFD1F1082DF91CF910895FC01148A58
:1027D0008091560981508093560922893389CF010F
:1027E0004496F90109950895FC01DA01892BD9F085
:1027F000748F638F452B51F08D919D910D90BC91FD
:10280000A02D858F968FA78FB0A304C0158E168E2E
:10281000178E10A2218D328D2115310521F0CF01A7
:102820004B96F9010995089590E080915209811124
:1028300091E081E09827892F992708951F9371E0EF
:1028400020E030E060918A0917E040914F095091F3
:1028500050091DC0819FF0011124E40FF51F8381F1
:102860009481A581B6818A309105A105B10548F012
:102870000A97A109B10983839483A583B68370E085
:1028800004C013821482158216822F5F3F4F822F5D
:10289000261700F3772321F081E699E00E94D620E5
:1028A0001F9108950F931F93CF93DF93CDB7DEB79A
:1028B00027970FB6F894DEBF0FBECDBFBE016F5F86
:1028C0007F4F89E290E00E949508898199270796B9
:1028D000AA2797FDA095BA2F9C01AD01E4E0220F35
:1028E000331F441F551FEA95D1F7281B390B4A0B9C
:1028F0005B0B2093820930938309409384095093A2
:102900008509BE016E5F7F4F86E190E00E949508C9
:102910008A819B810297D1F58E010C5F1F4FB80110
:1029200084E190E00E9495082C813D814E815F8179
:1029300089819927AA27BB2782179307A407B50780
:1029400068F0220F331F441F551F2C833D834E8395
:102950005F83B80184E190E00E94C0098091820900
:1029600090918309A0918409B09185092C813D81C2
:102970004E815F81820F931FA41FB51F8093820930
:1029800090938309A0938409B093850962E879E064
:1029900088E190E00E94C0098091820990918309AA
:1029A000A0918409B09185099C01AD01220F331FCC
:1029B000441F551F280F391F4A1F5B1F209386098C
:1029C0003093870940938809509389090EE114E1F7
:1029D0002AE030E040E050E060E070E081E699E01D
:1029E0000E94E12002E315E12AE030E040E050E0FF
:1029F00060E070E081E799E00E94E1208091710938
:102A000090917209019741F481E799E00E94D620E4
:102A100081E799E00E940721809161099091620904
:102A2000019741F481E699E00E94D62081E699E081
:102A30000E94072127960FB6F894DEBF0FBECDBFC8
:102A4000DF91CF911F910F91089581E799E00E9446
:102A5000D62081E699E00E94D62083E090E00E9493
:102A6000B92008951F93CF93DF9311E0C0E0D0E029
:102A700036C082E2E89F90011124E0915F09F09155
:102A80006009E20FF31F8081882341F18181813049
:102A900029F58281823011F583819481A581B681E7
:102AA0008A309105A105B10548F00A97A109B1093D
:102AB00083839483A583B68310E010C083E0828370
:102AC000E0915F09F0916009E20FF31F1382148215
:102AD0001582168283E090E00E94B9202196EC2FA7
:102AE00080915A09C81728F2113021F481E799E042
:102AF0000E94D620DF91CF911F910895CF93DF934D
:102B0000EC018A818130F1F081E08A838F818150EC
:102B10008F83809153098F5F8093530981508B8BF2
:102B2000809152098F5F8093520964E070E081E8E0
:102B30000E941521CE010A960E94A53081E799E0F6
:102B40000E940721DF91CF9108950F931F93CF9398
:102B5000DF930E940520049721F00E94052005972D
:102B600081F500E010E027C082E2989FE001112487
:102B7000E0915F09F0916009EC0FFD1F80818823CF
:102B8000C1F081818130A9F482818250823088F441
:102B900040E050E063EA70E0808591850E94F41384
:102BA00080915F09909160098C0F9D1F4A960E9449
:102BB00078130F5F1F4F902F80915A090817A0F2CA
:102BC0003AC00E9405200397B1F500E010E02EC046
:102BD00082E2989FE0011124E0915F09F091600981
:102BE000EC0FFD1F80818823F9F081818130E1F4B1
:102BF00082818330C9F48781882321F0CF010E942C
:102C00007E1512C0AF01425E5F4F67EA70E08085BB
:102C100091850E94F41380915F09909160098C0F57
:102C20009D1F4A960E9478130F5F1F4F902F80912F
:102C30005A09081768F2DF91CF911F910F910895FB
:102C4000AF92BF92CF92DF92EF92FF920F931F93BA
:102C5000CF93DF93AC01EC01A984BA8470915A0937
:102C6000C0905F09D090600960E069C082E2689F0F
:102C700070011124F601EE0DFF1D8081882309F4F7
:102C80005DC08181813009F059C08281823009F0B4
:102C900055C0A189B28900851185EA012F81388547
:102CA000E8018C819D812817390709F047C0E501AB
:102CB0009F81ED018F81981709F040C0E5012C81BB
:102CC0003D81ED018C819D8128173907B9F5E5011A
:102CD0002A813B81ED018A819B812817390771F593
:102CE000E5019981ED018E81981741F5E5019E81FD
:102CF000ED018981981711F5D5018C91837082308F
:102D000029F47E96AF0160E070E00BC087818823D4
:102D100021F0CF010E947E1515C07E96AF0161EBB8
:102D200070E0C8010E94F41380915F0990916009DE
:102D30008E0D9F1D4A960E94781304C06F5F67171F
:102D400009F094CFDF91CF911F910F91FF90EF90F9
:102D5000DF90CF90BF90AF9008950F931F93CF93C4
:102D6000DF93DC018B0182E090E0EB019D878C8793
:102D7000FD01848195819F878E878489885F888BF8
:102D80008589968908979A8B898B809153098B8BBB
:102D90008F5F80935309808D8C8B1D8A81E08E8B91
:102DA0001F8A84E99EE1998F888FE989FA892081B9
:102DB000822F8C7F8083ED018C819D81207F875FB6
:102DC0009F4F08F02860208380818F7D8083ED01F4
:102DD0008F89908182FD03C09F7B908308C090649F
:102DE000908381E0E8018A83809181098F838081CB
:102DF0008F778083ED018E85818389899A8993837A
:102E000082838F859889958384838B89868380913B
:102E1000540987838F5F80935409809152098F5F93
:102E20008093520964E070E083E70E941521C80195
:102E30000A960E94A53080E090E0DF91CF911F912B
:102E40000F910895209152092F5F209352090E94FB
:102E5000A5300895CF93DF93CDB7DEB72C970FB68B
:102E6000F894DEBF0FBECDBF80EB90E09C838B83D8
:102E70001E821D82CE0101960E94C1298B859C85F0
:102E80002C960FB6F894DEBF0FBECDBFDF91CF9169
:102E900008956F927F929F92AF92BF92CF92DF92EE
:102EA000EF92FF920F931F93CF93DF930E94052021
:102EB0005C01892B09F4AEC082E0A816B10409F4C4
:102EC000A9C087E992E00E948F3DEC010E94CE3DAF
:102ED0009DC0E0915F09F0916009CE018E1B9F0BB0
:102EE00062E270E00E9482A780915A09681708F098
:102EF00083C082E2689F60011124EC0DFD1DE08417
:102F0000F184E181E130D1F0E13020F0E23009F0EC
:102F100073C06AC0C50104970297A8F0E3E0AE163B
:102F2000B10409F069C0BE0187E992E00E94AB3D9F
:102F3000AE014C5F5F4F6B81772752C09B80C5010C
:102F40000497029758F4BE0187E992E00E94AB3DD6
:102F5000AE014C5F5F4F63EA70E042C0F3E0AF1632
:102F6000B10409F049C0BE0187E992E00E94AB3D7F
:102F700000915F09109160090C0D1D1DF8018281FF
:102F80008130D1F5992039F58091810999272781E0
:102F9000821B910921E030E002C0220F331F8A9585
:102FA000E2F7442737FD4095542F609182097091D4
:102FB000830980918409909185090E9463A7F80193
:102FC000638374838583968382E0828381E799E0BB
:102FD0000E94072111C0AE014C5F5F4F692D77271A
:102FE000C7010E94F41305C0BE0187E992E00E9468
:102FF000AB3DCE010E9478136114710419F480E096
:1030000090E003C0C3010E94CE3DE3013C01209744
:1030100009F05FCFDF91CF911F910F91FF90EF905B
:10302000DF90CF90BF90AF909F907F906F9008956A
:10303000CF93DF930BC08FE892E00E94933D40E076
:1030400050E063EA70E0CE010E94F4138FE892E052
:103050000E948F3DEC01892B71F733C0BE0187E9D7
:1030600092E00E94AB3D20915F0930916009CE0152
:10307000821B930B62E270E00E9482A780915A0942
:103080006817F8F4E2E26E9FF0011124E20FF31FDB
:10309000808591856181613059F0613018F062302E
:1030A00081F40CC0AE014C5F5F4F6B81772704C089
:1030B00040E050E067EA70E00E94F413CE010E9405
:1030C000781387E992E00E948F3DEC01892B31F65D
:1030D000C0E0D0E028C082E2989FF00111248091E6
:1030E0005F0990916009E80FF91F80818823D1F072
:1030F000808591852181213059F0213018F02230CE
:1031000089F40CC060910300772744E050E004C0CC
:1031100040E050E067EA70E00E94F41380E090E045
:103120000E94781321969C2F80915A09C81798F213
:10313000DF91CF9108950F931F93CF93DF938C016D
:10314000C0E0D0E014C0EB81FC818081882379F05D
:103150008A8180FD0CC021813281F801828D938D9E
:103160002817390721F4ED81FE81C8010995CE01A8
:103170000E946611EC01892B31F7DF91CF911F91ED
:103180000F910895EF92FF920F931F93CF93DF93C8
:10319000CDB7DEB7AB970FB6F894DEBF0FBECDBF8D
:1031A0008C01FC0186858823F9F08F3FE9F00E94AD
:1031B000FD107C01009761F0FC01A381B481FD0149
:1031C00021813281F801878590892817390739F0E4
:1031D000F801878982FF0AC087EA90E069C0F70199
:1031E000828180FD63C002C0EE24FF24F801828149
:1031F00093819A83898386818D8387818E8380855D
:103200008F83818588878285898783858A8784855E
:103210008B8785858C8786858D87BE016E5E7F4F07
:1032200083E190E00E94950882E090E09F878E877E
:1032300080918A0D90918B0D998B888BF8018389F1
:103240008A8F878590899C8F8B8F818992899E8FA9
:103250008D8F84898F8F8589968999A388A38FEA1A
:1032600090E09DA38CA38FEF8EA31FA218A619A692
:103270001AA68BA78D85882329F4CE0101960E947A
:10328000C8520AC0F80186859E012F5F3F4F8F3FCD
:1032900031F4C9010E949B1880E090E009C0F70159
:1032A00045815681C901FA010995F6CF81EB90E07D
:1032B000AB960FB6F894DEBF0FBECDBFDF91CF91B6
:1032C0001F910F91FF90EF900895009719F480E0FF
:1032D00090E008950E94632D0895DF92EF92FF928F
:1032E0000F931F93CF93DF93CDB7DEB766970FB6DB
:1032F000F894DEBF0FBECDBF83E090E00E940F20A8
:10330000D82E0E94052004970297A0F40BC08FE8E6
:1033100092E00E94933D40E050E063EA70E0C80113
:103320000E94F4138FE892E00E948F3D8C01892B5C
:1033300071F7D7C086E990E09E878D87188A1F862F
:10334000CE010B960E94C129ED89FE898081918171
:103350009A838983A5C0DD2019F403EA10E096C0A2
:10336000F70187898B7F09F0ADC0F7018489853526
:1033700018F000EA10E08AC0F7018389882329F059
:103380000E94FD10892B09F4A9C0F7012281338125
:103390002230310551F484819581885F9F4F50F030
:1033A000F701878982FF06C099C0C9010297029779
:1033B00008F07FC0F7018685815F8E3008F079C004
:1033C0008DC0BE016D5F7F4F83E190E00E94950844
:1033D0009B81F70186819817F9F49C818781981762
:1033E000D9F49D8180859817B9F49E8181859817BD
:1033F00099F49F818285981779F498858385981729
:1034000059F499858485981739F49A858585981794
:1034100019F4FE01319608C0C70106960E9465198D
:10342000FC01892B09F457C080819181F7019583B4
:10343000848382E090E093838283F7012481358145
:1034400089819A812817390759F48FE892E00E9400
:10345000933DC7010E94C21840E050E0BC011DC06E
:10346000F701878982FD02C080E02FC081E02DC076
:103470008FE892E00E94933DF801F186E086B80162
:10348000C7010E94AD168C01892B51F08FE892E0A4
:103490000E94933D40E050E0B801C7010E94F41340
:1034A0008FE892E00E948F3D7C01892B09F053CF79
:1034B00018C02230310509F22330310509F481CFDB
:1034C000232B61F40AEA10E0E1CF0E94D7128C01AD
:1034D000892B71F606C009EA10E0D8CF06EA10E0A1
:1034E000D5CF66960FB6F894DEBF0FBECDBFDF9185
:1034F000CF911F910F91FF90EF90DF90089500976B
:1035000019F480E090E008950E94032E08953F9200
:103510004F925F926F927F928F929F92AF92BF92E3
:10352000CF92DF92EF92FF920F931F93CF93DF938F
:103530000E94F4105B016C0120E030E060918A0988
:1035400077E040914F09509150091DC0879FF001CD
:103550001124E40FF51F83819481A581B681A816FB
:10356000B906CA06DB0648F48A199B09AC09BD09ED
:1035700083839483A583B68304C013821482158247
:1035800016822F5F3F4F822F261700F3B1E05B2E8C
:1035900066247724A2E23A2EF3E04F2E70C0039DFA
:1035A00040011124C0915F09D0916009C80DD91D57
:1035B0008881882309F460C08981813009F05CC06A
:1035C0006F81772788279927E0908209F0908309F7
:1035D0000091840910918509A80197010E9463A7B1
:1035E0009B01AC018B819C81AD81BE81280F391F6D
:1035F0004A1F5B1FA216B306C406D50670F5CA01A2
:10360000B9016A197B098C099D096B837C838D83C1
:103610009E83A80197010E94A9A72F8300915F09AB
:1036200010916009080D191DF8016381748185816D
:1036300096812091820930918309409184095091AB
:1036400085090E94A9A7F801638374838583968303
:103650008281823089F455240FC01B821C821D8216
:103660001E821F82E0915F09F0916009E80DF91D4B
:103670008281823009F442820894611C711C062DFB
:1036800080915A09681608F48ACF552021F481E701
:1036900099E00E94072181E08093510983E090E046
:1036A0000E94B920DF91CF911F910F91FF90EF9071
:1036B000DF90CF90BF90AF909F908F907F906F9052
:1036C0005F904F903F9008958F929F92BF92CF92BC
:1036D000DF92EF92FF920F931F93CF93DF937C01C2
:1036E000B62EEC0109851A85F801808186FFE3C0BA
:1036F0008370813019F421E0D22E02C097E0D92ED8
:1037000070915A0980905F099090600960E082E2B0
:10371000C82E4D2D5527D801A40FB51F1EC06C9D76
:10372000F0011124E80DF91D80818130A9F4818117
:10373000823091F4E7012F81388586859785281797
:10374000390751F40188F289E02DE40FF51F9C91AF
:103750008081981709F4B9C06F5F671701F7ADC092
:10376000F701878190850E949726FC01892B49F0FB
:103770008485813031F4E989FA89B3978081826048
:1037800080831986188629893A8982E090E09D878E
:103790008C87F701878190859F878E878091530959
:1037A0008F5F8093530981508B8B1C8A1D8A81E027
:1037B0008E8B1F8A84E99EE1998F888FF901808121
:1037C000BB2019F48C7F826002C08360F901808382
:1037D000F80190819C70F9018081837F892B80831F
:1037E000F80190819071F9018F7E892B982F9F7934
:1037F0009083F801908190788F71892BF9018083F3
:10380000F8018081AD2DBB2784FF0AC0F7018185B7
:103810009285A80FB91F8C91F901818382E029C09C
:1038200088E0888BF8018681F9018183F801828123
:103830009381F90193838283F80184819581F90151
:1038400095838483F8018181F9018683F70181855D
:103850009285A80FB91F8C91F9018783F8018081A7
:1038600087FF1FC08085837031F4F9011086888935
:103870008F5F888B16C088898D5F888BF801808563
:103880008370F90180878FEF8287F80180858370CC
:10389000813019F4F901118604C0F8018185F9011C
:1038A000818764E070E083E90E941521CE010A96C9
:1038B0000E9422170AC080E009C082E00E94D7124D
:1038C000EC01892B09F04CCFF6CF81E09927DF91ED
:1038D000CF911F910F91FF90EF90DF90CF90BF900D
:1038E0009F908F900895AF92BF92CF92DF92EF9208
:1038F000FF920F931F93CF93DF93CDB7DEB7AB97B4
:103900000FB6F894DEBF0FBECDBF8C01FC01E18481
:10391000F284F7019181892F81508E3F18F0AA24FB
:10392000BB241CC0892F0E94FD105C01F70181811E
:1039300081508E3F20F4A114B10421F432C0A114AF
:10394000B10461F0F501A381B481FD0121813281CF
:10395000F701848195812817390719F5F70120812E
:10396000822F8C748834E9F026FF06C0F801878125
:103970009085885F9F4FA8F427FD13C0207C2034DA
:1039800011F021E00FC0F501828180FD06C060E0EA
:10399000C8010E94641B282F05C061E0C8010E9475
:1039A000641B20E0F80184819581019709F4ECC043
:1039B000222309F4E9C0F7015781F801C780D084B8
:1039C00030918A0960914F097091500920E047E0D9
:1039D00017C0249FF0011124E60FF71F8381948103
:1039E000A581B6810097A105B10549F0808191813B
:1039F0008C159D0521F48281851709F4C5C02F5FC0
:103A0000231739F74091550927E0429F900111246F
:103A1000620F731FFB01D182C082E0914F09F091C8
:103A20005009E20FF31F528380914F099091500982
:103A3000280F391F8091860990918709A0918809E4
:103A4000B0918909F90183839483A583B6834F5F7D
:103A50004093550980918A09481710F01092550932
:103A600081E699E00E940721F701818181508E3F14
:103A700020F4A114B10409F487C032E0C32ED12C84
:103A8000DA82C982F801828193819C838B83F7015A
:103A900081818D87C80107960E947F1AFC01892BBE
:103AA000A9F083E090E09F878E8780818A8B818157
:103AB0008B8B82818C8B83818D8B84818E8B858196
:103AC0008F8B8681888F8781898F02C0DF86CE8623
:103AD000F80187819085998B888BF70186818A8F81
:103AE000848195819C8F8B8F828193819E8F8D8F16
:103AF000F80126812A502F8F265F1BA21AA2F701F8
:103B0000808187FD02C0285009C082EA90E09BA313
:103B10008AA3F7018085837011F429502F8FF80153
:103B2000268133278F8D281B310981859285820F4D
:103B3000931F99A388A38FEA90E09DA38CA383850C
:103B40008EA385859685A785B0898FA398A7A9A7F9
:103B5000BAA784858BA7A114B10441F0F501258192
:103B60003681CE010196F90109950EC0F7018181D8
:103B70009E012F5F3F4F8F3F21F4C9010E949B1888
:103B800003C0C9010E94C852AB960FB6F894DEBFBD
:103B90000FBECDBFDF91CF911F910F91FF90EF909E
:103BA000DF90CF90BF90AF900895FC01A185B285C2
:103BB0008C91282F2C70243021F185FD22C01EC04D
:103BC00083708230F1F02830E1F02C30D1F0848124
:103BD00095810297B1F48C9183709927009721F019
:103BE0000297029770F406C02C3059F0CF010E9462
:103BF000731C07C0CF010E94201603C086FFE7CFC9
:103C0000DFCF81E090E008951F93FC01892BA1F0A4
:103C1000808191810E949726DC01009779F0FC0158
:103C20008485813049F0109157096091580970914D
:103C3000590940E050E017C0A0E0B0E050E017C0E4
:103C4000242F33278EE290E0289FF001299FF00D6A
:103C5000389FF00D1124E60FF71F808183708230AA
:103C600009F45F5F4F5F411759F7151B512F4091C2
:103C70005D0980915A09992720915E09240F312D01
:103C8000311D281739075CF480915B09481738F417
:103C9000AB2B19F080E0523018F081E001C080E0D9
:103CA00099271F910895FF920F931F93CF93DF934E
:103CB00051E0F52E2CC00E9405208C0183E992E092
:103CC0000E94933DC8010497029718F441E0F42E36
:103CD0001BC00330110531F0E985FA8580818370BE
:103CE000813079F4E985FA85808186FF06C0CE01AE
:103CF00007960E94041E813021F4CE010E94D51D3A
:103D0000F82E81E0F81619F4CE010E94E61383E93B
:103D100092E00E948F3DEC01892B69F6DF91CF91F3
:103D20001F910F91FF900895CF93DF93EC018B814A
:103D3000882321F464E070E084E703C064E070E06D
:103D400085E70E9415218091520981508093520984
:103D5000BE0187E992E00E947F3D83E090E00E94EF
:103D6000B920DF91CF9108950F931F938C0164E0E8
:103D700070E081E90E941521B80183E992E00E9478
:103D80007F3D83E090E00E94B920809156098F5FCB
:103D9000809356091F910F910895BC018FE892E01E
:103DA0000E947F3D83E090E00E94B92008950F9328
:103DB0001F93CF93DF93CDB7DEB722970FB6F8945A
:103DC000DEBF0FBECDBF20E030E060918A09409198
:103DD0004F09509150090FC09927FC01B3E0EE0F35
:103DE000FF1FBA95E1F7E81BF90BE40FF51F1382EB
:103DF000148215821682822F2F5F3F4F861760F341
:103E00001092530910925409109251098FE892E0D0
:103E10000E94793D83E992E00E94793D87E992E032
:103E20000E94793D8BE992E00E94793D67E579E057
:103E300088E090E00E94950868E579E084E090E0F1
:103E40000E945E0920E030E04EE250E012C0892F6F
:103E50009927849FF001859FF00D949FF00D112408
:103E60008091580990915909E80FF91F80818E7F40
:103E70008083922F2F5F3F4F80915709981738F317
:103E80006AE579E087E090E00E9495086FE579E0C7
:103E900083E090E00E945E0920E030E012C0FF273E
:103EA000CF01A5E0880F991FAA95E1F7EE0FFF1F3C
:103EB000E80FF91F80915F0990916009E80FF91FE1
:103EC0001082E22F90915A092F5F3F4FE91738F384
:103ED0008091570980935B09915090935C091092EF
:103EE0005D0910925E0983E08093810962E879E0C0
:103EF00088E190E00E949508209182093091830921
:103F00004091840950918509DA01C901880F991FF0
:103F1000AA1FBB1F820F931FA41FB51F8093860982
:103F200090938709A0938809B09389096AE879E09A
:103F300087E190E00E9495086FE479E088E090E0E6
:103F40000E945E0940918A09552760E070E08091E7
:103F50004F09909150090E9448A8BE016F5F7F4FA2
:103F600086E190E00E9495080EE114E12AE030E03D
:103F700040E050E060E070E081E699E00E94E120DE
:103F800002E315E12AE030E040E050E060E070E05C
:103F900081E799E00E94E12010925209109256099F
:103FA00022960FB6F894DEBF0FBECDBFDF91CF9142
:103FB0001F910F9108950E9449170E94531E0E945D
:103FC0006D190E94A5150E940520049721F4809187
:103FD0005209882339F080915109813041F41092BF
:103FE0005109089583E090E00E94B811F4CF08953C
:103FF00020918B0930918C0930938E0920938D0983
:1040000090938C0980938B09089580918B099091EE
:104010008C09089580918D0990918E0908952091C1
:104020008B0930918C092230310581F02330310524
:1040300018F4232B41F014C02330310599F02530BA
:10404000310571F409C0019759F40CC08130910514
:1040500049F0049729F406C020E0019721F402C03A
:1040600020E001C021E0822F9927089520918B093B
:1040700030918C09813059F430938E0920938D0949
:1040800083E090E090938C0980938B09089530939E
:104090008E0920938D0910928C0910928B09089536
:1040A00010928F09089580918F09882369F02FB7A6
:1040B000F89433278091E20C9091E30C8062909306
:1040C000E30C8093E20C2FBF0895CF93DF93CDB71D
:1040D000DEB722970FB6F894DEBF0FBECDBF40917A
:1040E0008F094423E9F120E030E0E42FFF27622F1D
:1040F00077272F5F3F4FCF01062E02C095958795FA
:104100000A94E2F780FFF3CF81E090E0062E02C030
:10411000880F991F0A94E2F78095482340938F09EE
:10412000660F771F6D577C4F42E050E0CE0101963D
:104130000E9429A880918F09882369F02FB7F894ED
:1041400033278091E20C9091E30C80629093E30C12
:104150008093E20C2FBFE981FA81309709F009952D
:1041600022960FB6F894DEBF0FBECDBFDF91CF9180
:104170000895BC0140918F09442369F42FB7F89446
:1041800033278091E20C9091E30C80629093E30CD2
:104190008093E20C2FBF81E090E002C0880F991F4E
:1041A0006A95E2F7482B40938F090895FC018081BE
:1041B0009181019729F411921192CF010E9443102D
:1041C00008958F929F92AF92BF92CF92DF92EF921B
:1041D000FF920F931F937C014B0159016A010E94CA
:1041E000D620F7011182108295868486A086B1863A
:1041F000C286D386178706871F910F91FF90EF9095
:10420000DF90CF90BF90AF909F908F900895FC016A
:1042100080819181892B39F481E090E081939193A1
:10422000CF010E9467100895089508950895089594
:1042300020E030E08091900990919109019711F46C
:1042400021E030E0C90108958091550D9091560DFF
:10425000892B61F41092910910929009E091570D09
:10426000F091580D309719F109950895E091530D8B
:10427000F091540D4191F093540DE093530D6091E2
:10428000510D7091520D6F5F7F4F7093520D60937F
:10429000510D615070408CE00E94C2228091550DFA
:1042A0009091560D01979093560D8093550D08955A
:1042B000CF93DF93FC018091900990919109892B14
:1042C00019F08EEF9FEF71C0309709F46CC08081B8
:1042D000918124813581820F931F8050904108F095
:1042E00062C081E090E09093910980939009A1E5EC
:1042F000BDE086E001900D928150E1F77093580D7A
:104300006093570D672B19F4C0E0D0E03DC0E091F9
:10431000530DF091540D4191F093540DE093530DD2
:104320006091510D7091520D6F5F7F4F7093520DE0
:104330006093510D615070408CE00E94C2228091C8
:10434000550D9091560D01979093560D8093550DF4
:1043500080E090E02AC0E091530DF091540D41911E
:10436000F093540DE093530D6091510D7091520DE7
:104370006F5F7F4F7093520D6093510D615070408D
:1043800084E00E94C22221968091550D9091560D95
:10439000C817D90700F3F999FECF1092910910922E
:1043A0009009CE0102C08FEF9FEFDF91CF9108956A
:1043B000FC018091900990919109892B19F08EEF61
:1043C0009FEF0895309709F456C080819181248130
:1043D0003581820F931F8050904108F04CC081E0DE
:1043E00090E090939109809390097093580D609399
:1043F000570DA1E5BDE086E001900D928150E1F7F7
:10440000F999FECF40E050E017C0E091530DF091D4
:10441000540DE40FF51F8091510D9091520D0196AE
:104420009093520D8093510D019792BD81BDF89AE2
:1044300080B580834F5F5F4F8091550D9091560DF1
:104440004817590710F31092560D1092550D809190
:1044500095098061809395092FB7F894332780914F
:10446000E20C9091E30C82609093E30C8093E20C59
:104470002FBFCA0108958FEF9FEF08958091A1008B
:10448000882371F488E893E19093A9008093A800B1
:104490008AE08093A1008091720082608093720014
:1044A00008951092A1000895CF92DF92EF92FF92AB
:1044B0000F931F936C0160913709709138098091B7
:1044C000390990913A09E090A400F090A50028EEF7
:1044D00033E040E050E00E9463A7EE0CFF1CEE0CBE
:1044E000FF1C00271127E60EF71E081F191FF601F3
:1044F000E082F1820283138314821582168217826E
:104500001F910F91FF90EF90DF90CF9008951F9231
:104510000F920FB60F9211242F933F938F939F9377
:10452000AF93BF938091370990913809A0913909D1
:10453000B0913A090A96A11DB11D80933709909355
:104540003809A0933909B0933A0980919609806897
:10455000809396092FB7F89433278091E20C9091BD
:10456000E30C82609093E30C8093E20C2FBFBF9129
:10457000AF919F918F913F912F910F900FBE0F9010
:104580001F901895282FF999FECF72BD61BD40BDCF
:104590008FB7F89499272FBBF99A8FBF08951F9270
:1045A0000F920FB60F9211242F933F938F939F93E7
:1045B000FB98809195098061809395092FB7F894B5
:1045C00033278091E20C9091E30C82609093E30C8E
:1045D0008093E20C2FBF9F918F913F912F910F906D
:1045E0000FBE0F901F9018958091930983FF0CC008
:1045F0002FB7F894332780919309877F809393098D
:104600002FBF0E94A53EAFC08091940987FF0CC0C8
:104610002FB7F8943327809194098F77809394096A
:104620002FBF0E9474419FC08091950980FF0CC0EC
:104630002FB7F8943327809195098E7F8093950941
:104640002FBF0E9458408FC08091950981FF0CC0F8
:104650002FB7F8943327809195098D7F8093950922
:104660002FBF0E9482407FC08091950983FF0CC0BC
:104670002FB7F894332780919509877F8093950908
:104680002FBF0E94DB556FC08091950984FF0CC03D
:104690002FB7F8943327809195098F7E80939509E1
:1046A0002FBF0E9424215FC08091960982FF0CC019
:1046B0002FB7F8943327809196098B7F80939609C2
:1046C0002FBF0E94B2404FC08091960983FF0CC05B
:1046D0002FB7F894332780919609877F80939609A6
:1046E0002FBF0E9471413FC08091960984FF0CC08A
:1046F0002FB7F8943327809196098F7E809396097F
:104700002FBF0E949A402FC08091960985FF0CC050
:104710002FB7F8943327809196098F7D809396095F
:104720002FBF0E9470241FC08091960987FF0CC084
:104730002FB7F8943327809196098F778093960945
:104740002FBF0E94A3100FC08091970987FF0BC055
:104750002FB7F8943327809197098F778093970923
:104760002FBF0E94313E809192098823A1F480914D
:104770009309882381F480919409882361F48091BE
:104780009509882341F480919609882321F480912A
:104790009709882369F02FB7F89433278091E20CAA
:1047A0009091E30C82609093E30C8093E20C2FBF16
:1047B00008958091A402882319F08FEF9FEF089548
:1047C00081E08093A40210925A0D1092590D80E05E
:1047D00090E00895FC018091590D90915A0D892B1C
:1047E00031F58091A402882311F5309701F1808181
:1047F0008093A3021092A20281818093A1028381FF
:1048000094819093A00280939F02858596859093D2
:10481000A6028093A50286E090E090935A0D8093C3
:10482000590D85EA8093BC0080E090E008958FEFF9
:104830009FEF0895E091A502F091A602309711F044
:1048400080E00995089510925A0D1092590DE0914B
:10485000A502F091A602309711F081E00995089524
:10486000282F8091590D90915A0D892B11F480E9D0
:1048700018C08091A202E0919F02F091A002E80F7F
:10488000F11D20838F5F8093A2029091A10289176E
:1048900058F48091BC0080648093BC008091BC007F
:1048A00085688093BC00089588E090E090935A0D4D
:1048B0008093590D84E98093BC00809196098062B1
:1048C000809396092FB7F89433278091E20C90914A
:1048D000E30C82609093E30C8093E20C2FBF089569
:1048E0008091BC0084FDFCCF0E94232408959C018C
:1048F000892B91F08091A402813071F4C9010E944A
:10490000286210925A0D1092590D1092A202109224
:10491000A40280E090E008958FEF9FEF08958091CA
:10492000590D90915A0D8430910551F485E090E035
:1049300090935A0D8093590D8091A302880F0CC05B
:10494000069781F487E090E090935A0D8093590D7B
:104950008091A302880F8F5F8093BB0085E88093CE
:10496000BC00089510925A0D1092590D80E9809361
:10497000BC000E941A2408952091590D30915A0DBF
:104980002115310511F480E954C0882309F454C07D
:104990002530310521F54091A2028091A1024817EE
:1049A00008F04AC0E42FFF279F012F5F3F4F992750
:1049B0002817390731F482E090E090935A0D8093E4
:1049C000590D80919F029091A002E80FF91F8081FC
:1049D0004F5F4093A2028093BB0085E82AC022303B
:1049E0003105E1F483E090E090935A0D8093590DE6
:1049F00084E98093BC008091960980628093960937
:104A00002FB7F89433278091E20C9091E30C8260E9
:104A10009093E30C8093E20C2FBF0895273031056B
:104A200059F48091BC0080648093BC008091BC00EC
:104A300085688093BC00089510925A0D1092590D0C
:104A400080E98093BC000E941A240895FC018091A3
:104A5000590D90915A0D892B31F58091A40288232C
:104A600011F5309701F180818093A30283819481B5
:104A70009093A00280939F021092A2028181809362
:104A8000A102858596859093A6028093A50284E075
:104A900090E090935A0D8093590D85EA8093BC0065
:104AA00080E090E008958FEF9FEF0895382FE82F72
:104AB000E650E230B0F4FF27EE0FFF1FE350F34F54
:104AC00080819181892B69F02DB381E090E002C053
:104AD000880F991F3A95E2F7282B2DBB80E090E0D4
:104AE00008958FEF9FEF0895CF93DF93AC01865029
:104AF0008230F0F4C82FDD27CC0FDD1FC350D34F19
:104B000088819981892BA1F02DB381E090E0042E5A
:104B100002C0880F991F0A94E2F7809528232DBBC5
:104B2000842F0E94C2591982188280E090E002C04E
:104B30008FEF9FEFDF91CF9108950F931F93CF9346
:104B4000DF939C018A01E82FE650E23000F5CE2F7A
:104B5000DD27FE01EE0FFF1FE350F34F80819181AF
:104B6000892BA9F46130710591F06115710511F47B
:104B700060E001C06150822F0E949259CC0FDD1F6E
:104B8000C350D34F1983088380E090E002C08FEFB9
:104B90009FEFDF91CF911F910F910895382FE82F4C
:104BA000E650E230B8F4FF27EE0FFF1FE350F34F5B
:104BB00080819181892B71F02DB381E090E002C05A
:104BC000880F991F3A95E2F7809528232DBB80E046
:104BD00090E008958FEF9FEF08950E9486590E94FC
:104BE0000B3D08950E94ED252FB7F894332780914F
:104BF000E20C9091E30C80619093E30C8093E20CC3
:104C00002FBF0E94483F8823E1F781E083BF88954A
:104C100013BEF7CF1092310A1092320A1092330A63
:104C200020E030E06091360A75E34091340A5091FB
:104C3000350A11C0879FF0011124E40FF51F858507
:104C40009685892B31F4808591859093C80980934E
:104C5000C7092F5F3F4F822F261760F30895AF9249
:104C6000BF92CF92DF92EF92FF920F931F93A22EEB
:104C7000B32EC42ED52EE62EF72E082F192F3091E5
:104C8000360A4091340A5091350A20E065E322C08B
:104C9000269FF0011124E40FF51F85859685069760
:104CA000C1F080818A15A9F481818B1591F48281EC
:104CB0008C1579F483818D1561F484818E1549F406
:104CC00085818F1531F48681801719F487818117CA
:104CD00029F02F5F2317E1F6E0E0F0E0CF011F910C
:104CE0000F91FF90EF90DF90CF90BF90AF9008951D
:104CF000BC013091360A4091340A5091350A20E0C7
:104D0000A5E30FC02A9FF0011124E40FF51F85854C
:104D10009685069729F0808591858617970729F053
:104D20002F5F231779F7E0E0F0E0CF0108950E94AC
:104D300078260895AF92BF92CF92DF92EF92FF92C2
:104D40000F931F93FC01A080B180C280D380E480C8
:104D5000F580068117812A2D3B2D4C2D5D2D6E2D62
:104D60007F2D802F912F0E942F261F910F91FF9052
:104D7000EF90DF90CF90BF90AF900895AF92BF9229
:104D8000CF92DF92EF92FF920F931F930E942F26F4
:104D9000FC01892B19F480E090E002C080859185A8
:104DA0001F910F91FF90EF90DF90CF90BF90AF9049
:104DB00008958F929F92AF92BF92CF92DF92EF921F
:104DC000FF920F93CF93DF93822E932EA42EB52EB6
:104DD000C62ED72EE82EF92E6091360A4091340A5D
:104DE0005091350A30E0A0E0B0E029292A292B298A
:104DF0002C29272B282B292B75E33EC0379FF00148
:104E00001124E40FF51F858596850697A1F181A1F0
:104E1000882389F1002319F480A1882361F12223DA
:104E2000C1F08689881539F58789891521F5808D26
:104E30008A1509F5818D8B15F1F4828D8C15D9F4C5
:104E4000838D8D15C1F4848D8E15A9F4858D8F15F4
:104E500091F4109709F4DF01ED019BA183A189175B
:104E600010F4DF0102C0981731F4ED019F8D878D9A
:104E7000891708F4DF013F5F361709F0BFCFCD0176
:104E8000DF91CF910F91FF90EF90DF90CF90BF9087
:104E9000AF909F908F90089580E090E0089580E01B
:104EA00090E0089580E090E0089580E090E008951B
:104EB00008958F3F11F481E015C08F3A10F082E021
:104EC00011C0803610F083E00DC0813110F084E015
:104ED00009C0873010F085E005C0882311F086E016
:104EE00001C087E099270895482F7727653C710511
:104EF000B0F4643A710518F420E030E012C0862F57
:104F0000845A9927382F2227281B390B85E036959C
:104F100027958A95E1F72F3F310519F010F02FEF13
:104F200030E0842F829586958695837009F481E020
:104F30009927AC01249FC001259F900D349F900DAF
:104F4000112463E070E00E9482A76F3F710519F0A1
:104F500010F06FEF70E0862F99270895882309F4E9
:104F6000862F8695869566956695680F880F860FBD
:104F7000992708950F931F93CF93DF93162F042F34
:104F80000E947826EC01892BF1F0809137099091ED
:104F90003809A0913909B0913A093AE0B695A79538
:104FA000979587953A95D1F79CAB8BAB602F812F66
:104FB0000E947427682F8F850E94AE278F87088BE9
:104FC0000E9459278A8BDF91CF911F910F910895ED
:104FD000FC0186E090E09687858714AA13AA0E94B8
:104FE0000A260E94D82908951F93CF93DF93CDB747
:104FF000DEB728970FB6F894DEBF0FBECDBF182FCF
:105000001092310A1092320A1092330A1092360A24
:105010001092350A1092340A66E37AE080E090E05C
:105020000E94950864E37AE080E090E00E945E09C7
:10503000BE016B5F7F4F8DE190E00E949508BE013D
:105040006F5F7F4F84E190E00E9495082D813E8143
:105050004F81588589819A81AB81BC81280F391F86
:105060004A1F5B1FDA01C901880F991FAA1FBB1FC6
:10507000820F931FA41FB51F8D839E83AF83B887B4
:105080002AE0B695A795979587952A95D1F790939D
:10509000460A8093450A112319F420E030E045C008
:1050A0000E940A2640E050E065E370E01FC0809156
:1050B000370990913809A0913909B0913A093327FD
:1050C000269FF001279FF00D369FF00D11242091AF
:1050D000340A3091350AE20FF31F1AE0B695A7950E
:1050E000979587951A95D1F794AB83AB242F4F5F93
:1050F0005F4F8091360A2817D0F21EC0A5E39A9F11
:10510000D0011124E091340AF091350AEA0FFB1F17
:1051100086E090E0968785878091340A9091350AE1
:10512000A80FB91FFD0114AA13AA922F2F5F3F4F9A
:105130008091360A981710F328960FB6F894DEBFC0
:105140000FBECDBFDF91CF911F910895AF92BF9257
:10515000CF92DF92EF92FF920F931F93A22EB32E66
:10516000C42ED52EE62EF72E082F192F3091360A91
:105170004091340A5091350A20E065E322C0269F11
:10518000F0011124E40FF51F858596850697C1F07F
:1051900086898A15A9F487898B1591F4808D8C15E1
:1051A00079F4818D8D1561F4828D8E1549F4838D8E
:1051B0008F1531F4848D801719F4858D811729F0AE
:1051C0002F5F2317E1F6E0E0F0E0CF011F910F9190
:1051D000FF90EF90DF90CF90BF90AF900895309107
:1051E000360A4091340A5091350A20E065E30AC03E
:1051F000269FF0011124E40FF51F858596850697FB
:1052000031F02F5F2317A1F7E0E0F0E017C03097EF
:10521000A9F01786108A118A128A80913709909115
:105220003809A0913909B0913A097AE0B695A79565
:10523000979587957A95D1F794AB83ABCF01089575
:10524000CF93DF93CDB7DEB721970FB6F894DEBFCB
:105250000FBECDBFDB01672B11F4DE0111961C924E
:10526000805890408133910548F48F549F4FFC0142
:10527000EE0FFF1F0590F491E02D099480E090E07F
:1052800077C081E08C93809198098F5F8093980913
:1052900088E999E06DC081E08C9389E999E068C064
:1052A00081E08C938DE999E063C081E08C938AE979
:1052B00099E05EC081E08C938BE999E059C081E070
:1052C0008C938CE999E054C082E08C9381E39AE05E
:1052D0004FC081E08C938EE999E04AC081E08C93C5
:1052E0008FE999E045C081E08C9380EA99E040C065
:1052F00082E08C938AEA99E03BC082E08C938EEA4C
:1053000099E036C088E08C9380EB99E031C081E071
:105310008C938CEA99E02CC081E08C9382EA99E02E
:1053200027C081E08C9388EB99E022C081E08C93C8
:1053300080EC99E01DC081E08C9386EC99E018C068
:1053400082E08C9387EC99E013C082E08C9383ED2C
:1053500099E00EC082E08C9385ED99E009C081E070
:105360008C9381EC99E004C088E08C938BEC99E0FD
:1053700021960FB6F894DEBF0FBECDBFDF91CF915F
:105380000895CF93DF93EC018A819B8198878F8367
:10539000BE01675F7F4F0E9420299B878A87892BE8
:1053A00011F080E001C089EC8E83DF91CF910895E8
:1053B0008091C1098F70880F880F880F4091240A4F
:1053C0004778482B4093240A50E020919D093327C9
:1053D00060919C09261B31098091320A9927821716
:1053E00093070CF451E0579555275795942F9F77C5
:1053F000952B9093240A20E08091330A861708F4B5
:1054000021E0220F220F9B7F922B9093240A809100
:10541000B0098093250A8091B1098093260A809172
:10542000B2098093270A8091B3098093280A80915A
:10543000B4098093290A8091B50980932A0A809142
:10544000B60980932B0A8091B70980932C0A80912A
:10545000C0098093300A8FEF80932D0A80932E0A23
:1054600080932F0A0895CF93DF93CDB7DEB72297AD
:105470000FB6F894DEBF0FBECDBF1A821982BE01EF
:105480006F5F7F4F89E290E00E949508898199279C
:1054900022960FB6F894DEBF0FBECDBFDF91CF913D
:1054A00008958FE08093BC090E94332A992720E950
:1054B00031E0AC01429FC001439F900D529F900D7F
:1054C0001124892F9927869586958F5F80939E0951
:1054D0000895CF93DF93CDB7DEB721970FB6F89439
:1054E000DEBF0FBECDBFBE016F5F7F4F82E190E098
:1054F0000E9495088981992721960FB6F894DEBFFE
:105500000FBECDBFDF91CF910895CF93DF93CDB77D
:10551000DEB721970FB6F894DEBF0FBECDBF6DE9A1
:1055200079E081E090E00E9495086CE979E082E002
:1055300090E00E9495086BE979E083E090E00E949A
:10554000950869EC79E086E190E00E94950863EAAD
:1055500079E084E090E00E9495086DEA79E089E0C6
:1055600090E00E9495086CEA79E08AE090E00E9461
:1055700095086BEC79E083E190E00E9495086EEB72
:1055800079E080E190E00E9495088091C9099091AE
:10559000CA092091A209029710F4226001C02D7F50
:1055A0002093A209BE016F5F7F4F8EE190E00E94C1
:1055B000950890E08981811191E0990F990F990FD9
:1055C0002091A209277F292B20682093A20930E08F
:1055D0008091C9099091CA09892B09F431E02E7F85
:1055E000232B2093A2090E94512A21960FB6F894EA
:1055F000DEBF0FBECDBFDF91CF910895EF92FF9236
:105600000F931F93CF93DF93CDB7DEB721970FB6DC
:10561000F894DEBF0FBECDBF8C01FC018281938167
:1056200093878287E580F680BE016F5F7F4F0E947F
:105630002029009759F049815527B7010E943FA8BA
:105640000E94D8290E94512A80E005C00E94D829D2
:105650000E94512A89ECF801818721960FB6F894AF
:10566000DEBF0FBECDBFDF91CF911F910F91FF9095
:10567000EF900895FF920F931F93F82E87E39AE01F
:105680000E94431008E919E08FEAF80111928A9507
:10569000E9F7085E1F4FB8018DE090E00E94950881
:1056A0000E94852A0E94512A085F1F4FB80181E29B
:1056B00090E00E9495081092220A9091AC09809186
:1056C000AD098295807F9F70982B9093230A8FEF6E
:1056D0009FEF9093AB098093AA0981E08093A10981
:1056E00082E08093A3098F2D0E94F4270E94D8297D
:1056F0001F910F91FF900895803108F08FE0809303
:10570000C1090E941B399093C5098093C4098091F7
:10571000C1098F5F0E941B399093C3098093C2090E
:105720000895809198098F5F8093980981509927F7
:105730000895BC013091930C4091910C5091920CC2
:1057400020E0ABE00BC02A9FF0011124E40FF51F0D
:10575000808591858617970729F02F5F231799F782
:10576000E0E0F0E0CF010895AF92BF92CF92DF92D8
:10577000EF92FF920F931F93A22EB32EC42ED52E1D
:10578000E62EF72E082F192F4091930C2091910CA3
:105790003091920C90E05BE01EC0959FF0011124C7
:1057A000E20FF31F80818A15A9F481818B1591F492
:1057B00082818C1579F483818D1561F484818E1535
:1057C00049F485818F1531F48681801719F487811A
:1057D000811729F09F5F941701F7E0E0F0E0CF0117
:1057E0001F910F91FF90EF90DF90CF90BF90AF90FF
:1057F00008958091AE0C8823D9F58EEF9FEF0E941B
:10580000992BFC01892BA1F12DEF3FEF31872087E8
:1058100081E090E090939D0C80939C0C30939F0CC2
:1058200020939E0C1092A00C1092A10C1092A20C2E
:105830001092A30C1092A40C1092A50C1092A60C1E
:105840001092A70C8DE08093A80C80819181909399
:10585000AA0C8093A90C8EE59DE29093AD0C8093E9
:10586000AC0C8AE99CE00E942B3B81E08093AE0C5B
:1058700008956F927F928F929F92AF92BF92CF9234
:10588000DF92EF92FF920F931F93CF93DF93CDB7E9
:10589000DEB728970FB6F894DEBF0FBECDBF3C0130
:1058A00009831A832B833C834D835E836F837887C0
:1058B000A091AA09B091AB098A179B0701F58091C5
:1058C000CB098017E1F48091CC098117C1F4809154
:1058D000CD098217A1F48091CE09831781F48091BC
:1058E000CF09841761F48091D009851741F4809124
:1058F000D109861721F48091D2098717D9F08090B9
:10590000CB099090CC09A090CD09B090CE09C09061
:10591000CF09D090D009E090D109F090D209082D9C
:10592000192D2A2D3B2D4C2D5D2D6E2D7F2DCD015A
:105930000E94392CC3010E94992BDC01892BA1F113
:105940008C91F9818F1721F5FD018181FA818F17E3
:10595000F9F4FD018281FB818F17D1F4FD01838170
:10596000FC818F17A9F4FD018481FD818F1781F4DB
:10597000FD018581FE818F1759F4FD018681FF812C
:105980008F1731F4FD018781F8858F1709F448C01E
:10599000FD01808591858D939C938EEF9FEF91877C
:1059A00080870E94F92B3CC029813A814B815C8120
:1059B0006D817E818F8198850E94B42BDC01892BBB
:1059C00031F484E99CE00E944E2FDC011A97FD011E
:1059D00071866086F981FC938A81FD0181839B81B8
:1059E00092838C8183839D8194838E8185839F8123
:1059F0009683888587834091370950913809609153
:105A0000390970913A098AE07695679557954795D7
:105A10008A95D1F71A96BD0184E99CE00E946D2F0A
:105A200029813A814B815C816D817E818F8198854E
:105A30000E942F26FC01892B11F071866086289622
:105A40000FB6F894DEBF0FBECDBFDF91CF911F918F
:105A50000F91FF90EF90DF90CF90BF90AF909F900D
:105A60008F907F906F9008958F929F92AF92BF9288
:105A7000CF92DF92EF92FF920F931F93FC018280EF
:105A80009380A480B580C680D780E084F184082DFF
:105A9000192D2A2D3B2D4C2D5D2D6E2D7F2D8081B6
:105AA00091810E94392C1F910F91FF90EF90DF9010
:105AB000CF90BF90AF909F908F9008951092AE0CB2
:105AC0000E94F92B08958F929F92AF92BF92CF922E
:105AD000DF92EF92FF920F931F93CF93DF93CDB797
